:400000000080002011000000891A0000891A000008B5054B1A6803F53F5302331A6000F0A5F801F04FFD00BFFA46004010B5054C237833B9044B13B10448AFF300800123B6
:40004000237010BDE881FF1F00000000182B0000084B10B51BB108490848AFF300800848036803B910BD074B002BFBD0BDE81040184700BF00000000EC81FF1F182B000042
:40008000C880FF1F0000000000470023014422B1013A885C0344DBB2F9E71846704701380B284FD8DFE800F0060C12181E24302A363C42480902C1F57F3101F5707147E0E3
:4000C0000902C1F57F3101F2C13144E00902C1F57F3101F2C53136E00902C1F57F3101F2C93138E00902C1F57F3101F574712FE00902C1F57F3101F2D13129E00902C1F515
:400100007F3101F2D6311EE00902C1F57F3101F2D23118E00902C1F57F3101F5757112E00902C1F57F3101F5767114E00902C1F57F3101F577710BE00902C1F57F3101F596
:40014000787108E000210B78487843EA002070470878C0B270470B784A788878000440EA02201843CB7840EA0360704710B50B4A137803F0C003802B0ED100241470214632
:400180000220FFF78CFF38B121460220FFF787FFBDE81040FFF778BF10BD00BFFA460040F8B5014606460320FFF779FF314605460420FFF774FF013500EB0525314603207B
:4001C000FFF76DFF0024274601300002854209D910F8013B5A1ED2B2FD2A1C4498BF0127E4B2F3E731460320FFF759FF114B01309D424FEA00204FEAD00014BFED084FF4B9
:400200000045A84206D200F190431B7801301C44E4B2F6E731460120FFF741FF6442E4B2844204D1002F0CBF06200020F8BD0620F8BD00BFC0FF03002DE9F04FADF51F7DD3
:40024000804601F0F3FC10B1002001F0DBFD00F00DFC62B6B8F1000F18BF43464FF000052E4608BFFF23DFF8ECA200934FF00A09B84B1B784BB1022B0FD1009B02AA4FF4F1
:40028000967108A800F08CFC06E0009B02AA4FF4967108A800F034FC0746B8F1000F03D009F1FF395FFA89F9B9F1000F02D0002FDED101E0002F4AD1BDF80820062A40F210
:4002C000D9819DF82030012B40F0D481BDF82270FB1D934200F2CB81B3F5967F00F2C78108AB3B449B79172B40F0C4813B1D9BB200220DF11F012BB1C85C013B024492B2FD
:400300009BB2F8E708ABD91948790B79524243EA002392B2934240F0B08120E05B429BB209AA13551B0A0DF1250213550DF1260317221A559AF80030002B40F08C81E11D9B
:4003400096230DF10A0289B208A800F09AFBB8F1000F8DD0002E00F0D881012688E79DF821309DF82440A3F131020B2A00F2FA80DFE812F02E003F00F8006400A000F800B7
:40038000A400B7006400C800E4000C00002E00F07181012F40F06E81002C40F00F812046FFF7FEFE002840F00C81DFF8B4E109AFBEE80F000FC7BEE80F000FC7BEE80F004F
:4003C0000FC7A3469EE80300382487E8030028E1002E00F04F81002F40F04C813846FFF7DFFEB0FA80F040098DF82400BB46344617E1002E00F03E81012F40F03B81032CCC
:4004000000F23881DAF804301B68C3F30742944202D1C3F3072303E08CBF00234FF480738DF824301B0A00278DF82530FF238DF826308DF82770BB460424F2E0342B12D124
:40044000002E00F01781032F40F01481A4F140033F2B8CBF4FF4907510252A46002153A801F021FF05E0002E00F00481022F40F2018153AB033F3A4658190DF1270101F073
:4004800007FFA4F140032F443F2BBFB204D801F07DFC8022102303E04FF480724FF49073BB4240F09180BDF82550AA4200F29180012640E0002E00F0DD801DE1002E00F062
:4004C000D9807C19B4F5967F00F3D18053AB58193A4609A94FF0000BA5B201F0D9FE5C469FE0002F40F0C6801B4A05AB92E8030009AA83E8030082E803003D460126BB4671
:4005000008248EE0002E00F0B580032F40F0B280A4F140023F2ABDF825B008D801F036FCBBF17F0F4FEA0B1140F2AF8003E0BBF1FF0F40F2B6804FF00A0B71E00020FFF7BD
:400540002FFE10B9054A8023137000F098FA01F05BFC8FE0CC80FF1F1C2B0000FA460040C0FF03006B4A1468002C54D0002E55D0ADF80E700DF1240B00278DF80C30CDF813
:4005800010B005970697CDF81CB005A903A8A047BDF81840B4F5937F02D3079A5A4505D0079A02B934B99DF814B03AE04FF00E0B3C4636E04FF00E0B144632E04FF00C0BF9
:4005C0002EE04FF00C0B2CE0002501264FF0030B1FE03F2C0ED8DAF8042005EB0421106889B2C0F30F2210F0FF0F1CBF013292B28A4245D8294653AA204601F061FB002870
:400600000CBF4FF0000B4FF00A0B01F023FC002501262C4605E04FF0050B02E04FF0050B00240122230A271D8DF820208DF82330ADF80A408DF821B08DF82240BFB2002309
:400640000DF11F02002F3FF469AED15D013F0B449BB2BFB2F6E7022B7FF479AEE11D96230DF10A0289B208A800F01EFA6FE64FF0030BD5E74FF0040BD2E74FF0080BCFE7A2
:40068000002501264FF00A0BC3E710222248FFF7FCFC024652428DF824204FF0000B0124BFE7270207EB0B014FF4807209020020FFF7EBFC3F2C0246ECD807F110775F44AF
:4006C0007F010021C85D013102442029D2B2F9D1032CDFD1BBF1FF0FDCD1002105200192FFF7DDFC019A0021101AC4B20620FFF7D6FC201AC2B2CDE7B8F1000F02D1454675
:400700004746B5E500252F4627E60DF51F7DBDE8F08F00BF0482FF1F0080004038B50020FFF73EFD154C0021636800281A68084614BF06250025FFF7A8FCA3681B78181AF6
:4007400000F0FF00834202D163681B6813B9002001F058FB0A4C237803F0C003402B00D01DB100202070FFF767FD2820FFF764FD80232370BDE8384001F046BBCC80FF1F6C
:40078000FA46004008B501F043FA01F00BFD01F02AFD0323002204210A4800F08BFF0A4B03F1200203F1320103F1100000F076FC064B08B9022200E000221A70FFF7AEFF27
:4007C000FEE700BFD880FF1F2882FF1FCC80FF1F08B51149002001F05FFB0721002001F069FB0E4B00221A700D4B76221A702022A3F581731A700B49012001F04DFB0721E1
:40080000012001F057FB084B0E221A708F221A74022283F85F2008BD850C00000882FF1F8A6500401D0D00002A65004008B501F0FBFC0E4A0E491378A2F5817243F0200305
:4008400082F80231137843F010031370094A012313600B7843F010030B70074902230B601360BDE8084001F0E3BC00BF9A6500409965004000E100E080E200E010B5054C24
:4008800063781BB9FFF7A4FF01236370BDE81040FFF7CCBF0882FF1F08B501F0C5FC0D4A0D491378A2F5817203F0DF0382F80231137803F0EF031370084A012313600B78C9
:4008C00003F0EF030B7002231360BDE8084001F0AFBC00BF9A6500409965004080E100E0104B01221A60104A9378D1781079DBB2C9B208B98B420ED00C49C85C0133DBB25D
:40090000402B28BF002393701379C0B233B1064B00221A7102E0064B1878C0B2054B01221A60704780E100E00882FF1F6A82FF1F4864004000E100E00F4B01221A600F4A96
:400940009178D378994205D11379002B14BF402000200CE09178D37899422BBFD078D378937890782ABF4030181AC01AC0B2044B01221A60704700BF80E100E00882FF1F9B
:4009800000E100E008B501F04FFC0B4B1A7842F001021A701A7802F0FE021A7001F048FC064B01211960064B00229A70DA701A715A71044B196008BD9864004080E100E080
:4009C0000882FF1F00E100E010B5134CE379A279D2B2934202D2511E994201E0991A3F2914BF002101210029F1D193420B4A05D11178490702D40A4B187010BD402B094969
:400A000028BF0023C8540133E37113789B0742BF054B02221A6010BD0882FF1F696500404D640040AA82FF1F00E200E008B501F0FBFB0A4B1A7842F001021A701A7802F09E
:400A4000FE021A7001F0F4FB054A02231360054A00219171D171044A136008BD9D64004080E100E00882FF1F00E100E008B5FFF705FFFFF787FFBDE80840FFF7D7BFFFF75E
:400A80000BBFF8B50E4604461746FFF77BFF731E651E1C44A54204D015F8010FFFF794FFF8E73E800020F8BDF8B5134C074620780D46FF28164617D000F042FC0F4BC0B265
:400AC0001728187007D1A5B101232A463946207800F054FC0DE014280BD00121207800F08DFBFF23237004E040F29A2000F0F8FB207035800020F8BDEB84FF1FEA82FF1F47
:400B00002DE9F84F8046894616460A245C430025ABB2A34213DAFFF70FFF013558B1FFF70BFF0446642001F08DF9FFF705FF8442F5D3002704E0012001F06EF9E8E70527B7
:400B400000243480FFF7F8FE30B3FFF7F5FE328885B2AB189BB24B4533801CD24FF0000B1FFA8BF304EB030A9D421FFA8AFA06D9FFF7B6FE0BF1010B08F80A00F0E72C4478
:400B8000A4B208EB040313F8013C172BDAD0012001F042F9D6E732803846BDE8F88F00002DE9F843334C074620788846FF281646994625463AD000F0C3FB2F4BC0B2172818
:400BC00018702AD10A2202FB09F44FF000091FFA89F3A34217DA287800F030F909F1010968B1287800F02AF90446642001F02AF9287800F023F98442F3D3002404E00120CD
:400C000001F00AF9E3E705240023338042463946287800F033FC30800EE014280BD00121207800F0EBFAFF23237004E040F29A2000F056FB20700524104D2878FF280FD06B
:400C400000F07EFB0E4BC0B2172818700CD014280AD00121287800F0D1FAFF232B7003E0172000F03DFB2870012001F0D5F82046BDE8F883EB84FF1FEA82FF1FEC84FF1F69
:400C8000ED84FF1F2DE9F0431C491D4C0A4625461C4E1D481D4FDFF87CE0DFF87CC03378DBB213F01E091EBF90F8008049EA080880F800809B061ED597F800800B785FFA51
:400CC00088F8DBB20EF80380237813B101238CF8003013780133DBB2137013783F2B84BF00230B700A4B92F800801B789845D6D101232B70D3E7BDE8F08300BF0B82FF1F11
:400D00000C82FF1F686400400882FF1F486400400A82FF1F6A82FF1F0D82FF1F0E4AF0B511460E4C0E480F4D0F4E137827789F4211D0037813F004030DD117783F2F88BFB6
:400D400013700B78DBB2EB5CDBB233700B780133DBB20B70E9E7F0BD0E82FF1F0F82FF1F69650040AA82FF1F4D6400402DE9F04180460C4616461F46BDF8185001F0ACF9B4
:400D800010F0110FFAD0002E14BF04210021012D44EA010402D144F0010408E0022D02D144F0020403E0042D08BF44F00304FE2001F006FA4FEA182001F094F95FFA88F08C
:400DC00001F090F9204601F08DF9032401F09CF918B101F093F904B1013C052001F032F8002CF3D101F090F90028EFD1AC4219DA01F092F9032811D8012E0CBF385DFF2006
:400E000001F070F901F080F90028FBD01EB901F075F9385501E001F071F90134052001F011F8E3E701F058F910F0110FFAD0FF2001F0C6F9BDE8F04101F07EB930B50728D1
:400E400085B026D8154B00221B5C23B344010834ADF80C20ADF80E20E4B2022503AB0095002221462620FFF781FFBDF80C303BB100950DF10E03002221462620FFF776FF4B
:400E8000BDF80E30BDF80C009842E7D140BA80B202E0002000E0184605B030BDF084FF1F30B5072885B026D8154B00221B5C23B344010834ADF80C20ADF80E20E4B2022554
:400EC00003AB0095002221462020FFF74FFFBDF80C303BB100950DF10E03002221462020FFF744FFBDF80E30BDF80C009842E7D140BA80B202E0002000E0184605B030BDCB
:400F0000F084FF1F7FB5802304AE06F8013D01250021009533462A460846FFF727FF002400223346009511461046FFF71FFF9DF90F300134002BE4B203DA642CF0D11020ED
:400F400003E0642C0CBF1020002004B070BD00002DE9F04F8DB0164603AA80460F4692461D464C4B03F1080E144618685968083303C473452246F7D118689B88DFF81891C8
:400F80002060A3804FF0000B0124E1000E23043409F801BF0122009301F0F80153461E20E4B2FFF7E3FE212CEFD1B8F1000F1BD001224FF00409104643460021CDF80090BC
:400FC000FFF7D4FE07AC00222346CDF8009011460120FFF7CBFE002318F80310E25C91421BD10133042BF7D1E7B14FF004083B46012200210520CDF80080FFF7B7FE07AC81
:4010000000222346CDF8008011460520FFF7AEFE0023F95CE25C914201D0062037E00133042BF6D1BEB1062733460122002109200097FFF79BFE07AC00222346009711462D
:401040000920FFF793FE0023F15CE25C9142E4D10133062BF8D10DB9002018E004262B46012200210F200096FFF780FE07AC00222346009611460F20FFF778FE0023E95C38
:40108000E25C9142C9D10133042BF8D1E4E70DB0BDE8F08F482B0000EF84FF1F2DE9F041064686B064200C461746984600F0B4FE35782DB1304600F03BFA06AD45F8140DF6
:4010C00026782EB1204600F033FA06AE46F8100D3C7824B104A9384600F07CFA04AC98F800702FB1404600F023FA06AF47F80C0D4FF0C808FFF706FF10F0FF0F07D0012087
:4011000000F08AFEB8F10108F4D1102008E03B46224631462846FFF71BFFC0B20028EED106B0BDE8F08170B5072886B08DF80F1022D8440108340125E4B200950DF10F039B
:401140002A4621462846FFF711FE00260DF117030095002221460120FFF708FE9DF817301BB1012000F058FE01369DF8170020B17C2EEBD9102000E0012006B070BD000067
:401180007FB511F0040FADF80E008DF80D101A4B02D01C785CBB08E001241A5D012A03D10134082CF9D122E0E4B2650108350126EDB21E5532460DF10D03294600200096DB
:4011C000FFF7D4FDBDF80E2004AB52BA23F8022D02220092294604203246FFF7C7FD31462046FFF7A0FF20B1034B00221A55FF2000E0204604B070BDF084FF1F2DE9FF4175
:4012000007284FF0FF03054688468DF80F302DD8184C235C27464BB3460108360123F6B2009300220DF10F0331460320FFF79EFD9DF80F3013B96355092018E0B8F1000F9C
:4012400003D008212846FFF76EFF10212846FFF76AFF044600B978550122022000920DF10F033146FFF782FD204600E0012004B0BDE8F081F084FF1F07287FB5054625D892
:40128000164B1B5C13B344010834E4B201260DF10F030022009621460220FFF767FD9DF80F3003F0100303F0FF028BB90DF10F03009621460320FFF759FD9DF80F304BB941
:4012C00031462846FFF79AFF092004E0012002E0082000E0072004B070BD00BFF084FF1F1FB50121FFF74CFF0728044620D8134B1B5CEBB1410101230831009300220DF19E
:401300000F0301F0F8010320FFF730FD9DF80F30132B04D000212046FFF770FF0AE002212046FFF700FF28B100212046FFF766FFFF2000E0204604B010BD00BFF084FF1F3F
:4013400007281FB512D80C4B1B5C8BB1400100F108010123009303200DF10F03002201F0F801FFF703FD9DF80F0002E0002000E0184605B05DF804FBF084FF1F07282DE98B
:40138000FF4706460F46154698466FD83A4B1A5C002A6DD0FFF784FD854208F001084FEA86041FD9B8F1000F1CD0611C0123C900009300220DF10D0301F0F8011F20FFF77A
:4013C000D5FC9DF80D202AB1013A4FF4806303FA02F292B2954249D83046FFF761FD8542FAD80546E4B204F101094FEAC9094FF0020A5FFA89F90DF10E0300224946242079
:40140000CDF800A0FFF7B2FCBDF80E0004EB0A0140BAC900ADF80E003B46012201F0F00180B20095FFF7A2FCBDF80E3049462B445BBAADF80E302420CDF800A00DF10E03EE
:401440000122FFF793FC20213046FFF76CFEB8F1000F09D0012000F0DFFC3046FFF70CFF0838C0B20128F5D8284602E0002000E0104604B0BDE8F087F084FF1F2DE9F043C0
:40148000072885B006460F4614464AD8274A105C002847D003F001053046FFF7CFFC84423CD800283ED0A04228BF2046B500EDB205F101084FEAC8085FFA88F84FF00209A1
:4014C00084B20DF10E03002241462820CDF80090FFF74CFCBDF80E00E91C40BAC900ADF80E003B46002201F0F80180B20094FFF73DFCBDF80E30012223445BBAADF80E30EE
:4015000041460DF10E032820CDF80090FFF72EFC40213046FFF707FE204603E0002DBBD1BFE7002005B0BDE8F08300BFF084FF1F2DE9FF410024074606462546A0463846BE
:4015400000F0DEFEF31B984207D916F8013BA3F13002092A0AD8032C02DD4FF0FF3035E004AA224402F8083C013401E02E2B01D03378B3B904AB1C445A1904F8088C02F86C
:40158000108C0DF1070111F8014F4CB112F8103C303C03EB830304EB430402F8104CF2E70135032DCBDD042DD7D19DF800009DF801109DF802209DF803308DF804008DF8E9
:4015C00005108DF806208DF80730019804B0BDE8F0810000F0B5304F00252E46BE46435D002B56D03A681A44527812F0440F47D0A3F13002D2B2092A0CD9A3F16102052A9C
:4016000001D8573B04E0A3F14102052A04D8373BDBB202E0134600E000231B016A1CDBB28B5592B210F802C0DEF800406444647814F0440F23D0ACF13004E2B2092A0FD9BB
:40164000ACF16102052A02D8ACF1570205E0ACF14102052A03D8ACF13702D2B200E0002213448B55052E05F102039BB20AD0C35C03353A2B0CBF00230623ADB204E0154643
:40168000062301E01D4600230136062E01D0002BA5D01846F0BD00BF7C81FF1F421E41F2055012F8013F1BB100EB40105840F8E7704700002DE9F04F05460F46164695B0DC
:4016C00000240DF11408301980B200F08EFD08F804000134052CF6D19DF814300536B6B2002B40F0C9809DF81530C02B40F0C4809DF81630FF2B40F0BF809DF81730EE2BC3
:4017000040F0BA803446242101FB0757B4F5006F80F09E804FF0000904EB090080B200F064FD08F8090009F10109B9F1050FF3D19DF814109DF81590DE299DF816B09DF844
:40174000173002D1B9F1AD0F01D0AA460BE0BBF1BE0FFAD1EF2BF8D17AE09AF80020012A04D00AF1240ABA45F7D12AE0DAF804000193FFF793FFC2B28A42019BF1D1C0F3CE
:4017800007224A45EDD1C0F307425A45E9D1B3EB106FE6D105340023A4B29DF818205FFA83F9E0184A4580B203F1010B0ED9DAF80830019300F019FD019B03F809005B46B1
:4017C000EBE79DF8180005300444A0B204469DE72B78012B3BD16868FFF760FF3346C0F3072AC0F3074B010E4FF00009C4B2B3F5006F24D20022981880B2039102920193D1
:4018000000F0F3FC029A019B08F802000132052A0399F0D19DF81820053213449DF814209BB2DE2A17D19DF81500AD2813D19DF81600BE280FD19DF81700EF280BD1B9F152
:40184000000F04D16A680E4907A800F035FD2435BD42BDD110E09442C9D19DF815209245C5D19DF816209345C1D19DF81720914208BF4FF00109BAE715B0BDE8F08F00BFE0
:40188000942C0000F8B572B6694B61221A70A3F5F06301221A8018229A7046F2A7129A801B229A71062283F88022522203F5C0731A70604B604A1B78604EDBB2137040F649
:4018C00018025F4B19251A8041F25122002423F8022C33784FF4F07003F0010343EA440400F09AFC013D04F0030421D0032CF0D1544B4FF480721A8007221A70524A0024FE
:4019000048211470917002221C705C7103F8032C4E4A4F4D1378062643F003031370444B01221A704B4A137843F00403137000E0FEE706FB045300219A881868013400F04D
:40194000B2FC0B2CF5D180224349444800F0A0FC00221146424C04F1900554F8210005EB420320F0FF06C0B2024405EB4200013303300233834206D013F8037C13F802EC8A
:4019800007F806E0F5E701312429E6D1354A36491378364843F002031370137C344C43F002031374A2F58632633A137843F0400313700B7843F010030B702E4B1D4619688F
:4019C00001605968416055F8080F696803C4184629891D46218050F8121FC83C44F81E1C416855F81A0F44F81A1C696803C429892148218053F8241FA4F688540160596816
:401A000041601E490B7843F008030B701C4B01F5AA511B780C31DBB203F007001B0908704B70184B442119700FCA07C42380F8BD004800400F010049A14600402542004060
:401A4000224200400440004006400040A2430040502D0000E8460040922D0000801A0140142E000003500140C2430040C2510040F0510040DE340000525100402243004085
:401A8000CF0100497658004008B500F0D5FB03680C2B00D1FEE7FEE7084908B50B68084A1844821A802A01DC086005E000F0C4FB0C2303604FF0FF33184608BD6881FF1FCA
:401AC0000085FF1F80B51148114B0025C0B1A3F1100192C922460439161BB74204D051F8046F42F8046BF7E7114653F8046C8C1AA64202D041F8045BF9E701381033E5E7AB
:401B000000F0A0FBFEF73EFEFEE700BF0100000074360000104A114B10B41A60104A114C1368114843F4007313600023032B98BF54F823204FEA830188BF0C4A0133302BDE
:401B40004250F3D10A4B1A780A4B1A700A4B064A10BC1A60FFF796BE0004FA050CED00E014ED00E0000000000080FF1F891A0000BC760040C080FF1F08ED00E0184A137884
:401B800043F002031370937803F08F0343F010039370144B1A7802F0CF021A701A7842F030021A701A7802F0F0021A701A7842F00F021A70FF2223F8072C7F2223F8052C18
:401BC000002203F8082C084A137843F00103137092F85E3B43F0010382F85E3B704700BF004F00400B4F0040A3430040074A137843F001031370137C43F00103137492F85E
:401C00005D3B43F0010382F85D3B7047A343004008B505490B781BB9FFF7B0FF01230B70BDE80840FFF7E2BF1182FF1F70B500F04BF900F0E9F908B104243AE000F01EFADD
:401C40000728044610D11C4D2A781B4B900703D4012000F0F7F8F7E71A78910704D51B789B0814BF0724002400F0EEF90CBB00F02BF900F0C9F90028DED1012000F0AAF903
:401C800007280AD10C4D02210C4800F02FF90228094E05D02B789B07F5D54FF0FF3406E033789A0703D4012000F0CCF8F8E700F0CBF9204670BD00BF22470040F884FF1F55
:401CC00041282DE9F04105460E46174698460AD8441F3A2C8CBF002401243F2804D8B1F5807F30D806E00124812E28BF0124B8F1100F28D13FB334BB00F086F928BB4346E8
:401D00003A463146284600F00FF9072834D1DFF8748098F800201B4B12F0020F1F4603D1012000F08FF8F4E71A78900706D51B789B080CD002E01A78920719D44FF0FF34F0
:401D400000F082F91AE0012418E0042416E00E4A314653782846127800F01CF907280BD13A78084B9107E6D4012000F06BF8F7E71B789B08E4D0E1E70446E1E72046BDE8A9
:401D8000F08100BF22470040F884FF1F08B500F04BFA0F4A137843F008031370137C43F0080313740B4BC8221A700B4A137843F010031370137C43F01003137402F5557238
:401DC00013789B06FCD5BDE8084000F031BA00BFA043004001470040AC430040044B1A7842F001021A701A789207FCD5704700BF02470040024A137803F0FE0313707047E5
:401E00000247004001BE7047024A137843F0010313707047F646004038B50446084DB4F5004F05D9286800F0F7F9A4F50044F6E7034B58686043BDE8384000F0EDB900BF30
:401E40006C81FF1F024B1B7A584300F0E5B900BF6C81FF1F08B500F0E7F900BF00BF00BF00BF00BF00BF00BF00BF00BF00BF00BF00BF00BF00BF00BF00BF064A13889BB2CD
:401E800043F0040313801388BFF36F8FBDE8084000F0CEB900480040054A00F01F00126800F1100352F8230042F82310704700BF08ED00E000F01F0000F16040490100F53E
:401EC0006440C9B20170704708B500F0ADF9064A137843F008031370137C43F008031374BDE8084000F0A4B9A04300402DE9F0410E464B1E0A4FDFF82C80451EC418A542F5
:401F00000BD03B78DB0703D40120FFF79BFFF8E798F8003005F8013FF1E73046BDE8F081224700402047004070B5184D2C78A60727D5174CB6262670D5262670022626701E
:401F40002D78AD071FD416462070B51AADB2AB4203D916F8015B2570F7E7B3F5807F01D0072070BD3F28FBD800F5103001EB0021490100235A5C0133D2B2202B2270F9D18B
:401F8000EEE7042070BD092070BD00BF224700402047004070B50D4D2C78A60712D50C4CB6262670D8262670052626702D78AD070AD42070080AC9B2207021702270237026
:401FC000072070BD042070BD092070BD22470040204700400A4A137899070CD5094BB6211970E12119700E2119701278920704D4187007207047042070470920704700BF64
:40200000224700402047004038B500F00DF90C4A147874B901250B4915700B682B400AD00B6823F001030B6000BF00BF00BF556002E0042400E01C4600F0FAF8204638BD37
:402040001482FF1F0400084010B500F0EDF8094B00215A681970012A08D1074C226842F00102226000BF00BF00BF5960BDE8104000F0DEB81482FF1F04000840074B1B7818
:402080009B0708D5064BB6221A70E0221A700D221A70072070470420704700BF224700402047004008B500F0BFF80A4A137843F02003137012F8013C43F0100302F8013C01
:4020C00092F8FC3043F0100382F8FC30BDE8084000F0AEB89C640040014B1878704700BF6B640040034A13785B07FCD5024B1870704700BF6B6400404B650040014B187829
:40210000704700BF5B650040024B1878C0F34010704700BF68650040064B1B78DBB29A0705D413F0040F14BF0120042070470020704700BF6B64004008B50B4A0B49137860
:402140009B0601D50B78FAE700F06EF8084B1A7842F001021A701A7802F0FE021A70BDE8084000F065B800BF686500405B6500409B65004008B5074B0F221A70FFF7DCFFDB
:40218000054B064A1B78064B1B780023137082F8FD3008BD8C6400406B6400408B6400406865004010B5054C23781BB9FFF7E2FF01232370BDE81040FFF774BF1C82FF1F8E
:4021C000044A4000137800F0020003F0FD030343137070475051004008B5FFF727FDBDE80840FFF7D3BDFFF7F7BF38B5044600F01BF80546FFF7F2FD04F1804303F500432D
:402200001C78FFF7F7FDE4B2284600F011F8204638BD0000000000000230800803D000BF01380046FCD17047EFF3108072B6704780F31088704700BF014B1868704700BF65
:40224000E081FF1F0E4B70B51E460E4C0025E41AA410A54204D056F8253098470135F8E701F0EEF9084B094C1E46E41AA4100025A54204D056F8253098470135F8E770BD40
:402280004C3600004C3600004C3600005436000010B5431E0A44914204D011F8014B03F8014FF8E710BD03460244934202D003F8011BFAE7704700000EB400B54FF4027195
:4022C0009CB0ADF814106FF00041049107914FF6FF711DAB02900690084853F8042BADF81610006802A9019300F0CAF8029B00221A701CB05DF804EB03B07047E081FF1F27
:40230000034613F8012B002AFBD1181A0138704770B5CD1C25F0030508350C2D38BF0C25002D064601DBA94202D90C23336046E000F06FFB234B1C681A462146A1B10B6861
:402340005B1B0ED40B2B03D90B60CC18CD501EE08C420BBF63684B681360636018BF0C4615E00C464968E9E7174C23681BB9304600F016FB20602946304600F011FB431C53
:4023800018D0C41C24F00304A0420DD12560304600F040FB04F10B00231D20F00700C31A0ED05A42E25070BD211A304600F0F8FA0130EBD10C233360304600F02BFB002059
:4023C00070BD00BF2482FF1F2082FF1F2DE9F0478E6882469E420C46914698463ED88A8912F4906F3AD02568096902236F1A656905EB450595FBF3F57B1C43449D4238BF22
:402400001D4653050FD52946FFF782FF064698B13A462169FFF73CFFA38923F4906343F08003A38113E02A4600F042FB064670B92169504600F0F0FA0C23CAF80030A389EB
:402440004FF0FF3043F04003A381BDE8F08726613E44266046466561ED1BA560464528BF464649463246206800F0B8FAA36800209B1BA36023681E442660BDE8F0870000A8
:402480002DE9F04F9DB003938B8980461C060D4616460DD50B695BB94021FFF739FF2860286118B90C23C8F80030CDE040236B610023099320238DF82930DFF89CB130230C
:4024C0008DF82A3037463C4614F8013B1BB9B7EB060910D003E0252BF9D02746F3E74B46324629464046FFF771FF013000F0A780099B4B4409933B78002B00F0A080002382
:402500004FF0FF3204930793059206938DF853301A930126052221784E4800F051FA671C049B38B14B4A3C46801A06FA00F018430490EFE7D90644BF20228DF853201A07AF
:4025400044BF2B228DF8532022782A2A03D0079A00210A200BE0039A111D12680391002A10DA524243F00200079204900BE027463B780134303B092B03D800FB023201218D
:40258000F5E701B107923B782E2B1ED17B782A2B0AD1039B02371A1D1B680392002BB8BF4FF0FF33059310E0002319460593781C0A2407463A780130303A092A03D804FB92
:4025C00001210123F5E703B1059103223978224800F0F6F940B14023CBEB000003FA00F0049B013718430490397806221B487E1C8DF8281000F0E4F988B1194B33B9039B0C
:40260000073323F007030833039314E003AB00932A46144B04A94046AFF3008007E003AB00932A460F4B04A9404600F093F8B0F1FF3F824603D0099B5344099342E7AB89CB
:402640005B0601D4099801E04FF0FF301DB0BDE8F08F00BF0D360000133600001736000000000000CD2300002DE9F04791461F460A698B6806469342B8BF1346C9F80030EA
:4026800091F843200C46DDF8208012B10133C9F800302368990642BFD9F800300233C9F80030256815F0060510D104F1190A07E00123524639463046C04701301AD00135A7
:4026C000E368D9F800209B1A9D42F1DB94F843302268003318BF012392060FD5E118302081F843005A1C94F845102244023382F8431003E04FF0FF30BDE8F08704F14302A0
:4027000039463046C0470130F4D02268D9F80050E36802F00602042A08BF5D1B2269A3680CBF25EAE57500259342C4BF9B1AED184FF000091A344D4509D00123224639463E
:402740003046C0470130D5D009F10109F3E70020BDE8F0872DE9F04317460A7E85B06E2A984606460C460C9B01F1430E00F0AE8011D8632A22D009D8002A00F0BB80582A4D
:4027800040F0CA8081F84520834955E0642A1ED0692A1CD0C0E0732A00F0B08009D86F2A2ED0702A40F0B8800A6842F020020A603EE0752A24D0782A3AD0ADE01A6801F160
:4027C0004205111D1960136884F84230A8E021681A6811F0800F02D0111D196008E011F0400F02F10401196002D0B2F9003000E01368002B3CDA2D225B4284F8432037E012
:4028000021681A6811F0800F02D0111D196007E011F0400F02F10401196001D0138800E01368227E5C496F2A14BF0A2208221BE078225A4984F845202268186812F0800F5A
:4028400000F104051D6003D1550601D5038800E00368D00744BF42F0200222601BB9226822F0200222601022002084F8430001E049490A226568002DA56008DB206820F018
:40288000040020602BB9002D7DD175460CE0002B79D07546B3FBF2F002FB1033CB5C05F8013D03460028F5D1082A0BD12368DA0708D5236962689A42DEBF302305F8013C43
:4028C00005F1FF35C5EB0E0323612EE008681A6810F0800F496903D0101D1860136808E010F0400F02F104001860136801D0198000E0196000232361754616E01A68111D49
:402900001960156800216268284600F059F808B1401B6060636804E004F1420584F8422001232361002384F84330CDF800803B4603AA21463046FFF797FE013002D14FF092
:40294000FF3026E023692A4639463046C0470130F5D023689B0710D5002504F1190907E001234A4639463046C0470130E7D00135E368039A9B1A9D42F2DBE068039B984228
:40298000B8BF184605E00B7804F1420584F842308AE705B0BDE8F0831E3600002F36000038B5064C0023054608462360FFF774F8431C02D1236803B12B6038BDFC84FF1F4A
:4029C00010B5C9B202449042034605D01C7801308C42F8D1184610BD002010BD884210B501EB020301D8421E0BE09842FBD28118D21AD34204D013F8014D01F8014DF8E7B5
:402A000010BD994204D011F8014B02F8014FF8E710BD70477047000038B50546002944D051F8043C0C1F002BB8BFE418FFF7F1FF1E4A1368114613B96360146030E0A34282
:402A40000DD92268A018834201BF18685B681218226063600C6023E0A24203D813465A68002AF9D118681918A1420BD12168014458188242196013D11068526801441960FB
:402A80005A600DE002D90C232B6009E021686018824201BF106852680918216062605C602846BDE83840FFF7B5BF38BD2482FF1FF8B5074615460E4621B91146BDE8F840B5
:402AC000FFF726BC1AB9FFF7A7FF2846F8BD00F015F885420ED929463846FFF719FC044650B131462A46FFF7D3FB31463846FFF793FF01E03046F8BD2046F8BD51F8040CD6
:402B00000028BEBF091851F8043CC01804387047003800008E000000000000006900122E003C010169705F616464720069705F676174657761790069705F7375626E657408
:402B40000069705F6D6163000202800000000000000000000000453A52616E67652025692E25752D25692E25750D0A00453A52616E67652025692D25690D0A000925733D22
:402B800025752E25750D0A000925733D25750D0A000925733D25692E25750D0A000925733D25690D0A000925733D25660D0A000925733D25630D0A000925733D25730D0AB5
:402BC0000025733B25752E25753B25753B25753B25692E25753B25692E25750025733B25753B25753B25753B25753B25750025733B25692E25753B25753B25753B25692E49
:402C000025753B25692E25750025733B25693B25753B25753B25693B25690025733B25663B25753B25753B25693B25690025733B25633B25753B25753B25733B2573004E39
:402C4000554C4C0025733B25733B25753B25753B25733B2573002569202F202569206E657720636F6E66696720706172616D73207772697474656E2E2025692062797465A0
:402C8000732066726F6D203230343820757365642E0D0A005741524E494E473A20506172616D205B25735D206E6F7420666F756E6420696E20454550524F4D0D0A001B5BDF
:402CC000256960001B5B33366D2573001B5B33376D7C201B5B33326D25752E2575001B5B33376D7C201B5B33326D2575001B5B33376D7C201B5B33326D25692E2575001B02
:402D00005B33376D7C201B5B33326D2569001B5B33376D7C201B5B33326D2566001B5B33376D7C201B5B33326D2563001B5B33376D7C201B5B33326D2573001B5B33376D64
:402D40007C2025730D0A001B5B25693B25694800004F00400C00005100401000205100401000405100401000605100401000000001400010001401408006001B014000018B
:402D800000400140000A004C0140000200500140200000200500054500028003201C050000202808421018202100D4002040050000200020050005200000070B081400093E
:402DC000001600400020FF070018000030A0000000052406300005DEF0CB3BFFFFFF2200F00C040000000000000004040400000000010000C00040011011C00100114001D6
:402E0000400100000000000000000000000000000000000001450040024F004004520040026400400265004001010140010301400105014001070140590801404D09014006
:402E40004D0A0140530B0140590C0140370D0140040E0140030F0140021701404618014042190140131A0140461B014009400140074101400B4201400743014002440140F2
:402E80000245014002460140064701400648014006490140024C0140094D014007500140025101407E0201100A4B1802601061117C4088388C0F890F8A76E650E602E288E9
:402EC000E0100007010202180330050107100F0413041408150318031A141B031F0321032308281B29032A042E022F0330063118321C330435203601370338083A033E4074
:402F00003F05406541034204440146EC480C49FF4AFF4BFF4C624DA04EF04F41500C54185604580459045A045B045F016640670269106A306B106D106E106F128B018D03E2
:402F40008E7090079238950398079A589C729E0CA220A303A504A701AA0DB068B106B403B63CB701B820B902BA82BE10BF40D804D904DF01008005010A4A0B800D200E207C
:402F8000124C1420151016111A421BA01D431E201F022080210122402510260427422A042B802C802D62320436A0370938203B803C0C3F8247494D604E024F2056205740EC
:402FC0005F026440670A8C8090249110920C93089587960297C0981299029A129B159CC09D489E619F28A161A220A309A469A502A60AA790A810AB40C011C26BC4CACAB357
:40300000CCF2CEDCD0D0D230D680D8B0E01001120320040306040D180E080F22100312041528180319011A0C1B061C0A1E042138230429202A052B182D203301340F353E69
:403040003A203F045608580459045B045D905F018044812E8212831185408706888989398A428B068C568D40901A92E59309953F9612981299029A449C56A456A504A81F6C
:40308000A926AAA0AB19AC44B080B110B207B360B478B507B70EB820B90ABB20BE01D409D804D904DB04DF0100A0011002100402051006020A0A0B800C800D020E241208E3
:4030C00015101601174419201A081C201D301E4021042210244025042620271129202A402B802C24310432103602372839023B803C023D083F604102428058805C105D0813
:403100005E4260026302654078047A207C207E0485048840902692049308944095959780981099069A129B049C229D109EA19F10A080A141A211A308A408A608C0D5C2FB0B
:40314000C4E2CA6DCCE6CEF9D6F8D818E2800010024408230A100B010C540F011002120D1410162418441A101C542005223A245428172A282E10300F3230344035013640B4
:403180003A0A3E403F1056025720580459045B045F01811F824083E0844385E3863C871C88558A2A8DE08F1C902A921595E3971C99039A809BFCA04FA125A230A3DAA473C1
:4031C000A60CA873A948AA0CAB25AC30AD92AE0CAF25B0C0B43FB5FFBF10C036C105C50BC6C0C70EC819C9FFCAFFCBFFCEF0CF44D00CD804D904DA04DF01E6C0EA40EB02F8
:4032000001220310040205100602080209200C800E64100811051340151016811704180419221E621F1121202510280229223008331039853B403C403E20402049044A082D
:403240004B80501052105308641067226C816D826E046F0476027D207F04C0DEC2FAC4FFCA0DCC06CE3BD002D20CD810E602B808BE04D804DF011D088D08E650E204EA02C1
:40328000010D050D0A490D0D1102130D150D1634182119021A0A1B041E02210D280729012A182B022C2C2D022E132F08323F3640370F3BA25440580459045B045F01809C04
:4032C00081038243849F85018620870288F38A0C8D018E638F0290829501960C970299019A809B029C01A003A408A804A904ACFFB010B103B304B40FB6ECBAA0BE01BF04FC
:40330000D401D604D804D904DB04DF010003012002A20608088209100A200D200E2210A013A01550180119201A401E222206278A2B082D502E022F023008321033103510C6
:40334000370639853D823E0458205A8A61306380661067218340911092849585974098329A029B149D289E459F28A084A173A220A32AA429A682AE10B604B701C04FC2EFE8
:40338000C4CFCAB4CCE6CEDBD60FD871EA02EC084002460449FF4A0F4BFF4C404D204EF04F055008560257105A045B045F01604061A86240632004020504060A0C040D0251
:4033C0000E080F021510168017041E08242627422C042E062F02310233023690370638203B203C043D923E803F024320441445224D184E814F015244561959045A44680820
:4034000069857020736083408601911092449585976198109A029B049D089E5D9F20A163A210A320A428AE01AF08B084C0F0C2F0C470CAF0CCF0CEF0D0E4D230D608E40104
:40344000E60230403301358036083B408E088F04CCF0CE10874097409B049C409D809F01E64053085B04862088409B049C409D809F01D420D640E2101B088D209A209D8090
:403480009F01A708C6108F40E6028480A7409C80A740088009080F809C80A740C20E81809A209DA0AF01E220EA40012056209A209D20C040D4409902AD0A01205004750213
:4034C000800485209902C002D404DE04000101010C010D010E0110011C0100AF010200111100110000004000000000000000C000000B0B000000000002000402020002002A
:403500000000040A0A0008000000002020202020202020202828282828202020202020202020202020202020202020881010101010101010101010101010100404040404B7
:403540000404040404101010101010104141414141410101010101010101010101010101010101010101101010101010424242424242020202020202020202020202020225
:40358000020202020202101010102000000000000000000000000000000000000000000000000000000000000000000000000000000000000000000000000000000000009F
:4035C00000000000000000000000000000000000000000000000000000000000000000000000000000000000000000000000000000000000000000000000000000000000CB
:4036000000000000000000000000004300232D302B2000686C4C00656667454647003031323334353637383941424344454600303132333435363738396162636465660054
:40364000F8B500BFF8BC08BC9E46704751000000151B0000F8B500BFF8BC08BC9E4670472D00000078360000C880FF1F20010000180300000000000000000000020000004C
:40368000102B0000142B000001000000242B00002882FF1F1004000000000000000000000000000000000000932C0000010000002C2B00003882FF1F100400000000000061
:4036C000000000000000000000000000932C000001000000372B00005A82FF1F1004000000000000000000000000000000000000932C000001000000412B00004882FF1F86
:403700001204000000000000000000000000000000000000932C00000085FF1F0000007D00FA0000400000000090D0030A35000000000000000000000000000000000000B8
:40374000000000000000000000000000000000000B360000000000000000000000000000000000000000000000000000000000000000000000000000000000000000000008
:40378000000000000000000000000000000000008081FF1F0000000000000000000000000000000000000000000000000000000000000000000000000000000000000000EA
:4037C00000000000000000000000000000000000000000000000000000000000000000000000000000000000000000000000000000000000000000000000000000000000C9
:403800000000000000000000000000000000000000000000000000000000000000000000000000000000000000000000000000000000000000000000000000000000000088
:403840000000000000000000000000000000000000000000000000000000000000000000000000000000000000000000000000000000000000000000000000000000000048
:403880000000000000000000000000000000000000000000000000000000000000000000000000000000000000000000000000000000000000000000000000000000000008
:020000040003F7
:40FFC00000000000000000000000000000000000000000000100010000000000000000000000000000000000000000000000000000000000000000000000000000000000FF
:0200000480007A
:4000000000000000000000000000000000000000000000000000000000000000000000000000000000000000000000000000000000000000000000000000000000000000C0
:400040000000000000000000000000000000000000000000000000000000000000000000000000000000000000000000000000000000000000000000000000000000000080
:400080000000000000000000000000000000000000000000000000000000000000000000000000000000000000000000000000000000000000000000000000000000000040
:4000C0000000000000000000000000000000000000000000000000000000000000000000000000000000000000000000000000000000000000000000000000000000000000
:0200000490006A
:0400000000004005B7
:0200000490105A
:04000000BC90ACAF55
:0200000490303A
:02000000D50227
:0200000490402A
:4000000000000000000000000000000000000000000000000000000000000000000000000000000000000000000000000000000000000000000000000000000000000000C0
:400040000000000000000000000000000000000000000000000000000000000000000000000000000000000000000000000000000000000000000000000000000000000080
:400080000000000000000000000000000000000000000000000000000000000000000000000000000000000000000000000000000000000000000000000000000000000040
:4000C0000000000000000000000000000000000000000000000000000000000000000000000000000000000000000000000000000000000000000000000000000000000000
:0200000490501A
:0C00000000012E12006900012E25D56BB6
:00000001FF