:400000000080002011000000911900009119000008B5054B1A6803F53F5302331A6000F0A5F801F0BDFC00BFFA46004010B5054C237833B9044B13B10448AFF3008001233B
:40004000237010BD9081FF1F00000000A8210000084B10B51BB108490848AFF300800848036803B910BD074B002BFBD0BDE81040184700BF000000009481FF1FA8210000E6
:40008000C880FF1F0000000000470023014422B1013A885C0344DBB2F9E71846704701380B284FD8DFE800F0060C12181E24302A363C42480902C1F57F3101F5707147E0E3
:4000C0000902C1F57F3101F2C13144E00902C1F57F3101F2C53136E00902C1F57F3101F2C93138E00902C1F57F3101F574712FE00902C1F57F3101F2D13129E00902C1F515
:400100007F3101F2D6311EE00902C1F57F3101F2D23118E00902C1F57F3101F5757112E00902C1F57F3101F5767114E00902C1F57F3101F577710BE00902C1F57F3101F596
:40014000787108E000210B78487843EA002070470878C0B270470B784A788878000440EA02201843CB7840EA0360704710B50B4A137803F0C003802B0ED100241470214632
:400180000220FFF78CFF38B121460220FFF787FFBDE81040FFF778BF10BD00BFFA460040F8B5014606460320FFF779FF314605460420FFF774FF013500EB0525314603207B
:4001C000FFF76DFF0024274601300002854209D910F8013B5A1ED2B2FD2A1C4498BF0127E4B2F3E731460320FFF759FF114B01309D424FEA00204FEAD00014BFED084FF4B9
:400200000045A84206D200F190431B7801301C44E4B2F6E731460120FFF741FF6442E4B2844204D1002F0CBF06200020F8BD0620F8BD00BFC0FF03002DE9F04FADF51F7DD3
:40024000804601F0FBFC10B1002001F0E3FD00F00DFC62B6B8F1000F18BF43464FF000052E4608BFFF23DFF8ECA200934FF00A09B84B1B784BB1022B0FD1009B02AA4FF4E1
:40028000967108A800F074FC06E0009B02AA4FF4967108A800F01CFC0746B8F1000F03D009F1FF395FFA89F9B9F1000F02D0002FDED101E0002F4AD1BDF80820062A40F240
:4002C000D9819DF82030012B40F0D481BDF82270FB1D934200F2CB81B3F5967F00F2C78108AB3B449B79172B40F0C4813B1D9BB200220DF11F012BB1C85C013B024492B2FD
:400300009BB2F8E708ABD91948790B79524243EA002392B2934240F0B08120E05B429BB209AA13551B0A0DF1250213550DF1260317221A559AF80030002B40F08C81E11D9B
:4003400096230DF10A0289B208A800F09AFBB8F1000F8DD0002E00F0D881012688E79DF821309DF82440A3F131020B2A00F2FA80DFE812F02E003F00F8006400A000F800B7
:40038000A400B7006400C800E4000C00002E00F07181012F40F06E81002C40F00F812046FFF7FEFE002840F00C81DFF8B4E109AFBEE80F000FC7BEE80F000FC7BEE80F004F
:4003C0000FC7A3469EE80300382487E8030028E1002E00F04F81002F40F04C813846FFF7DFFEB0FA80F040098DF82400BB46344617E1002E00F03E81012F40F03B81032CCC
:4004000000F23881DAF804301B68C3F30742944202D1C3F3072303E08CBF00234FF480738DF824301B0A00278DF82530FF238DF826308DF82770BB460424F2E0342B12D124
:40044000002E00F01781032F40F01481A4F140033F2B8CBF4FF4907510252A46002153A801F08DFE05E0002E00F00481022F40F2018153AB033F3A4658190DF1270101F008
:4004800073FEA4F140032F443F2BBFB204D801F085FC8022102303E04FF480724FF49073BB4240F09180BDF82550AA4200F29180012640E0002E00F0DD801DE1002E00F0EF
:4004C000D9807C19B4F5967F00F3D18053AB58193A4609A94FF0000BA5B201F045FE5C469FE0002F40F0C6801B4A05AB92E8030009AA83E8030082E803003D460126BB4605
:4005000008248EE0002E00F0B580032F40F0B280A4F140023F2ABDF825B008D801F03EFCBBF17F0F4FEA0B1140F2AF8003E0BBF1FF0F40F2B6804FF00A0B71E00020FFF7B5
:400540002FFE10B9054A8023137000F098FA01F063FC8FE0CC80FF1FAC210000FA460040C0FF03006B4A1468002C54D0002E55D0ADF80E700DF1240B00278DF80C30CDF885
:4005800010B005970697CDF81CB005A903A8A047BDF81840B4F5937F02D3079A5A4505D0079A02B934B99DF814B03AE04FF00E0B3C4636E04FF00E0B144632E04FF00C0BF9
:4005C0002EE04FF00C0B2CE0002501264FF0030B1FE03F2C0ED8DAF8042005EB0421106889B2C0F30F2210F0FF0F1CBF013292B28A4245D8294653AA204601F069FB002868
:400600000CBF4FF0000B4FF00A0B01F02BFC002501262C4605E04FF0050B02E04FF0050B00240122230A271D8DF820208DF82330ADF80A408DF821B08DF82240BFB2002301
:400640000DF11F02002F3FF469AED15D013F0B449BB2BFB2F6E7022B7FF479AEE11D96230DF10A0289B208A800F01EFA6FE64FF0030BD5E74FF0040BD2E74FF0080BCFE7A2
:40068000002501264FF00A0BC3E710222248FFF7FCFC024652428DF824204FF0000B0124BFE7270207EB0B014FF4807209020020FFF7EBFC3F2C0246ECD807F110775F44AF
:4006C0007F010021C85D013102442029D2B2F9D1032CDFD1BBF1FF0FDCD1002105200192FFF7DDFC019A0021101AC4B20620FFF7D6FC201AC2B2CDE7B8F1000F02D1454675
:400700004746B5E500252F4627E60DF51F7DBDE8F08F00BFAC81FF1F0080004038B50020FFF73EFD154C0021636800281A68084614BF06250025FFF7A8FCA3681B78181A4F
:4007400000F0FF00834202D163681B6813B9002001F060FB0A4C237803F0C003402B00D01DB100202070FFF767FD2820FFF764FD80232370BDE8384001F04EBBCC80FF1F5C
:40078000FA46004008B501F0B1F901F03DFA01F098FC0323002204210A4800F07EFF0A4B03F1200203F1320103F1100000F06AFC064B08B9022200E000221A70FFF7AEFF37
:4007C000FEE700BFD880FF1FC481FF1FCC80FF1F08B51149002001F067FB0721002001F071FB0E4B00221A700D4B76221A702022A3F580731A700B49012001F055FB07212F
:40080000012001F05FFB084B0E221A708F221A74022283F85F2008BD6D0C0000B081FF1F8A650040050D00002A65004008B501F067FC0E4A0E491378A2F5807243F020031B
:4008400082F80031137843F010031370094A012313600B7843F010030B70074902230B601360BDE8084001F04FBC00BF9A6500409965004000E100E080E200E010B5054CBA
:4008800063781BB9FFF7A4FF01236370BDE81040FFF7CCBFB081FF1F08B501F031FC0D4A0D491378A2F5807203F0DF0382F80031137803F0EF031370084A012313600B78B9
:4008C00003F0EF030B7002231360BDE8084001F01BBC00BF9A6500409965004080E100E0104B01221A60104A9378D1781079DBB2C9B208B98B420ED00C49C85C0133DBB2F1
:40090000402B28BF002393701379C0B233B1064B00221A7102E0064B1878C0B2054B01221A60704780E100E0B081FF1F0682FF1F4A64004000E100E00F4B01221A600F4A51
:400940009178D378994205D11379002B14BF402000200CE09178D37899422BBFD078D378937890782ABF4030181AC01AC0B2044B01221A60704700BF80E100E0B081FF1FF4
:4009800000E100E008B501F0BBFB0B4B1A7842F001021A701A7802F0FE021A7001F0B4FB064B01211960064B00229A70DA701A715A71044B196008BD9A64004080E100E0A8
:4009C000B081FF1F00E100E010B5134CE379A279D2B2934202D2511E994201E0991A3F2914BF002101210029F1D193420B4A05D11178490702D40A4B187010BD402B0949C2
:400A000028BF0023C8540133E37113789B0742BF054B02221A6010BDB081FF1F69650040496500404682FF1F00E200E008B501F067FB0A4B1A7842F001021A701A7802F0F2
:400A4000FE021A7001F060FB054A02231360054A00219171D171044A136008BD9965004080E100E0B081FF1F00E100E008B5FFF705FFFFF787FFBDE80840FFF7D7BFFFF74E
:400A80000BBFF8B50E4604461746FFF77BFF731E651E1C44A54204D015F8010FFFF794FFF8E73E800020F8BD70B5084B064618780C46FF28154605D021B10A460123314653
:400AC00000F050FC2C80002070BD00BFB981FF1F2DE9F84F8046894616460A245C430025ABB2A34213DAFFF727FF013558B1FFF723FF0446642001F0ADF9FFF71DFF84428B
:400B0000F5D3002704E0012001F08EF9E8E7052700243480FFF710FF30B3FFF70DFF328885B2AB189BB24B4533801CD24FF0000B1FFA8BF304EB030A9D421FFA8AFA06D922
:400B4000FFF7CEFE0BF1010B08F80A00F0E72C44A4B208EB040313F8013C172BDAD0012001F062F9D6E732803846BDE8F88F00002DE9F74F82468B4690460A267343364C1D
:400B8000DFF8E49001930025052714F8010FFF283BD000F0C9FB314BC0B21728E85429D10026019BB2B29A4219DA207800F03AF9013680B1237889F80030207800F032F989
:400BC0000746642001F046F9207800F02BF98742F3D3002703E0012001F026F9E1E70023A8F800305A465146207800F03BFCA8F800000FE014280DD00121207800F0F2FA8F
:400C0000FF2389F80030237004E040F29A2000F05BFB20700135022DB7D1114C2078FF280FD000F081FB0F4BC0B2172818700CD014280AD00121207800F0D4FAFF232370A2
:400C400003E0172000F040FB2070012001F0ECF8384603B0BDE8F08F8784FF1F8682FF1F8A84FF1F8B84FF1FB981FF1F2DE9F0431C491D4C0A4625461C4E1D481D4FDFF870
:400C80007CE0DFF87CC03378DBB213F01E091EBF90F8008049EA080880F800809B061ED597F800800B785FFA88F8DBB20EF80380237813B101238CF8003013780133DBB2AB
:400CC000137013783F2B84BF00230B700A4B92F800801B789845D6D101232B70D3E7BDE8F08300BFB381FF1FB481FF1F6A640040B081FF1F4A640040B281FF1F0682FF1FEE
:400D0000B581FF1F0E4AF0B511460E4C0E480F4D0F4E137827789F4211D0037813F004030DD117783F2F88BF13700B78DBB2EB5CDBB233700B780133DBB20B70E9E7F0BDC9
:400D4000B681FF1FB781FF1F696500404682FF1F496500402DE9F04180460C4616461F46BDF8185000F0EAFE10F0110FFAD0002E14BF04210021012D44EA010402D144F038
:400D8000010408E0022D02D144F0020403E0042D08BF44F00304FE2000F044FF4FEA182000F0D2FE5FFA88F000F0CEFE204600F0CBFE032400F0DAFE18B100F0D1FE04B19A
:400DC000013C052001F046F8002CF3D100F0CEFE0028EFD1AC4219DA00F0D0FE032811D8012E0CBF385DFF2000F0AEFE00F0BEFE0028FBD01EB900F0B3FE385501E000F05C
:400E0000AFFE0134052001F025F8E3E700F096FE10F0110FFAD0FF2000F004FFBDE8F04100F0BCBE30B5072885B026D8154B00221B5C23B344010834ADF80C20ADF80E20D8
:400E4000E4B2022503AB0095002221462620FFF781FFBDF80C303BB100950DF10E03002221462620FFF776FFBDF80E30BDF80C009842E7D140BA80B202E0002000E01846C0
:400E800005B030BD8E84FF1F30B5072885B026D8154B00221B5C23B344010834ADF80C20ADF80E20E4B2022503AB0095002221462020FFF74FFFBDF80C303BB100950DF1A8
:400EC0000E03002221462020FFF744FFBDF80E30BDF80C009842E7D140BA80B202E0002000E0184605B030BD8E84FF1F7FB5802304AE06F8013D01250021009533462A46D1
:400F00000846FFF727FF002400223346009511461046FFF71FFF9DF90F300134002BE4B203DA642CF0D1102003E0642C0CBF1020002004B070BD00002DE9F04F8DB01646AC
:400F400003AA80460F4692461D464C4B03F1080E144618685968083303C473452246F7D118689B88DFF818912060A3804FF0000B0124E1000E23043409F801BF0122009352
:400F800001F0F80153461E20E4B2FFF7E3FE212CEFD1B8F1000F1BD001224FF00409104643460021CDF80090FFF7D4FE07AC00222346CDF8009011460120FFF7CBFE0023DA
:400FC00018F80310E25C91421BD10133042BF7D1E7B14FF004083B46012200210520CDF80080FFF7B7FE07AC00222346CDF8008011460520FFF7AEFE0023F95CE25C9142BF
:4010000001D0062037E00133042BF6D1BEB1062733460122002109200097FFF79BFE07AC00222346009711460920FFF793FE0023F15CE25C9142E4D10133062BF8D10DB9CA
:40104000002018E004262B46012200210F200096FFF780FE07AC00222346009611460F20FFF778FE0023E95CE25C9142C9D10133042BF8D1E4E70DB0BDE8F08FD821000096
:401080008D84FF1F2DE9F041064686B064200C461746984600F0C8FE35782DB1304600F03BFA06AD45F8140D26782EB1204600F033FA06AE46F8100D3C7824B104A9384677
:4010C00000F07CFA04AC98F800702FB1404600F023FA06AF47F80C0D4FF0C808FFF706FF10F0FF0F07D0012000F09EFEB8F10108F4D1102008E03B46224631462846FFF76B
:401100001BFFC0B20028EED106B0BDE8F08170B5072886B08DF80F1022D8440108340125E4B200950DF10F032A4621462846FFF711FE00260DF1170300950022214601209F
:40114000FFF708FE9DF817301BB1012000F06CFE01369DF8170020B17C2EEBD9102000E0012006B070BD00007FB511F0040FADF80E008DF80D101A4B02D01C785CBB08E0B3
:4011800001241A5D012A03D10134082CF9D122E0E4B2650108350126EDB21E5532460DF10D03294600200096FFF7D4FDBDF80E2004AB52BA23F8022D02220092294604204A
:4011C0003246FFF7C7FD31462046FFF7A0FF20B1034B00221A55FF2000E0204604B070BD8E84FF1F2DE9FF4107284FF0FF03054688468DF80F302DD8184C235C27464BB32F
:40120000460108360123F6B2009300220DF10F0331460320FFF79EFD9DF80F3013B96355092018E0B8F1000F03D008212846FFF76EFF10212846FFF76AFF044600B97855A1
:401240000122022000920DF10F033146FFF782FD204600E0012004B0BDE8F0818E84FF1F07287FB5054625D8164B1B5C13B344010834E4B201260DF10F0300220096214684
:401280000220FFF767FD9DF80F3003F0100303F0FF028BB90DF10F03009621460320FFF759FD9DF80F304BB931462846FFF79AFF092004E0012002E0082000E0072004B0E5
:4012C00070BD00BF8E84FF1F1FB50121FFF74CFF0728044620D8134B1B5CEBB1410101230831009300220DF10F0301F0F8010320FFF730FD9DF80F30132B04D000212046B8
:40130000FFF770FF0AE002212046FFF700FF28B100212046FFF766FFFF2000E0204604B010BD00BF8E84FF1F07281FB512D80C4B1B5C8BB1400100F1080101230093032044
:401340000DF10F03002201F0F801FFF703FD9DF80F0002E0002000E0184605B05DF804FB8E84FF1F07282DE9FF4706460F46154698466FD83A4B1A5C002A6DD0FFF784FDB9
:40138000854208F001084FEA86041FD9B8F1000F1CD0611C0123C900009300220DF10D0301F0F8011F20FFF7D5FC9DF80D202AB1013A4FF4806303FA02F292B2954249D8BE
:4013C0003046FFF761FD8542FAD80546E4B204F101094FEAC9094FF0020A5FFA89F90DF10E03002249462420CDF800A0FFF7B2FCBDF80E0004EB0A0140BAC900ADF80E0039
:401400003B46012201F0F00180B20095FFF7A2FCBDF80E3049462B445BBAADF80E302420CDF800A00DF10E030122FFF793FC20213046FFF76CFEB8F1000F09D0012000F0C9
:40144000F3FC3046FFF70CFF0838C0B20128F5D8284602E0002000E0104604B0BDE8F0878E84FF1F2DE9F043072885B006460F4614464AD8274A105C002847D003F00105D9
:401480003046FFF7CFFC84423CD800283ED0A04228BF2046B500EDB205F101084FEAC8085FFA88F84FF0020984B20DF10E03002241462820CDF80090FFF74CFCBDF80E00AB
:4014C000E91C40BAC900ADF80E003B46002201F0F80180B20094FFF73DFCBDF80E30012223445BBAADF80E3041460DF10E032820CDF80090FFF72EFC40213046FFF707FE55
:40150000204603E0002DBBD1BFE7002005B0BDE8F08300BF8E84FF1F2DE9FF410024074606462546A046384600F031FEF31B984207D916F8013BA3F13002092A0AD8032C0A
:4015400002DD4FF0FF3035E004AA224402F8083C013401E02E2B01D03378B3B904AB1C445A1904F8088C02F8108C0DF1070111F8014F4CB112F8103C303C03EB830304EB37
:40158000430402F8104CF2E70135032DCBDD042DD7D19DF800009DF801109DF802209DF803308DF804008DF805108DF806208DF80730019804B0BDE8F0810000F0B5304F03
:4015C00000252E46BE46435D002B56D03A681A44527812F0440F47D0A3F13002D2B2092A0CD9A3F16102052A01D8573B04E0A3F14102052A04D8373BDBB202E0134600E054
:4016000000231B016A1CDBB28B5592B210F802C0DEF800406444647814F0440F23D0ACF13004E2B2092A0FD9ACF16102052A02D8ACF1570205E0ACF14102052A03D8ACF19B
:401640003702D2B200E0002213448B55052E05F102039BB20AD0C35C03353A2B0CBF00230623ADB204E01546062301E01D4600230136062E01D0002BA5D01846F0BD00BF78
:401680002881FF1F421E41F2055012F8013F1BB100EB40105840F8E770472DE9F34707460E4614460025601980B200F00CFD0DF805000135052DF6D19DF800300534A4B25B
:4016C000002B65D19DF80130C02B61D19DF80230FF2B5DD19DF80330EE2B59D107EB0616B4F5006F54D20025601980B200F0EBFC0DF805000135052DF6D19DF800109DF816
:401700000150DE299DF802909DF803A001D1AD2D01D0B8460CE0B9F1BE0FFAD1BAF1EF0FF7D135E098F80030012B04D008F11008B045F7D125E0D8F80400FFF7A3FFC3B24F
:401740008B42F3D1C0F30723AB42EFD1C0F307434B45EBD1BAEB106FE8D105340023A4B29DF80420DDB2E018AA4280B203F101090CD9D8F808A000F0A6FC4B460AF8050093
:40178000EEE79DF8040005300444A0B20446A7E702B0BDE8F0870000F8B572B6654B61221A70A3F5F06301221A8018229A7046F2A7129A801B229A71062283F880225222BC
:4017C00003F5C0731A705C4B5C4A1B785C4EDBB2137040F618025B4B19251A8041F25122002423F8022C33784FF4F07003F0010343EA440400F07CFC013D04F0030421D06D
:40180000032CF0D1504B4FF480721A8007221A704E4A002448211470917002221C705C7103F8032C4A4A4B4D1378062643F003031370404B01221A70474A137843F004031D
:40184000137000E0FEE706FB045300219A881868013400F094FC0C2CF5D180223F49404800F082FC80223F493F4800F07DFC002211463E4C04F1780554F8210005EB420301
:4018800020F0FF06C0B2024405EB4200013303300233984206D013F8037C13F802EC07F806E0F5E701311E29E6D1314A31491378314843F002031370137C304C43F0020372
:4018C0001374A2F58632633A13780E3443F0400313700B7843F010030B70294B1968016059684160184650F8081F44F80E1C416853F8100F44F80A1C59681B8903C4214975
:4019000023800B78A4F6885443F008030B701E4B01F5AA511B780C31DBB203F007001B0908704B70194B442119700FCA07C42380F8BD00BF004800400F010049A146004035
:4019400025420040224200400440004006400040A2430040E8210000E846004030220000000A0140B0220000000C01403023000003500140C2430040125100402251004038
:401980000429000022430040CF0100497658004008B500F0BDFB03680C2B00D1FEE7FEE780B51148114B0025C0B1A3F1100192C922460439161BB74204D051F8046F42F873
:4019C000046BF7E7114653F8046C8C1AA64202D041F8045BF9E701381033E5E700F09EFBFEF7D0FEFEE700BF01000000582A0000104A114B10B41A60104A114C1368114876
:401A000043F4007313600023032B98BF54F823204FEA830188BF0C4A0133302B4250F3D10A4B1A780A4B1A700A4B064A10BC1A60FFF7B2BE0004FA050CED00E014ED00E03F
:401A4000000000000080FF1F91190000BC760040C080FF1F08ED00E0184A137843F002031370937803F08F0343F010039370144B1A7802F0CF021A701A7842F030021A703A
:401A80001A7802F0F0021A701A7842F00F021A70FF2223F8072C7F2223F8052C002203F8082C084A137843F00103137092F85E3B43F0010382F85E3B704700BF004F004011
:401AC0000B4F0040A3430040074A137843F001031370137C43F00103137492F85D3B43F0010382F85D3B7047A343004008B505490B781BB9FFF7B0FF01230B70BDE8084068
:401B0000FFF7E2BFBA81FF1F08B500F0F9FA0A4A137843F02003137012F8043C43F0100302F8043C92F8FC3043F0100382F8FC30BDE8084000F0E8BA9C640040014B187856
:401B4000704700BF68640040034A13785B07FCD5024B1870704700BF686400404C640040014B1878704700BF5C640040024B1878C0F34010704700BF68650040064B1B78F8
:401B8000DBB29A0705D413F0040F14BF0120042070470020704700BF6864004008B50B4A0B4913789B0601D50B78FAE700F0A8FA084B1A7842F001021A701A7802F0FE0211
:401BC0001A70BDE8084000F09FBA00BF686500405C6400409C64004008B5074B0F221A70FFF7DCFF054B064A1B78064B1B780023137082F8003108BD8C6400406864004015
:401C0000886400406865004010B5054C23781BB9FFF7E2FF01232370BDE81040FFF774BFBB81FF1F044A0001137800F0100003F0EF030343137070471051004070B500F0EB
:401C40004BF900F0E9F908B104243AE000F01EFA0728044610D11C4D2A781B4B900703D4012000F0F7F8F7E71A78910704D51B789B0814BF0724002400F0EEF90CBB00F04B
:401C80002BF900F0C9F90028DED1012000F0AAF907280AD10C4D02210C4800F02FF90228094E05D02B789B07F5D54FF0FF3406E033789A0703D4012000F0CCF8F8E700F04D
:401CC000CBF9204670BD00BF224700409684FF1F41282DE9F04105460E46174698460AD8441F3A2C8CBF002401243F2804D8B1F5807F30D806E00124812E28BF0124B8F1C5
:401D0000100F28D13FB334BB00F086F928BB43463A463146284600F00FF9072834D1DFF8748098F800201B4B12F0020F1F4603D1012000F08FF8F4E71A78900706D51B7807
:401D40009B080CD002E01A78920719D44FF0FF3400F082F91AE0012418E0042416E00E4A314653782846127800F01CF907280BD13A78084B9107E6D4012000F06BF8F7E78D
:401D80001B789B08E4D0E1E70446E1E72046BDE8F08100BF224700409684FF1F08B500F0AFF90F4A137843F008031370137C43F0080313740B4BC8221A700B4A137843F018
:401DC00010031370137C43F01003137402F5557213789B06FCD5BDE8084000F095B900BFA043004001470040AC430040044B1A7842F001021A701A789207FCD5704700BF60
:401E000002470040024A137803F0FE03137070470247004001BE7047024A137843F0010313707047F646004038B50446084DB4F5004F05D9286800F05BF9A4F50044F6E761
:401E4000034B58686043BDE8384000F051B900BF1881FF1F024B1B7A584300F049B900BF1881FF1F08B500F04BF900BF00BF00BF00BF00BF00BF00BF00BF00BF00BF00BF19
:401E800000BF00BF00BF00BF00BF064A13889BB243F0040313801388BFF36F8FBDE8084000F032B900480040054A00F01F00126800F1100352F8230042F82310704700BF9B
:401EC00008ED00E000F01F0000F16040490100F56440C9B20170704708B500F011F9064A137843F008031370137C43F008031374BDE8084000F008B9A04300402DE9F04138
:401F00000E464B1E0A4FDFF82C80451EC418A5420BD03B78DB0703D40120FFF79BFFF8E798F8003005F8013FF1E73046BDE8F081224700402047004070B5184D2C78A6077F
:401F400027D5174CB6262670D5262670022626702D78AD071FD416462070B51AADB2AB4203D916F8015B2570F7E7B3F5807F01D0072070BD3F28FBD800F5103001EB0021ED
:401F8000490100235A5C0133D2B2202B2270F9D1EEE7042070BD092070BD00BF224700402047004070B50D4D2C78A60712D50C4CB6262670D8262670052626702D78AD07E5
:401FC0000AD42070080AC9B22070217022702370072070BD042070BD092070BD22470040204700400A4A137899070CD5094BB6211970E12119700E2119701278920704D403
:40200000187007207047042070470920704700BF224700402047004038B500F071F80C4A147874B901250B4915700B682B400AD00B6823F001030B6000BF00BF00BF55607D
:4020400002E0042400E01C4600F05EF8204638BDBC81FF1F0400084010B500F051F8094B00215A681970012A08D1074C226842F00102226000BF00BF00BF5960BDE810408B
:4020800000F042B8BC81FF1F04000840074B1B789B0708D5064BB6221A70E0221A700D221A70072070470420704700BF224700402047004008B5FFF7C1FDBDE80840FFF717
:4020C0006DBEFFF7F7BF38B5044600F019F80546FFF78CFE04F1804303F500431C78FFF791FEE4B2284600F00FF8204638BD00000230800803D000BF01380046FCD1704755
:40210000EFF3108072B6704780F31088704700BF014B1868704700BF8C81FF1F0E4B70B51E460E4C0025E41AA410A54204D056F8253098470135F8E700F074FC084B094CF3
:402140001E46E41AA4100025A54204D056F8253098470135F8E770BD302A0000302A0000302A0000382A000010B5431E0A44914204D011F8014B03F8014FF8E710BD034685
:402180000244934202D003F8011BFAE77047034613F8012B002AFBD1181A013870470000002C0000C4000000000000006910162E0000020169705F616464720069705F67C9
:4021C0006174657761790069705F7375626E65740069705F6D61630002028000000000000000000000000000004F00400C00005100401000405100403000C0510040100000
:40220000F0510040100000000140000A800A01408001800C0140800300140140000800400140000A004C014000020050014020000000000019230600002300001E20010357
:40224000000009031F0000002003060816020910002000030400000402010010200000040703002030180E0420000200000000543406050002000E0C14FFFFFF62A0F041D6
:402280000C00000018000400040404040000000100000000000040020010301000101012000000000000000000000000000000004D800020000540004D050000000700088E
:4022C00002000D053228044220D4D020710582000D0040055200A8004D1800214D0500000F0000FFF00000000000220C000000002304600005BED0FC3BFFFFFF2200F00C92
:40230000040000000000022804040404000000010000C00040011011C00100114001400100000000000000000000000000000000024F004004520040026400400265004074
:40234000010501404408014048090140150A01404D0B0140160C0140340D01400215014003170140571801404A1901404F1A0140401B01400340014002410140044201403D
:402380000343014002450140014601400447014008480140074901400A4C0140024D0140075001400151014001100A3608400960180119018A388C0F890F8A76E60100086D
:4023C000030404080610083509030A4A0C081009127613031423165C19031A091C201D031E4020082103240827012A0830043102321833043403350136603AB83E013F116C
:402400005409580459045B045F018201834884018B408D038E018F649103930494019503972C9F10A14AA324A710AF25B201B30FB510B768B808BB88BF10D608D804D9044E
:40244000DB04DD90DF01004001060514060207400B100C050D020E010F08112012041620171119081D041E491F402004214022082514260129092A402C102E022F2030805D
:40248000320A34043604375939823A103D113E205B805C205E425F046180670290409115920C9314940497C099129A039B519C049D249E089F08A080A102A324A408A580A2
:4024C000A620A70AB002C0FDC2F4C470CACBCCBBCEADD6F8D81880DA864288218A488CDA90E39204944396AC9888A088A252A4DAA852AA88B0E0B210B40FB820D804DF0103
:402500000040010405140602074008400A440B100C040D020F08100811081340171519831A041B101D321F04211022052301284029812A042B083180322033023860390CFC
:402540003B103D083E0841144240430249804B10508052045A02608463017E087F04808088028B0890609119930497809A039B559C029D259E089F08A324A40AA5A2A62849
:40258000A712B401B508C0F5C27FC477CA0FCC0DCE0ED007D20CD601D80D8173830C8508897F8D4C8F239333950499039D42A14FA310A70CAB40AD01B17CB30FBA08BB0ADE
:4025C000D804D904DF01050407440C440E481602171918201E481F102040210C2720280229212B102C042D802F403008318032203302376938613A083D113E84444445227A
:40260000468047084C024D014E084F045601572467206D106E046F5575807602C070C2F0C4F0CABFCCFFCEFFD0E0D230D840E610EA20E208E810EC10070208430A340C05C5
:402640000E0211401461161E1774180819211B0A2309292C2B132C5B2D072E242F1830403438353F3607374038203A803E013F405440580459045B045F018109831084258D
:4026800086DA8703884889148A258CE08D0C8E1C8F1194E39510961C970C98039AFC9C929E25A01FA11CA2E0A302A4E3A61CA910B31FB6FFB920BE40BF10C065C101C50EA6
:4026C000C6B0C7C0C829C9FFCAFFCBFFCEF0CF44D00CD401D604D804D904DA04DB04DF01E6C0EA40EB020140022003080550082009800A240C040E08108011041401180286
:402700001D401E0A1F01201021042308270529012A102C052D0132083510360137043820398A3D08414048104A084B805010520259085A91608064026624870888128E04B3
:402740009181920C95029742981599109A059D219E58A184A208A408A622A70AA820AB04B780C0C7C267C48CCAB5CCE2CE4FD008D20CD60FD871E810EC10000C02030310A8
:402780000508082009080C010D270E0E120C130415271B081D081E1021022203232425082608280129082A062D402F05300F316032203303341035183704390A3A023E0495
:4027C0003F444006464049FF4A0F4BFF4C404D204EF04F05500856025712580459045A045B045F01604061A86240632089019415962A98439ABC9C2A9E15A0CFA230A47362
:40280000A68CA873AA8CAC70AE8CB0C0B101B23FBF01D804D904DF010060010209820D800E2412581565192B1E201F0A2103226023102480282029012A402B083080322A7F
:40284000384239A43C104B10525053405A08688069656A207008720873408C4090129180920C954696A097C098209D299E58A010A180A20AA488A620A70AAA12B090B20116
:40288000B301B621C00BC2E9C4FECA0FCC0FCE2FD204D602E610EA2032403640CC309680A64082409680A640E6801810A640C6105004D40494089408A480B080EE01678080
:4028C00087409610A640B410B610D880E2100A105F208F209610B240C210D6200C80630866108F04A480B404C201D803E002E808B210EC04000101010C010D010E011001CD
:402900001C01000F807B7B006000000000010100010000000100100101000100000000202020202020202020282828282820202020202020202020202020202020202088CE
:4029400010101010101010101010101010101004040404040404040404101010101010104141414141410101010101010101010101010101010101010101101010101010D5
:402980004242424242420202020202020202020202020202020202020202101010102000000000000000000000000000000000000000000000000000000000000000000003
:4029C00000000000000000000000000000000000000000000000000000000000000000000000000000000000000000000000000000000000000000000000000000000000D7
:402A0000000000000000000000000000000000000000000000000000000000000000004300000000F8B500BFF8BC08BC9E46704751000000F1190000F8B500BFF8BC08BC95
:402A40009E4670472D000000582A0000C880FF1FC8000000080300000000000002000000A0210000A421000001000000B4210000C481FF1F1004000001000000BC21000020
:402A8000D481FF1F1004000001000000C7210000F681FF1F1004000001000000D1210000E481FF1F120400000000007D00FA0000400000000090D0031E2900000000000010
:402AC000000000000000000000000000000000000000000000000000000000001F2A000000000000000000000000000000000000000000000000000000000000000000008D
:402B0000000000000000000000000000000000000000000000000000000000002C81FF1F0000000000000000000000000000000000000000000000000000000000000000CA
:402B40000000000000000000000000000000000000000000000000000000000000000000000000000000000000000000000000000000000000000000000000000000000055
:402B80000000000000000000000000000000000000000000000000000000000000000000000000000000000000000000000000000000000000000000000000000000000015
:402BC00000000000000000000000000000000000000000000000000000000000000000000000000000000000000000000000000000000000000000000000000000000000D5
:402C00000000000000000000000000000000000000000000000000000000000000000000000000000000000000000000000000000000000000000000000000000000000094
:020000040003F7
:40FFC00000000000000000000000000000000000000000000100010000000000000000000000000000000000000000000000000000000000000000000000000000000000FF
:0200000480007A
:4000000000000000000000000000000000000000000000000000000000000000000000000000000000000000000000000000000000000000000000000000000000000000C0
:400040000000000000000000000000000000000000000000000000000000000000000000000000000000000000000000000000000000000000000000000000000000000080
:400080000000000000000000000000000000000000000000000000000000000000000000000000000000000000000000000000000000000000000000000000000000000040
:4000C0000000000000000000000000000000000000000000000000000000000000000000000000000000000000000000000000000000000000000000000000000000000000
:0200000490006A
:0400000000004005B7
:0200000490105A
:04000000BC90ACAF55
:0200000490303A
:0200000070028C
:0200000490402A
:4000000000000000000000000000000000000000000000000000000000000000000000000000000000000000000000000000000000000000000000000000000000000000C0
:400040000000000000000000000000000000000000000000000000000000000000000000000000000000000000000000000000000000000000000000000000000000000080
:400080000000000000000000000000000000000000000000000000000000000000000000000000000000000000000000000000000000000000000000000000000000000040
:4000C0000000000000000000000000000000000000000000000000000000000000000000000000000000000000000000000000000000000000000000000000000000000000
:0200000490501A
:0C00000000012E16106900012E25806BF7
:00000001FF