:4000000000800020110000009D1100009D11000008B5054B1A6803F53F5302331A6000F0A5F801F0C3F800BFFA46004010B5054C237833B9044B13B10448AFF30080012331
:40004000237010BD9081FF1F00000000B43C0000084B10B51BB108490848AFF300800848036803B910BD074B002BFBD0BDE81040184700BF000000009481FF1FB43C000098
:40008000C880FF1F0000000000470023014422B1013A885C0344DBB2F9E71846704701380B284FD8DFE800F0060C12181E24302A363C42480902C1F57F3101F5707147E0E3
:4000C0000902C1F57F3101F2C13144E00902C1F57F3101F2C53136E00902C1F57F3101F2C93138E00902C1F57F3101F574712FE00902C1F57F3101F2D13129E00902C1F515
:400100007F3101F2D6311EE00902C1F57F3101F2D23118E00902C1F57F3101F5757112E00902C1F57F3101F5767114E00902C1F57F3101F577710BE00902C1F57F3101F596
:40014000787108E000210B78487843EA002070470878C0B270470B784A788878000440EA02201843CB7840EA0360704710B50B4A137803F0C003802B0ED100241470214632
:400180000220FFF78CFF38B121460220FFF787FFBDE81040FFF778BF10BD00BFFA460040F8B5014606460320FFF779FF314605460420FFF774FF013500EB0525314603207B
:4001C000FFF76DFF0024274601300002854209D910F8013B5A1ED2B2FD2A1C4498BF0127E4B2F3E731460320FFF759FF114B01309D424FEA00204FEAD00014BFED084FF4B9
:400200000045A84206D200F190431B7801301C44E4B2F6E731460120FFF741FF6442E4B2844204D1002F0CBF06200020F8BD0620F8BD00BFC0FF03002DE9F04FADF51F7DD3
:40024000804602F0F1F910B1002002F0D9FA00F095FC62B6B8F1000F18BF43464FF000052E4608BFFF23DFF8ECB200934FF00A09B84B1B794BB1012B0FD1009B02AA4FF461
:40028000967108A800F042FD06E0009B02AA4FF4967108A800F0B5FC0746B8F1000F03D009F1FF395FFA89F9B9F1000F02D0002FDED101E0002F4AD1BDF80820062A40F2D8
:4002C000DB819DF82030012B40F0D681BDF82270FB1D934200F2CD81B3F5967F00F2C98108AB3B449B79172B40F0C6813B1D9BB200220DF11F012BB1C85C013B024492B2F3
:400300009BB2F8E708ABD91948790B79524243EA002392B2934240F0B28120E05B429BB209AA13551B0A0DF1250213550DF1260317221A559BF80430002B40F08E81E11D92
:4003400096230DF10A0289B208A800F047FCB8F1000F8DD0002E00F0DA81012688E79DF821309DF82440A3F131020B2A00F2FC80DFE812F02E003F00FA006400A000FA0001
:40038000A400B7006400C800E4000C00002E00F07381012F40F07081002C40F011812046FFF7FEFE002840F00E81DFF8B8E109AFBEE80F000FC7BEE80F000FC7BEE80F0043
:4003C0000FC7A2469EE80300382487E803002AE1002E00F05181002F40F04E813846FFF7DFFEB0FA80F040098DF82400BA46344619E1002E00F04081012F40F03D81032CC2
:4004000000F23A81544B1B681B68C3F30742944202D1C3F3072303E08CBF00234FF480738DF824301B0A00278DF82530FF238DF826308DF82770BA460424F4E0342B12D105
:40044000002E00F01981032F40F01681A4F140033F2B8CBF4FF4907510252A46002153A803F01BFC05E0002E00F00681022F40F2038153AB033F3A4658190DF1270103F070
:4004800001FCA4F140032F443F2BBFB204D802F07BF98022102303E04FF480724FF49073BB4240F09380BDF82550AA4200F29380012640E0002E00F0DF801FE1002E00F067
:4004C000DB807C19B4F5967F00F3D38053AB58193A4609A94FF0000AA5B203F0D3FB5446A1E0002F40F0C8801C4A05AB92E8030009AA83E8030082E803003D460126BA4679
:40050000082490E0002E00F0B780032F40F0B480A4F140023F2ABDF825A008D802F034F9BAF17F0F4FEA0A1140F2B18003E0BAF1FF0F40F2B8804FF00A0A73E00020FFF7C9
:400540002FFE10B9064A8023137000F037FB02F059F991E0AC81FF1FCC80FF1FB83C0000FA460040C0FF0300DBF80040002C54D0002E55D0ADF80E700DF1240A00278DF89C
:400580000C30CDF810A005970697CDF81CA005A903A8A047BDF81840B4F5937F02D3079A524505D0079A02B934B99DF814A03AE04FF00E0A3C4636E04FF00E0A144632E088
:4005C0004FF00C0A2EE04FF00C0A2CE0002501264FF0030A1FE03F2C0ED84F4A05EB0421126889B21068C0F30F2210F0FF0F1CBF013292B28A4245D8294653AA204602F083
:400600005DF800280CBF4FF0000A4FF00A0A02F01FF9002501262C4605E04FF0050A02E04FF0050A00240122230A271D8DF820208DF82330ADF80A408DF821A08DF822403A
:40064000BFB200230DF11F02002F3FF467AED15D013F0B449BB2BFB2F6E7012B7FF477AEE11D96230DF10A0289B208A800F018FB6DE64FF0030AD5E74FF0040AD2E74FF0E5
:40068000080ACFE7002501264FF00A0AC3E710222248FFF7FAFC024652428DF824204FF0000A0124BFE7270207EB0A014FF4807209020020FFF7E9FC3F2C0246ECD807F118
:4006C000107757447F010021C85D013102442029D2B2F9D1032CDFD1BAF1FF0FDCD1002105200192FFF7DBFC019A0021101AC4B20620FFF7D4FC201AC2B2CDE7B8F1000FB6
:4007000002D145464746B3E500252F4625E60DF51F7DBDE8F08F00BFCC80FF1F0080004038B50020FFF73CFD154C0021236800281A68084614BF06250025FFF7A6FC63681F
:400740001B78181A00F0FF00834202D123681B6813B9002002F054F80A4C237803F0C003402B00D01DB100202070FFF765FD2820FFF762FD80232370BDE8384002F042B861
:40078000CC80FF1FFA460040134B00221A70134A11790A2904D00B2906D001290CD107E0197841F0010106E0197841F001011970197841F0020119705279012A0BD11A78B6
:4007C00042F004021A701A7842F008021A701A7882F001021A70704777640040C881FF1F2DE9F84303F004F804460146304803F00BF902F039FC06460F4602F049FA804612
:4008000089463046394602F0BBF906460F4600F0DBF825A1D1E9000142464B4602F0A2FD02F010FF02F0E4FF214603F0EDF84FF07E5102F02BFF32463B4620F000451AA177
:40084000D1E9000102F08EFD02F0FCFE02F0D0FF214603F0D9F84FF07E5102F017FF20F00041284603F0BAF910B14046494601E03046394602F0E6FE0E4B84B2B3FBF4F04A
:40088000B3FBF0F000EB400080080338C0B201F0BDFE601E012180B200F0E4FCBDE8F84300F084B8AFF300800000000080845E410024F44A0090D003104C08B500254FF4E5
:4008C000E13323602571657101F092FE00F037FD01F04EFE38B1032309482A46194600F0DAFA284600E0012001F03CFE2068FFF777FFFFF749FFFFF713FFFEE7C881FF1F00
:40090000D480FF1F08B51149002001F0C3FF0721002001F0CDFF0E4B00221A700D4B72221A70202203F8012C0B49012001F0B2FF0721012001F0BCFF084B06221A704722F7
:400940001A74022203F8A02C08BD00BFA90D0000B181FF1F85650040390E00002765004008B502F0DDF80D4A0D49137843F02003137012F8013C43F0100302F8013C094A8B
:40098000012313600B7843F010030B70064902230B601360BDE8084002F0C6B8956500409764004000E100E080E200E010B5054C63781BB9FFF7A6FF01236370BDE81040E9
:4009C000FFF7CEBFB181FF1F08B502F0A9F80C4A0C49137803F0DF03137012F8013C03F0EF0302F8013C084A012313600B7803F0EF030B7002231360BDE8084002F094B854
:400A0000956500409764004080E100E00F4B01221A600F4A9378D1781079DBB2C9B208B98B420BD00B49C85C0133DBB293701379C0B233B1064B00221A7102E0064B187883
:400A4000C0B2064B01221A60704700BF80E100E0B181FF1FD081FF1F4665004000E100E00A4B01221A600A4A9178D378994202D11379002005E09178D378D3789078181A42
:400A8000C0B2044B01221A60704700BF80E100E0B181FF1F00E100E008B502F041F80B4B1A7842F001021A701A7802F0FE021A7002F03AF8064B01211960064B00229A70E6
:400AC000DA701A715A71044B196008BD9665004080E100E0B181FF1F00E100E010B5124CE379A279D2B2934202D2511E994201E0991AFF2914BF002101210029F1D1934299
:400B00000A4A05D11178490702D4094B187010BD0849C8540133E37113789B0742BF064B02221A6010BD00BFB181FF1F6764004047640040D085FF1F00E200E008B501F06C
:400B4000EFFF0A4B1A7842F001021A701A7802F0FE021A7001F0E8FF054A02231360054A00219171D171044A136008BD9764004080E100E0B181FF1F00E100E010B562B670
:400B800040F2D1740221002000F0E0FC0A4B01221A7000F06DFD30B9013CA4B21CB1012001F038FEF5E7FFF701FFFFF775FFBDE81040FFF7C3BF00BFBA81FF1F08B5FFF74E
:400BC00003FFBDE8084000F0F9BC08B5FFF764FFFFF7B4FFBDE8084000F050BEF8B50E4604461746FFF758FF731E651E1C44A54204D015F8010FFFF771FFF8E73E80002053
:400C0000F8BD2DE9F84F8046894616460A245C430025ABB2A34213DAFFF722FF013558B1FFF71EFF0446642001F00AFEFFF718FF8442F5D3002704E0012001F0EBFDE8E7F1
:400C4000052700243480FFF70BFF30B3FFF708FF328885B2AB189BB24B4533801CD24FF0000B1FFA8BF304EB030A9D421FFA8AFA06D9FFF7CBFE0BF1010B08F80A00F0E77E
:400C80002C44A4B208EB040313F8013C172BDAD0012001F0BFFDD6E732803846BDE8F88F2DE9F843002480460F461646A14603EB830314805D00B94522D2C9EB0702402A08
:400CC00094BFD2B2402294B2224608EB0901022000F0FCFC022000F0DDFC30B92DB10120013D01F097FDADB2F4E7022000F0D2FC48B1338823444C4433801FFA84F9DAE7A1
:400D00000020BDE8F8831020BDE8F8832DE9F84303EB83035C00234B17461A78804689461E46A2B1254600F0A3FC30B92DB10120013D01F06FFDADB2F5E700F099FCA8B1C3
:400D400000F09CFCFFF741FF002333700EE000F095FC58B100F08CFC40B1FFF736FF05E04CB1012001F056FD013CA4B2032000F091FC0128F4D1032000F08CFC01280BD1DB
:400D80004A46402A28BF40224146032000F0F0FC38800020BDE8F88300233B801020BDE8F88300BFBA81FF1F2DE9F0431A481B4C024625461A4E1B491B4FDFF874E0DFF82F
:400DC00074C03378DBB213F01E091EBF91F8008049EA080881F800809B061AD597F8008003785FFA88F8DBB20EF80380237813B101238CF8003013780133DBB213701378A1
:400E00000A4B92F800801B789845DAD101232B70D7E7BDE8F08300BFB481FF1FB581FF1F64650040B181FF1F46650040B381FF1FD081FF1FB681FF1F70B50C4B0C480D49BD
:400E40000D4C0E4D1A78067896420DD00A7852070AD41A781A78D2B2A25CD2B22A701A780132D2B21A70EDE770BD00BFB781FF1FB881FF1F67640040D085FF1F47640040D3
:400E8000421E41F2055012F8013F1BB100EB40105840F8E770472DE9F34707460E4614460025601980B200F04CFA0DF805000135052DF6D19DF800300534A4B2002B65D18C
:400EC0009DF80130C02B61D19DF80230FF2B5DD19DF80330EE2B59D107EB0616B4F5006F54D20025601980B200F02BFA0DF805000135052DF6D19DF800109DF80150DE29E9
:400F00009DF802909DF803A001D1AD2D01D0B8460CE0B9F1BE0FFAD1BAF1EF0FF7D135E098F80030012B04D008F11008B045F7D125E0D8F80400FFF7A3FFC3B28B42F3D11E
:400F4000C0F30723AB42EFD1C0F307434B45EBD1BAEB106FE8D105340023A4B29DF80420DDB2E018AA4280B203F101090CD9D8F808A000F0E6F94B460AF80500EEE79DF885
:400F8000040005300444A0B20446A7E702B0BDE8F0870000F8B572B6694B61221A700122A3F5F0631A80674A18231F2113705180137146F2A712644B644E1A801B229A7043
:400FC000062283F87822522203F5BC731A70604B604A1B781925DBB2137040F618025E4B00241A8041F2512223F8022C33784FF4F07003F0010343EA440401F089FD013D44
:4010000004F0030421D0032CF0D1544B4FF480721A8007221A70524A002448211470917002221C705C7103F8032C4E4A4E4D1378062643F007031370414B01221A704B4AE6
:40104000137843F00403137000E0FEE706FB045300219A881868013402F01FFE092CF5D180224349434802F00DFE00221146424C04F1640554F8210005EB420320F0FF0637
:40108000C0B2024405EB4200013303300233834206D013F8037C13F802EC07F806E0F5E701311929E6D1354A35491378354843F002031370137C344C43F002031374A2F57B
:4010C0008632633A137843F0400313700B7843F010030B702D4B1D46196801605968416055F8080F696803C418462989C83CA4F8C81050F8121F44F81E1C416853F81A0F24
:4011000044F81A1C59681B8903C4214923800B78A4F6885443F008030B701E4B01F5AA511B780C31DBB203F007001B0908704B70194B442119700FCA07C42380F8BD00BF3D
:40114000004800408240004088400040254200400F010049A1460040224200400440004006400040A2430040DC3C0000E8460040123D000000160140943D00000350014052
:40118000C2430040C2510040F05100402E42000022430040CF0100497658004008B502F045FD03680C2B00D1FEE7FEE780B51148114B0025C0B1A3F1100192C92246043987
:4011C000161BB74204D051F8046F42F8046BF7E7114653F8046C8C1AA64202D041F8045BF9E701381033E5E702F026FDFFF764FBFEE700BF0100000030440000104A114B43
:4012000010B41A60104A114C1368114843F4007313600023032B98BF54F823204FEA830188BF0C4A0133302B4250F3D10A4B1A780A4B1A700A4B064A10BC1A60FFF7AABE43
:401240000004FA050CED00E014ED00E0000000000080FF1F9D110000BC760040C080FF1F08ED00E0F0B52C4D2C4E2F78348807F00707A4B2A0424DD0294B1A78D2B26FB9B9
:4012800034B158B92B7843F040032B703080F0BD30802B7803F0BF032B70F0BD02F0020202F0FF060AB31F4F1F4A00254FF0020E157087F800E03D7117F8085C05F07F0564
:4012C00007F8085C144D2D782D0700D568B9174D2C8007241470147814F00104FBD11A7802F0FD021A70104A14701B780C4A9C070BD50E4B0029188014BF03220122013B73
:401300001A701A78D207FCD4F0BD044B1880137833431370F0BD00BF8640004084400040A243004010400040014000400240004008B501F079F9BDE8084001F025BAFFF7CF
:40134000F7BF38B5044601F0EBFB054601F044FA04F1804303F500431C7801F049FAE4B2284601F0E1FB204638BD0000F8B501F0D7FB404A02251378012743F001031370BA
:40138000137C3D4C43F0010313743C4B02F5E3521F700B3203F8945C1378064603F07F031370002001F04CFA2378354A03F0F90323701378384603F0DF03137023783B43B1
:4013C000237001F03DFA282001F03AFA2D4B28461A7802F07F021A701A7802F0BF021A7023782B43237001F02BFA2378264A43F004032370002313703046537001F094FB98
:401400000721172001F054FA2049172001F042FA0721182001F04CFA1D49182001F03AFA0721152001F044FA1A49152001F032FA2846072101F03CFA1749284601F02AFA06
:401440000721032001F034FA1449032001F022FA0721042001F02CFA1149042001F01AFA07210C2001F024FABDE8F8400D490C2001F010BAA5430040944300409D60004096
:4014800012600040F851004084600040DF1D0000091C0000DD1D0000491D0000751D0000A51D0000E31D000008B51C4B1C4A1870002313701B4A13701B4A13701B4A137088
:4014C0001B4A13701B4A13701B4A13701B4B4FF400021A604FF080721A604FF400121A6004221A6008221A6010221A60144B19B91A7802F0FE0202E01A7842F001021A70BD
:40150000104B03221A70802203F8202C012001F0FFFA0D4B04221A7008BD00BFE189FF1FE489FF1FFC89FF1FFF89FF1FF489FF1FFE89FF1F018AFF1FE089FF1F00E100E094
:4015400009600040286000401260004070B5074C054623780E461BB9FFF708FF0123237031462846BDE87040FFF79EBFBB81FF1F0A4A002313700A4A13700A4A13700A4A2B
:4015800013700A4A13700A4A13700A4A13700A4B03221A70802203F8202C7047E489FF1FFC89FF1FFF89FF1FF489FF1FFE89FF1F018AFF1FE089FF1F2860004008B501F0C5
:4015C000AFFA214A137803F07F031370937A03F0FB039372A2F5E352033A137803F0FE031370137C03F0FE031374184B1A7842F080021A701A7842F040021A7001F094FAFA
:40160000134B4FF400021A604FF080721A604FF400121A6004221A6008221A6010221A6000F0FAFF0B4B4FF480521A600A4A002313700A4A13700A4A13700A4A13700A4A82
:4016400013700A4A137008BD08600040F851004080E100E080E200E0FC89FF1FFF89FF1FF489FF1FFE89FF1F018AFF1FBB81FF1F014B1878704700BFFF89FF1F044B1A7832
:4016800002F0FF001AB118780022C0B21A707047FC89FF1F024A0C2303FB002040787047028AFF1F431E072B0CD8074A064B00010344805C5B7800F00F0043EA002002381E
:4016C00080B2704700207047FC5F0040431E072BF0B531D8194B0C2505FB0035EC88184FA4B2C4F50074A2424FF00C0404FB003488BFEA88E67884BFC2F5007292B2104C9D
:4017000046EA12260501EE552C44D6B2667041B90C2202FB0030002343704379DBB2A370F0BD0E46074F2F44751AADB2AA42EFD916F8015B3D72F7E7F0BD00BF028AFF1F2A
:40174000FC5F004070600040431E072B0AD8064A0C2303FB002300225A705A79034BD2B200011A54704700BF028AFF1FFE5F004038B505461446D1B1431E072B19D8FFF75E
:4017800091FFA04203D22846FFF78CFF04460A4609482B011844531A9BB29C4203D9037A02F8013BF7E72846FFF7CEFF02E00C4600E00024204638BD7060004070B5094C2D
:4017C000094DFF2100230C26E25C06FB0252927A824204BF194602230133DBB2012BF3D0084670BDD489FF1F028AFF1F10B51E4C2079FFF7E3FF237813F0800F63780DD09F
:40180000212B2ED1BDE81040184B07221A80184AC0EBC0001044586000F04CBADBB2202B0ED0222B1DD1A378124A22F81030124A135C43F002031354BDE8104000F01AB98F
:401840000A4A07230A491380C0EBC0030B445360094A135C43F001031354BDE8104000F04FBA002010BD00BF00600040E889FF1F0481FF1FDC89FF1FD089FF1F10B5164AA9
:4018800000231370154A164C137053702078C0B2431E072B01D8FFF757FF6078C0B2431E072B01D8FFF750FF0E4A13788BB123787BB10D4B197861B11278082A09D8084AEE
:4018C0001278082A05D81878082894BF0020012010BD012010BD00BFBC81FF1FD089FF1FD689FF1FD289FF1FD489FF1FC37890F9020003F0030300280FDA032B15BF0C4818
:401900000C4802F00103C2F3800319BFC15442F00102C15442F0040207E0032B1FBF0648C2F34003C15442F002021046704700BFD289FF1FD489FF1FD689FF1F30B51A4AAC
:401940001A491B4D0878138803449BB21380194A00231488D8B2A4B27CB1082B0CD050680078C0B2E85450680133013050601088013880B21080ECE718460B780E4C082B9D
:401980000E4A00D040B10E4D2B7883F080032B700F232370022301E0022323701370094B1870087030BD00BFE289FF1FE089FF1F00600040E889FF1FFD89FF1FE489FF1F0B
:4019C000708AFF1F008AFF1F074B02221A70074B80221A70064B0F221A70064A00231370054A012013707047E489FF1F708AFF1FFD89FF1FE089FF1F008AFF1F30B5164B41
:401A000016491B780A8803F00F03023BDBB21A4492B20A80124C134A0020118889B279B173B15568215C013BC9B229705168DBB20131516011880130013989B21180ECE7D4
:401A4000094A1370094A137883F080031370084B0B221A7030BD00BF29600040E289FF1F00600040E889FF1F008AFF1F708AFF1FFD89FF1F064A06231370064A01201370AE
:401A8000054B80221A70054B00221A70704700BFE489FF1FFD89FF1F708AFF1F008AFF1F054B9A683AB19A68044910709A680988518000229A607047E889FF1FE289FF1FEE
:401AC00008B5124B1A78D2B21A701B78DBB21A0602D50F4A137008BD0220FFF7E1FF0D4B1B7803F06003202B05D0402B06D043B900F0E8FB04E001F01BF801E000F01CFD39
:401B000010B9034B03221A7008BD00BF28600040FD89FF1F0060004008B5084A084B0120197813880B449BB21380064B00221A70FFF7B6FF044B03221A7008BDE289FF1F7D
:401B4000E089FF1FE489FF1FFD89FF1F08B50C4B1B78DBB2042B07D0062B09D0022B0DD1BDE80840FFF7D8BFBDE80840FFF746BF0320FFF795FF034B03221A7008BD00BFD0
:401B8000E489FF1FFD89FF1F08B5054B002201201A70FFF785FF034B03221A7008BD00BFE489FF1FFD89FF1F08B50A4B1A7832B11A78094942F080020A7000221A70074B5B
:401BC000002201201A70FFF76BFF054B03221A7008BD00BFFE89FF1F08600040E489FF1FFD89FF1F074B1B78DBB2042B05D0062B05D0022B05D1FFF7A1BEFFF7C5BFFFF775
:401C0000D3BF7047E489FF1F38B51D4C2378DBB2DD0634D518060AD503F00F03012B2ED1FFF74EFF174B1B78190609D538BD5A0602D5FFF7D7FF03E09D0620D5FFF786FF16
:401C400023781B061BD4104B1A78104B1B7813430F4A13701278934211D10A4A0849154613782078DBB2000605D41378DBB20B700B7803F00F0328788342F1D138BD38BDB0
:401C800028600040FD89FF1F708AFF1F008AFF1F29600040054A00231380054A916819B191680B7092685380704700BFE289FF1FE889FF1F0E4808B503889BB213B9FFF79C
:401CC00083FE13E00B4B02221A700B4B00221A70FFF7E0FF094AD1799379028843EA012392B2934238BF0380FFF728FE012008BDE889FF1FE489FF1F708AFF1F00600040AA
:401D000008B50C4B04221A700B4B80221A70FFF7C1FF0A4A0120D179937943EA012308490A8892B2934238BF0B80064B0B221A7008BD00BFE489FF1F708AFF1F006000403E
:401D4000E889FF1FFD89FF1F084B01221A700F3B9B7C074B1A7B02F00302012A1EBFDA7B82F08002DA7301225A7370470B600040028AFF1F094B02221A700F3B93F822302E
:401D8000074B1A7E02F00302012A1EBFDA7E82F08002DA7601225A76704700BF0B600040028AFF1F0B4B04221A700F3B93F83230094B93F8242002F00302012A1EBF93F8F6
:401DC000272082F0800283F82720012283F82520704700BF0B600040028AFF1F7047FFF7C7BB00F019BC000070B50446184B88B003AA03F11006154618685968083303C5E4
:401E0000B3422A46F7D11B782B70FCB12223237001AD03232846637000F054FD002220461146AB5C08AC04EB131414F8144C03F00F03847008AC234413F8143C0132082A7C
:401E4000C1700371417100F10400EAD108B070BD524200002DE9F0411A4D01222E460C2080274FF0080E184B00FB025C14012344187016499CF805802144B8F1000F07D049
:401E80009CF8044024064CBF887081F802E000E08F7000FB0261CC880132E4B29C71CC88092AC4F30724DC71CC88E4B21C71C988C1F307215971D6D1054BFF221A70BDE8F0
:401EC000F08100BF028AFF1F70600040FC5F00400A600040064B074A1B7802EBC30253681A7C824286BF03EBC003586900207047E189FF1FA04200002DE9F84F424B1A7843
:401F0000002A7ED01878414D0138C0B2FFF7E2FFA8463F4AC3681478007ADFF800C1E4B203EBC0000C2600274FF0010E834268D01A78A24263D11CF80420597891425ED1AC
:401F40009A7893F8039002F07F0206FB02FA05EB0A01CF7093F802B009F0030981F804B093F803B005F80AB0B3F804A0A1F808A093F902A0BAF1000F0BDAB9F1010F0CBF41
:401F80004FF007094FF00D0981F8059081F801E009E0B9F1010F0CBF4FF005094FF0090981F805904F704FEA02191A4906FB0282494481F802E0B2F808A0CAF3072A81F85F
:401FC00000A0B2F808A05FFA8AFA81F801A0B2F806A011495FFA8AFA494481F806A0B2F80690C9F3072981F80790B2F806905FFA89F981F80490D288C2F307224A71083333
:4020000094E7BDE8F88F00BFFF89FF1F028AFF1FF489FF1FFC5F0040706000406E8AFF1F08B5064B18780138C0B2FFF753FF20B143681B7900EBC300406908BDFF89FF1F2B
:402040002DE9F74F00210B46544E0C2707FB01F501317219092973554FF000049370DFF83C91D3701381937253705371EED128B14B4A4C4B14701C7054705C704A4B1A7836
:40208000002A00F08880187801270138C0B2FFF721FF80464368057ADB79ED0013F0400F424B4FF0000C1A784FF00C0A14BF42F0010202F0FE021A700AFB0796D8F80C4001
:4020C000FBB204EB050B5C453AD0A07800F07F01B94233D13189B4F804E089B2714538BFA6F808E021782E4A94F801E0515C8E4524D13071E178317094F90200E1780028AC
:4021000001F0030106DA01290CBF07210D217171012105E001290CBF05210921717100217170A17901F0F701022907D16246194620460193FFF7DAFB8446019B0834C2E750
:402140000137092FB8D1D8F80C200A35931C15440C210833AB4209D013F8082C13F80A0C02F07F0201FB02929072F2E7FFF758FF0F4B0122186000230C2000FB0291CB804D
:40218000098901320B44092A9BB2F6D103B0BDE8F04FFFF75FBE03B0BDE8F08F028AFF1F6E8AFF1FE589FF1FFF89FF1F018AFF1FF889FF1F114B1B7903F07F035A1E072AFB
:4021C00019D80F490C2202FB031291781B0141F0010191700021D170517841F002015170127912F0800F074A1A4414BF8D2389239370FFF73FBC0020704700BF00600040B9
:40220000028AFF1FFC5F004030B4194B1A7902F07F02531E072B27D8164B0C2404FB02339978154D01F0FE0199700021D97029461201505D114400F07F0050555A7802F072
:40224000FD025A701A795B78120605D5012B01D18C7006E00D2303E0012B0CBF082309238B7030BCFFF706BC002030BC704700BF00600040028AFF1FFC5F004010B50D4BD9
:402280000D4C21791878C9B20138C0B2FFF722FE43681B798B4201D2022909D8074A0848535CDBB24354A3780120DBB2535410BD002010BDFF89FF1F006000406E8AFF1F7A
:4022C000E589FF1F38B58A4A8A4C13780021DBB221801806517840F18D800A2900F20681DFE811F05D00040104010401040104010B0004017E0004018200D3787C49012B81
:4023000009D17D4B1A787D4B03EBC2035B685B686360122310E0CB78022B12D18878FFF7D9FD002800F0E280436863606368DA7863689B7843EA02232380BDE83840FFF776
:40234000B9BCCB78032B26D16D4B00228878D5B2854209D3664A91786A4AEE2908BF1346634A917881B106E0187801320028F1D018780344EAE764499278097C914203D1D3
:402380006248FFF731FD614B1A78002A00F0AE801A78228018E0BDE8384000F0C9BB13F0030313D0022B40F0A1802380504B0C211B7903F07F02564B01FB02339A78554BAB
:4023C000D2B21A7000225A706360B6E702222280514A11784F4AC9B2117053706260ACE7012323804D4BEFE70123238013794C4A1344E9E701390A2978D8DFE801F0377784
:402400004F77067777770A7720009378454ADBB25AE0937803F0FF0153B9404B1A78914260D01970404B01201870FFF709FE59E0481EC0B2FFF74EFD0028EED156E0FFF720
:402440001DFF002852D02A4A384913791279DBB2D2B20A70364A3249D25CCB5C9A4241D0314B01221A70FFF747FD3BE003F00303012B2BD009D3022B38D11D4B9B78002BCC
:4024800034D1BDE83840FFF7BFBE194B9B78012B2CD1214A137803F0FD0315E003F00303012B13D008D3022B20D1114B9B78EBB9BDE83840FFF77EBE0D4B9B78012B15D129
:4024C000154A137843F0020313700BE0084B1A79012A0BD898781B791649DBB2CA5C22EA0002CA54BDE83840FFF7C4BA002038BD00600040E889FF1FE189FF1FA042000037
:40250000044300008C420000E6430000758AFF1F028AFF1FBD81FF1F018AFF1FFF89FF1F6E8AFF1FFE89FF1FFC89FF1FF489FF1FE589FF1F718AFF1F074B1A78120609D573
:402540005B78012B06D1054B054A5A6012781A80FFF7B0BB0020704700600040E889FF1F64420000014B1870704700BF74650040014B1878704700BF67650040024A137863
:4025800043F080031370704776640040034A04491378DB0601D50B78FAE77047666400405664004010B5104A104C137803F0C00343F008031370237843F0010323701423FD
:4025C00002F8703C02F8303C002302F8503C137400F0A6FA237843F01003237000F0A4FABDE81040FFF7D2BF766400409664004010B5054C23781BB9FFF7D4FF0123237038
:40260000BDE81040FFF7BABFBF81FF1F014B1870704700BF46640040024B1878C0F38010704700BF8F45004070B500F083F900F021FA08B104243AE000F056FA07280446AA
:4026400010D11C4D2A781B4B900703D4012000F0F7F8F7E71A78910704D51B789B0814BF0724002400F026FA0CBB00F063F900F001FA0028DED1012000F0E2F907280AD186
:402680000C4D02210C4800F067F90228094E05D02B789B07F5D54FF0FF3406E033789A0703D4012000F0CCF8F8E700F003FA204670BD00BF22470040738AFF1F41282DE9E4
:4026C000F04105460E46174698460AD8441F3A2C8CBF002401243F2804D8B1F5807F30D806E00124812E28BF0124B8F1100F28D13FB334BB00F0BEF928BB43463A4631462E
:40270000284600F047F9072834D1DFF8748098F800201B4B12F0020F1F4603D1012000F08FF8F4E71A78900706D51B789B080CD002E01A78920719D44FF0FF3400F0BAF902
:402740001AE0012418E0042416E00E4A314653782846127800F054F907280BD13A78084B9107E6D4012000F06BF8F7E71B789B08E4D0E1E70446E1E72046BDE8F08100BFA2
:4027800022470040738AFF1F08B500F0C9F90F4A137843F008031370137C43F0080313740B4BC8221A700B4A137843F010031370137C43F01003137402F5557213789B0634
:4027C000FCD5BDE8084000F0AFB900BFA043004001470040AC430040044B1A7842F001021A701A789207FCD5704700BF02470040024A137803F0FE03137070470247004001
:4028000001BE7047024A137843F0010313707047F646004038B50446084DB4F5004F05D9286800F075F9A4F50044F6E7034B58686043BDE8384000F06BB900BF1C81FF1FF8
:40284000024B1B7A584300F063B900BF1C81FF1F08B500F065F900BF00BF00BF00BF00BF00BF00BF00BF00BF00BF00BF00BF00BF00BF00BF00BF064A13889BB243F00403E8
:4028800013801388BFF36F8FBDE8084000F04CB900480040054A00F01F00126800F1100352F8230042F82310704700BF08ED00E000F01F0000F16040490100F56440C9B2D1
:4028C00001707047134B144A1B78DBB20360127843EA0223114A0360127843EA0243104A0360127843EA026303600E4B0E4A1B78DBB24360127843EA02230C4A43601278CC
:4029000043EA02430A4A4360127843EA02634360704700BF0301004904010049EC460040020100490101004900010049050100490601004908B500F0F3F8064A137843F0C6
:4029400008031370137C43F008031374BDE8084000F0EAB8A04300402DE9F0410E464B1E0A4FDFF82C80451EC418A5420BD03B78DB0703D40120FFF763FFF8E798F800306E
:4029800005F8013FF1E73046BDE8F081224700402047004070B5184D2C78A60727D5174CB6262670D5262670022626702D78AD071FD416462070B51AADB2AB4203D916F8EE
:4029C000015B2570F7E7B3F5807F01D0072070BD3F28FBD800F5103001EB0021490100235A5C0133D2B2202B2270F9D1EEE7042070BD092070BD00BF2247004020470040B3
:402A000070B50D4D2C78A60712D50C4CB6262670D8262670052626702D78AD070AD42070080AC9B22070217022702370072070BD042070BD092070BD2247004020470040DB
:402A40000A4A137899070CD5094BB6211970E12119700E2119701278920704D4187007207047042070470920704700BF224700402047004038B500F053F80C4A147874B99D
:402A800001250B4915700B682B400AD00B6823F001030B6000BF00BF00BF556002E0042400E01C4600F040F8204638BDC081FF1F0400084010B500F033F8094B00215A68E7
:402AC0001970012A08D1074C226842F00102226000BF00BF00BF5960BDE8104000F024B8C081FF1F04000840074B1B789B0708D5064BB6221A70E0221A700D221A700720D0
:402B000070470420704700BF22470040204700400230800803D000BF01380046FCD17047EFF3108072B6704780F31088704700BF0F4A137803F00303012B0AD0022B0DD1E5
:402B400013790C2103F07F020A4B01FB02339B7A00E01379DBB2022B08D800E00023064A1268D35C022B01D1FEF740BE0020704700600040028AFF1FF889FF1F00000000D9
:402B8000C1F30A522DE9F843A2F2FF36132E0B4604460D468846074621DC002E4EDB3A4A864642FA06F901EA090202431CD034A3D3E9002300F0FAF80022002300F038FD99
:402BC00048B1002D04DD4FF4801343FA06F6B04428EA0905002738462946BDE8F883332E06DDB6F5806F3CD020461946BDE8F883A2F213424FF0FF3929FA02F910EA090F18
:402C0000F2D01FA3D3E9002300F0D0F80022002300F00EFD0028DED0002D09DD142E2BD00123C6F1340603FA06F6371928BF9844454627EA090738462946CEE710A3D3E935
:402C4000002300F0B3F80022002300F0F1FC0028C1D0002D0CDB55EA040707D000270B4DB9E702460B4600F0A1F8BFE73D46B2E700274FF00045AEE705F10108D8E700BFC6
:402C80009C7500883CE4377EFFFF0F000000F03FC1F30A522DE9F843A2F2FF36132E0B4604460D46884607461CDC002E3FDB3A4A864642FA06F901EA0902024317D034A332
:402CC000D3E9002300F072F80022002300F0B0FC20B1002D40DB28EA0905002738462946BDE8F883332E06DDB6F5806F2FD020461946BDE8F883A2F213424FF0FF3929FA08
:402D000002F910EA090FF2D021A3D3E9002300F04DF80022002300F08BFC0028DED0002D20DB454627EA090738462946D8E718A3D3E9002300F03AF80022002300F078FC75
:402D40000028CBD0002D18DB00273D46C6E702460B4600F02BF8CCE74FF4801343FA06F6B044B8E7142E10D00123C6F1340603FA06F6371928BF9844D3E725F00042074B72
:402D8000224318BF1D460027A8E705F10108C8E79C7500883CE4377EFFFF0F000000F0BF81F0004102E000BF83F0004330B54FEA41044FEA430594EA050F08BF90EA020F15
:402DC0001FBF54EA000C55EA020C7FEA645C7FEA655C00F0E2804FEA5454D4EB5555B8BF6D420CDD2C4480EA020281EA030382EA000083EA010180EA020281EA0303362DF4
:402E000088BF30BD11F0004F4FEA01314FF4801C4CEA113102D0404261EB410113F0004F4FEA03334CEA133302D0524263EB430394EA050F00F0A780A4F10104D5F1200EFC
:402E40000DDB02FA0EFC22FA05F2801841F1000103FA0EF2801843FA05F359410EE0A5F120050EF1200E012A03FA0EFC28BF4CF0020C43FA05F3C01851EBE37101F0004516
:402E800007D54FF0000EDCF1000C7EEB00006EEB0101B1F5801F1BD3B1F5001F0CD349085FEA30004FEA3C0C04F101044FEA445212F5800F80F09A80BCF1004F08BF5FEA35
:402EC000500C50F1000041EB045141EA050130BD5FEA4C0C404141EB010111F4801FA4F10104E9D191F0000F04BF01460020B1FA81F308BF2033A3F10B03B3F120020CDA0D
:402F00000C3208DD02F1140CC2F10C0201FA0CF021FA02F10CE002F11402D8BFC2F1200C01FA02F120FA0CFCDCBF41EA0C019040E41AA2BF01EB0451294330BD6FEA04041D
:402F40001F3C1CDA0C340EDC04F11404C4F1200220FA04F001FA02F340EA030021FA04F345EA030130BDC4F10C04C4F1200220FA02F001FA04F340EA0300294630BD21FA57
:402F800004F0294630BD94F0000F83F4801306BF81F480110134013D4EE77FEA645C18BF7FEA655C29D094EA050F08BF90EA020F05D054EA000C04BF1946104630BD91EAAB
:402FC000030F1EBF0021002030BD5FEA545C05D14000494128BF41F0004130BD14F580043CBF01F5801130BD01F0004545F0FE4141F470014FF0000030BD7FEA645C1ABF5B
:40300000194610467FEA655C1CBF0B46024650EA013406BF52EA033591EA030F41F4002130BD00BF90F0000F04BF0021704730B54FF4806404F132044FF000054FF0000121
:4030400050E700BF90F0000F04BF0021704730B54FF4806404F1320410F0004548BF40424FF000013EE700BF42004FEAE2014FEA31014FEA02701FBF12F07F4393F07F4FA0
:4030800081F06051704792F0000F14BF93F07F4F704730B54FF4607401F0004521F0004120E700BF50EA010208BF704730B54FF000050AE050EA010208BF704730B511F012
:4030C000004502D5404261EB41014FF4806404F132045FEA915C3FF4DCAE4FF003025FEADC0C18BF03325FEADC0C18BF033202EBDC02C2F1200300FA03FC20FA02F001FA00
:4031000003FE40EA0E0021FA02F11444C1E600BF70B54FF0FF0C4CF4E06C1CEA11541DBF1CEA135594EA0C0F95EA0C0F00F0DEF82C4481EA030621EA4C5123EA4C5350EA6F
:40314000013518BF52EA033541F4801143F4801338D0A0FB02CE4FF00005E1FB02E506F00042E0FB03E54FF00006E1FB03569CF0000F18BF4EF0010EA4F1FF04B6F5007FCE
:4031800064F5407404D25FEA4E0E6D4146EB060642EAC62141EA55514FEAC52040EA5E504FEACE2EB4F1FD0C88BFBCF5E06F1ED8BEF1004F08BF5FEA500E50F1000041EBC9
:4031C000045170BD06F0004646EA010140EA020081EA0301B4EB5C04C2BFD4EB0C0541EA045170BD41F480114FF0000E013C00F3AB8014F1360FDEBF002001F0004170BD73
:40320000C4F10004203C35DA0C341BDC04F11404C4F1200500FA05F320FA04F001FA05F240EA020001F0004221F0004110EBD37021FA04F642EB06015EEA430E08BF20EAB8
:40324000D37070BDC4F10C04C4F1200500FA04F320FA05F001FA04F240EA020001F0004110EBD37041F100015EEA430E08BF20EAD37070BDC4F1200500FA05F24EEA020E92
:4032800020FA04F301FA05F243EA020321FA04F001F0004121FA04F220EA020000EBD3705EEA430E08BF20EAD37070BD94F0000F0FD101F00046400041EB010111F4801FB7
:4032C00008BF013CF7D041EA060195F0000F18BF704703F00046520043EB030313F4801F08BF013DF7D043EA0603704794EA0C0F0CEA135518BF95EA0C0F0CD050EA4106CC
:4033000018BF52EA4306D1D181EA030101F000414FF0000070BD50EA410606BF1046194652EA430619D094EA0C0F02D150EA013613D195EA0C0F05D152EA03361CBF104642
:4033400019460AD181EA030101F0004141F0FE4141F470014FF0000070BD41F0FE4141F4780170BD70B54FF0FF0C4CF4E06C1CEA11541DBF1CEA135594EA0C0F95EA0C0FC2
:4033800000F0A7F8A4EB050481EA030E52EA03354FEA013100F088804FEA03334FF0805545EA131343EA12634FEA022245EA111545EA10654FEA00260EF000419D4208BF7F
:4033C000964244F1FD0404F5407402D25B084FEA3202B61A65EB03055B084FEA32024FF480104FF4002CB6EB020E75EB030E22BFB61A754640EA0C005B084FEA3202B6EBFF
:40340000020E75EB030E22BFB61A754640EA5C005B084FEA3202B6EB020E75EB030E22BFB61A754640EA9C005B084FEA3202B6EB020E75EB030E22BFB61A754640EADC0091
:4034400055EA060E18D04FEA051545EA16754FEA06164FEAC30343EA52734FEAC2025FEA1C1CC0D111F4801F0BD141EA00014FF000004FF0004CB6E711F4801F04BF0143F1
:403480000020B4F1FD0C88BFBCF5E06F3FF6AFAEB5EB030C04BFB6EB020C5FEA500C50F1000041EB045170BD0EF0004E4EEA113114EB5C04C2BFD4EB0C0541EA045170BD8D
:4034C00041F480114FF0000E013C90E645EA060E8DE60CEA135594EA0C0F08BF95EA0C0F3FF43BAF94EA0C0F0AD150EA01347FF434AF95EA0C0F7FF425AF104619462CE7F9
:4035000095EA0C0F06D152EA03353FF4FDAE1046194622E750EA410618BF52EA43067FF4C5AE50EA41047FF40DAF52EA43057FF4EBAE12E74FF0FF3C06E000BF4FF0010CA5
:4035400002E000BF4FF0010C4DF804CD4FEA410C7FEA6C5C4FEA430C18BF7FEA6C5C1BD001B050EA410C0CBF52EA430C91EA030F02BF90EA020F0020704710F1000F91EA4D
:40358000030F58BF994208BF90422CBFD8176FEAE37040F0010070474FEA410C7FEA6C5C02D150EA013C07D14FEA430C7FEA6C5CD6D152EA033CD3D05DF8040B704700BFCF
:4035C0008446104662468C461946634600E000BF01B5FFF7B7FF002848BF10F1000F01BD4DF808EDFFF7F4FF0CBF012000205DF808FB00BF4DF808EDFFF7EAFF34BF0120B8
:4036000000205DF808FB00BF4DF808EDFFF7E0FF94BF012000205DF808FB00BF4DF808EDFFF7CEFF94BF012000205DF808FB00BF4DF808EDFFF7C4FF34BF012000205DF875
:4036400008FB00BF4A0011D212F5001211D20DD56FF47873B3EB62520ED44FEAC12343F0004343EA505323FA02F070474FF00000704750EA013002D14FF0FF3070474FF03A
:403680000000704780F0004002E000BF81F0004142001FBF5FEA410392EA030F7FEA226C7FEA236C6AD04FEA1262D2EB1363C1BFD218414048404140B8BF5B42192B88BF79
:4036C000704710F0004F40F4000020F07F4018BF404211F0004F41F4000121F07F4118BF494292EA030F3FD0A2F1010241FA03FC10EB0C00C3F1200301FA03F100F0004342
:4037000002D5494260EB4000B0F5000F13D3B0F1807F06D340084FEA310102F10102FE2A51D2B1F1004F40EBC25008BF20F0010040EA03007047490040EB000010F4000F24
:40374000A2F10102EDD1B0FA80FCACF1080CB2EB0C0200FA0CF0AABF00EBC25052421843BCBFD0401843704792F0000F81F4000106BF80F400000132013BB5E74FEA4103C3
:403780007FEA226C18BF7FEA236C21D092EA030F04D092F0000F08BF0846704790EA010F1CBF0020704712F07F4F04D1400028BF40F00040704712F100723CBF00F50000FF
:4037C000704700F0004343F0FE4040F4000070477FEA226216BF08467FEA23630146420206BF5FEA412390EA010F40F4800070474FF0000304E000BF10F0004348BF4042E1
:403800005FEA000C08BF704743F0964301464FF000001CE050EA010208BF70474FF000030AE000BF50EA010208BF704711F0004302D5404261EB41015FEA010C02BF8446BA
:403840000146002043F0B64308BFA3F18053A3F50003BCFA8CF2083AA3EBC25310DB01FA02FC634400FA02FCC2F12002BCF1004F20FA02F243EB020008BF20F001007047B2
:4038800002F1200201FA02FCC2F1200250EA4C0021FA02F243EB020008BF20EADC7070474FF0FF0C1CEAD0521EBF1CEAD15392EA0C0F93EA0C0F6FD01A4480EA010C40028E
:4038C00018BF5FEA41211ED04FF0006343EA501043EA5111A0FB01310CF00040B1F5000F3EBF490041EAD3715B0040EA010062F17F02FD2A1DD8B3F1004F40EBC25008BFBA
:4039000020F00100704790F0000F0CF0004C08BF49024CEA502040EA51207F3AC2BFD2F1FF0340EAC250704740F400004FF00003013A5DDC12F1190FDCBF00F0004070470C
:40394000C2F10002410021FA02F1C2F1200200FA02FC5FEA310040F1000053EA4C0308BF20EADC70704792F0000F00F0004C02BF400010F4000F013AF9D040EA0C0093F0CD
:40398000000F01F0004C02BF490011F4000F013BF9D041EA0C018FE70CEAD15392EA0C0F18BF93EA0C0F0AD030F0004C18BF31F0004CD8D180EA010000F00040704790F0C5
:4039C000000F17BF90F0004F084691F0000F91F0004F14D092EA0C0F01D142020FD193EA0C0F03D14B0218BF084608D180EA010000F0004040F0FE4040F40000704740F019
:403A0000FE4040F4400070474FF0FF0C1CEAD0521EBF1CEAD15392EA0C0F93EA0C0F69D0A2EB030280EA010C49024FEA402037D04FF0805343EA111143EA10130CF000405B
:403A40008B4238BF5B0042F17D024FF4000C8B4224BF5B1A40EA0C00B3EB510F24BFA3EB510340EA5C00B3EB910F24BFA3EB910340EA9C00B3EBD10F24BFA3EBD10340EA8C
:403A8000DC001B0118BF5FEA1C1CE0D1FD2A3FF650AF8B4240EBC25008BF20F0010070470CF0004C4CEA50207F32C2BFD2F1FF0340EAC250704740F400004FF00003013A88
:403AC00037E792F0000F00F0004C02BF400010F4000F013AF9D040EA0C0093F0000F01F0004C02BF490011F4000F013BF9D041EA0C0195E70CEAD15392EA0C0F08D1420219
:403B00007FF47DAF93EA0C0F7FF470AF084676E793EA0C0F04D14B023FF44CAF08466EE730F0004C18BF31F0004CCAD130F000427FF45CAF31F000437FF43CAF5FE700BF94
:403B40004FF0FF3C06E000BF4FF0010C02E000BF4FF0010C4DF804CD4FEA40024FEA41037FEA226C18BF7FEA236C11D001B052EA530C18BF90EA010F58BFB2EB030088BF8D
:403B8000C81738BF6FEAE17018BF40F0010070477FEA226C02D15FEA402C05D17FEA236CE4D15FEA412CE1D05DF8040B704700BF844608466146FFE70FB5FFF7C9FF002834
:403BC00048BF10F1000F0FBD4DF808EDFFF7F4FF0CBF012000205DF808FB00BF4DF808EDFFF7EAFF34BF012000205DF808FB00BF4DF808EDFFF7E0FF94BF012000205DF840
:403C000008FB00BF4DF808EDFFF7D2FF94BF012000205DF808FB00BF4DF808EDFFF7C8FF34BF012000205DF808FB00BF014B1868704700BF8C81FF1F0E4B70B51E460E4C2B
:403C40000025E41AA410A54204D056F8253098470135F8E700F0D2FB084B094C1E46E41AA4100025A54204D056F8253098470135F8E770BD08440000084400000844000018
:403C80001044000010B5431E0A44914204D011F8014B03F8014FF8E710BD03460244934202D003F8011BFAE770470000004500006A000000000000006900122E0000020109
:403CC00062617564726174650069766F5F75617274006C696E65636F6465000000510040100020510040100040510040300000000140001000140140000280160140800569
:403D000000400140000A004C0140000200500140200000040341FC05000AFC03000C00000080000003800B00142052002800000003108008000203000010030000002500C6
:403D40004800800F1C3060800340000000000000001564030500020E0C0005FFFFFF62A0F0410C00000000000800040B04049191000100000000000040020010301000103B
:403D8000101200000000000000000000000000000000000001450040055200400264004002650040020301406E0601403C070140020D01404E140140471501402F160140E2
:403DC0005117014001190140064001400841014002420140044301400145014002460140064701400D48014018490140014C014008500140025101407E0218016002780499
:403E0000790C7C40860D870F84388572E208E6020307041C0504060207080C14110312031410160C170C200C21112211232224102C092D222E102F11301F31303307350864
:403E400037083F104060410445D24602480F49FF4AFF4BFF4DA04F04501852805405580459045A045B045C915D995F01604062C06440654066C068C06AC06CC06EC0842C25
:403E8000854A8643873489038A088B148E0C947195139606972C9C719D139E0E9F64A080A213A348AB40AF35B030B168B30FB40FB6C0B710B882BA20BB0ABE01BF40C0350A
:403EC000C101C5EEC6CBC80FC9FFCAFFCBFFCEF0CF44D00CD401D604D804D904DA04DB04DC11DD11DF01E6C0EA40EB0200040201030804A40520084009880A020D080E80D9
:403F0000108012401440162118041A401B801C401E8021082241268A270829802A612B882E022F013188360A38243C023F084188468049814B084E084F0950505690592123
:403F40005A885F496080682A69016A1474018080C0A7C235C4B8CA9DCCCACEC6D08AD228D6DFD801E208E602001002600450050106800C900E60100412012405260A2803C2
:403F80002A0C2C082E0232C033013430360F38283B303E143F0454185604580459045B045C215D105F0181088201843185048606883789F38B0C8C268D9C8E118F4391117A
:403FC000920895FF990C9A089C269D1F9E119FA0A004A3E3A402A502A806A903AF10B010B18CB220B30FB408B607B77CB802BA80BBA8BE14D602D711D804D904DB04DC11A5
:40400000DD10DF01000A030205420620071408010D820F0410281201172A19881A041C141D422008220425C0260927142C442D822F1035403602372438013A013B083D8020
:404040003E2A5A015C1060466540664068016C146F01760A772A8140850886048C4090019201932C94289540960898479E409F05A028A202A302A405A580A609AD60AE80C6
:40408000C0FDC2D8C477CAF0CCF0CEF2D621D80DE2408008812482118348840986068B038C118D548E0A8FA8911C93E09501AD90AF48B004B302B418B5FCB603B701B8A022
:4040C000BA02BE50BF10C004C704C9FFCA07CBFFCC40CD20CEF0CF05D008D804D904DA04DB04DC92DD01DF01E040E1A8E240E320000A0302042806400A800B400C040DA24D
:404100001510178519201A021B021D261E011F102004210822402401262227A02A802E022F10300231083404350436013780384039013A103E143F81400142424440450257
:40414000472449804A014D904E084F0450805308574059405D40640167037E808006822086019040910192549308960897429A109E02A02AA280A480A708C07DC2F0C4F0C0
:40418000CAC8CCD3CEFDD0E1D230D618D810DE80EA02EA023381340237403B10CCF0CE108402871097109C029F41A780E210E6409F41A78083409F41A780E68086419601E8
:4041C000A64009080A010E809601A640C20E238051015F4082208501A780AF01C840D480D620E220E640EA40051008085620710875028110850A8F809A209C08A780AC08B8
:40420000AFC0C080C210D440DC80DE20E240E420E610E840EC10EE40AD08000201010A020B01100611011A061B0100AF010200030300030000004000000C0C000C00C0000D
:40424000000B0B0000000000110008110100010000003031323334353637383941424344454600002800000000010400010000000000000000014359555342000000303045
:4042800030303100000000000000000012034D005300460054003100300030000100000001000000A842000001000000E6430000000000000000000001000000C042000074
:4042C00001000000A343000003000000EA4200000000000000000000000000000000000000000000E8420000020A00008103080002000100820240000A00010003024000CF
:404300000A000203040309042C0343007900700072006500730073002000530065006D00690063006F006E0064007500630074006F00720010035500530042005500410030
:40434000520054003803430044004300200043006F006D006D0075006E00690063006100740069006F006E00200049006E00740065007200660061006300650026034300FF
:404380004400430020004400610074006100200049006E0074006500720066006100630065000009024300020101C032090400000102020103052400100104240202052442
:4043C00006000105240100010705810308000A09040100020A00000407058202400000070503024000001201000202000008B40432F201000102800143000000F8B500BF7B
:40440000F8BC08BC9E46704751000000FD110000F8B500BFF8BC08BC9E4670472D00000030440000C880FF1FC80000000809000000000000AC3C0000B03C000001000000D6
:40444000C03C0000C881FF1F0400000001000000C93C0000CC81FF1F0100000001000000D23C0000CD81FF1F0100000000C2010000000800C20100000008A1200000000090
:40448000020000000000007D00FA0000400000000090D0030000000000000000000000000000000000000000000000000000000000000000F84300000000000000000000A5
:4044C000000000000000000000000000000000000000000000000000000000000000000000000000000000000000000000000000000000002C81FF1F0000000000000000F1
:40450000000000000000000000000000000000000000000000000000000000000000000000000000000000000000000000000000000000000000000000000000000000007B
:40454000000000000000000000000000000000000000000000000000000000000000000000000000000000000000000000000000000000000000000000000000000000003B
:4045800000000000000000000000000000000000000000000000000000000000000000000000000000000000000000000000000000000000000000000000000000000000FB
:4045C00000000000000000000000000000000000000000000000000000000000000000000000000000000000000000000000000000000000000000000000000000000000BB
:020000040003F7
:40FFC00000000000000000000000000000000000000000000100010000000000000000000000000000000000000000000000000000000000000000000000000000000000FF
:0200000480007A
:4000000000000000000000000000000000000000000000000000000000000000000000000000000000000000000000000000000000000000000000000000000000000000C0
:400040000000000000000000000000000000000000000000000000000000000000000000000000000000000000000000000000000000000000000000000000000000000080
:400080000000000000000000000000000000000000000000000000000000000000000000000000000000000000000000000000000000000000000000000000000000000040
:4000C0000000000000000000000000000000000000000000000000000000000000000000000000000000000000000000000000000000000000000000000000000000000000
:0200000490006A
:0400000000004005B7
:0200000490105A
:04000000BC90ACAF55
:0200000490303A
:020000003202CA
:0200000490402A
:4000000000000000000000000000000000000000000000000000000000000000000000000000000000000000000000000000000000000000000000000000000000000000C0
:400040000000000000000000000000000000000000000000000000000000000000000000000000000000000000000000000000000000000000000000000000000000000080
:400080000000000000000000000000000000000000000000000000000000000000000000000000000000000000000000000000000000000000000000000000000000000040
:4000C0000000000000000000000000000000000000000000000000000000000000000000000000000000000000000000000000000000000000000000000000000000000000
:0200000490501A
:0C00000000012E12006900012E2C326B52
:00000001FF