:400000000080002011000000711A0000711A000008B5054B1A6803F53F5302331A6000F0A5F801F02DFD00BFFA46004010B5054C237833B9044B13B10448AFF30080012308
:40004000237010BDB081FF1F0000000004340000084B10B51BB108490848AFF300800848036803B910BD074B002BFBD0BDE81040184700BF00000000B481FF1F04340000C8
:40008000C880FF1F0000000000470023014422B1013A885C0344DBB2F9E71846704701380B284FD8DFE800F0060C12181E24302A363C42480902C1F57F3101F5707147E0E3
:4000C0000902C1F57F3101F2C13144E00902C1F57F3101F2C53136E00902C1F57F3101F2C93138E00902C1F57F3101F574712FE00902C1F57F3101F2D13129E00902C1F515
:400100007F3101F2D6311EE00902C1F57F3101F2D23118E00902C1F57F3101F5757112E00902C1F57F3101F5767114E00902C1F57F3101F577710BE00902C1F57F3101F596
:40014000787108E000210B78487843EA002070470878C0B270470B784A788878000440EA02201843CB7840EA0360704710B50B4A137803F0C003802B0ED100241470214632
:400180000220FFF78CFF38B121460220FFF787FFBDE81040FFF778BF10BD00BFFA460040F8B5014606460320FFF779FF314605460420FFF774FF013500EB0525314603207B
:4001C000FFF76DFF0024274601300002854209D910F8013B5A1ED2B2FD2A1C4498BF0127E4B2F3E731460320FFF759FF114B01309D424FEA00204FEAD00014BFED084FF4B9
:400200000045A84206D200F190431B7801301C44E4B2F6E731460120FFF741FF6442E4B2844204D1002F0CBF06200020F8BD0620F8BD00BFC0FF03002DE9F04FADF51F7DD3
:40024000804601F0D1FC10B1002001F0B9FD00F07DFC62B6B8F1000F18BF43464FF000052E4608BFFF23DFF8ECA200934FF00A09B84B1B784BB1022B0FD1009B02AA4FF4C5
:40028000967108A800F0E4FC06E0009B02AA4FF4967108A800F08CFC0746B8F1000F03D009F1FF395FFA89F9B9F1000F02D0002FDED101E0002F4AD1BDF80820062A40F260
:4002C000D9819DF82030012B40F0D481BDF82270FB1D934200F2CB81B3F5967F00F2C78108AB3B449B79172B40F0C4813B1D9BB200220DF11F012BB1C85C013B024492B2FD
:400300009BB2F8E708ABD91948790B79524243EA002392B2934240F0B08120E05B429BB209AA13551B0A0DF1250213550DF1260317221A559AF80030002B40F08C81E11D9B
:4003400096230DF10A0289B208A800F00AFCB8F1000F8DD0002E00F0D881012688E79DF821309DF82440A3F131020B2A00F2FA80DFE812F02E003F00F8006400A000F80046
:40038000A400B7006400C800E4000C00002E00F07181012F40F06E81002C40F00F812046FFF7FEFE002840F00C81DFF8B4E109AFBEE80F000FC7BEE80F000FC7BEE80F004F
:4003C0000FC7A3469EE80300382487E8030028E1002E00F04F81002F40F04C813846FFF7DFFEB0FA80F040098DF82400BB46344617E1002E00F03E81012F40F03B81032CCC
:4004000000F23881DAF804301B68C3F30742944202D1C3F3072303E08CBF00234FF480738DF824301B0A00278DF82530FF238DF826308DF82770BB460424F2E0342B12D124
:40044000002E00F01781032F40F01481A4F140033F2B8CBF4FF4907510252A46002153A802F0BBFF05E0002E00F00481022F40F2018153AB033F3A4658190DF1270102F0D7
:40048000A1FFA4F140032F443F2BBFB204D801F05BFC8022102303E04FF480724FF49073BB4240F09180BDF82550AA4200F29180012640E0002E00F0DD801DE1002E00F0EA
:4004C000D9807C19B4F5967F00F3D18053AB58193A4609A94FF0000BA5B202F073FF5C469FE0002F40F0C6801B4A05AB92E8030009AA83E8030082E803003D460126BB46D5
:4005000008248EE0002E00F0B580032F40F0B280A4F140023F2ABDF825B008D801F014FCBBF17F0F4FEA0B1140F2AF8003E0BBF1FF0F40F2B6804FF00A0B71E00020FFF7DF
:400540002FFE10B9054A8023137000F008FB01F039FC8FE0CC80FF1F08340000FA460040C0FF03006B4A1468002C54D0002E55D0ADF80E700DF1240B00278DF80C30CDF8CF
:4005800010B005970697CDF81CB005A903A8A047BDF81840B4F5937F02D3079A5A4505D0079A02B934B99DF814B03AE04FF00E0B3C4636E04FF00E0B144632E04FF00C0BF9
:4005C0002EE04FF00C0B2CE0002501264FF0030B1FE03F2C0ED8DAF8042005EB0421106889B2C0F30F2210F0FF0F1CBF013292B28A4245D8294653AA204601F03FFB002892
:400600000CBF4FF0000B4FF00A0B01F001FC002501262C4605E04FF0050B02E04FF0050B00240122230A271D8DF820208DF82330ADF80A408DF821B08DF82240BFB200232B
:400640000DF11F02002F3FF469AED15D013F0B449BB2BFB2F6E7022B7FF479AEE11D96230DF10A0289B208A800F08EFA6FE64FF0030BD5E74FF0040BD2E74FF0080BCFE732
:40068000002501264FF00A0BC3E710222248FFF7FCFC024652428DF824204FF0000B0124BFE7270207EB0B014FF4807209020020FFF7EBFC3F2C0246ECD807F110775F44AF
:4006C0007F010021C85D013102442029D2B2F9D1032CDFD1BBF1FF0FDCD1002105200192FFF7DDFC019A0021101AC4B20620FFF7D6FC201AC2B2CDE7B8F1000F02D1454675
:400700004746B5E500252F4627E60DF51F7DBDE8F08F00BFCC81FF1F0080004038B50020FFF73EFD154C0021636800281A68084614BF06250025FFF7A8FCA3681B78181A2F
:4007400000F0FF00834202D163681B6813B9002001F036FB0A4C237803F0C003402B00D01DB100202070FFF767FD2820FFF764FD80232370BDE8384001F024BBCC80FF1FB0
:40078000FA4600400B4B93F848300B2B10D8DFE803F006080F0F0F0F0F0F0F0F0A0C002204E0022202E0012200E00322024B1A70704700BFE881FF1F7865004000000000C7
:4007C0002DE9F84302F0B4FB044601462A4802F0BBFC01F0E9FF06460F4601F0F9FD804689463046394601F06BFD06460F4600F0D5F81FA1D1E9000142464B4602F052F9E8
:4008000002F0C0FA02F094FB214602F09DFC4FF07E5102F0DBFA32463B4620F0004514A1D1E9000102F03EF902F0ACFA02F080FB214602F089FC4FF07E5102F0C7FA20F029
:400840000041284602F06AFD00220C4B10B14046494601E03046394601F046FE02F092FA012180B201F0B6FCBDE8F84300F088B80000000080845E410024F44A0000F03F5D
:4008800008B501F0A3F9124C01F06CFC114B124D636401F088FC0323002206210F4800F064FF234604F1200204F1320104F1100000F050FC08B9022305E0606CFFF780FF32
:4008C000FFF760FF00232B70FFF728FFFEE700BFE881FF1F80841E00CC80FF1FD880FF1F08B51049002001F0B5FA0721002001F0BFFA0D4B00221A700C4B72221A70202218
:400900005A700B49012001F0A5FA0721012001F0AFFA084B06221A7047221A74022283F8612008BD4D0D0000D081FF1F89650040DD0D00002964004008B501F0B9FC0C4ABD
:400940000C49137843F020031370537843F010035370094A012313600B7843F010030B70064902230B601360BDE8084001F0A4BC996500409A64004000E100E080E200E0AD
:4009800010B5054C63781BB9FFF7AAFF01236370BDE81040FFF7D0BFD081FF1F08B501F087FC0B4A0B49137803F0DF031370537803F0EF035370084A012313600B7803F064
:4009C000EF030B7002231360BDE8084001F074BC996500409A64004080E100E00F4B01221A600F4A9378D1781079DBB2C9B208B98B420BD00B49C85C0133DBB293701379C1
:400A0000C0B233B1064B00221A7102E0064B1878C0B2064B01221A60704700BF80E100E0D081FF1F3482FF1F4965004000E100E00A4B01221A600A4A9178D378994202D14E
:400A40001379002005E09178D378D3789078181AC0B2044B01221A60704700BF80E100E0D081FF1F00E100E008B501F021FC0B4B1A7842F001021A701A7802F0FE021A7047
:400A800001F01AFC064B01211960064B00229A70DA701A715A71044B196008BD9965004080E100E0D081FF1F00E100E010B5124CE379A279D2B2934202D2511E994201E0F8
:400AC000991AFF2914BF002101210029F1D193420A4A05D11178490702D4094B187010BD0849C8540133E37113789B0742BF064B02221A6010BD00BFD081FF1F6A640040A8
:400B00004A6400403486FF1F00E200E008B501F0CFFB0A4B1A7842F001021A701A7802F0FE021A7001F0C8FB054A02231360054A00219171D171044A136008BD9A640040EE
:400B400080E100E0D081FF1F00E100E008B5FFF717FFFFF789FFBDE80840FFF7D7BFFFF71DBFF8B50E4604461746FFF77DFF731E651E1C44A54204D015F8010FFFF796FF81
:400B8000F8E73E800020F8BD70B5084B064618780C46FF28154605D021B10A460123314600F048FC2C80002070BD00BFD981FF1F2DE9F84F8046894616460A245C43002565
:400BC000ABB2A34213DAFFF733FF013558B1FFF72FFF0446642001F013F9FFF729FF8442F5D3002704E0012001F0F4F8E8E7052700243480FFF71CFF30B3FFF719FF32882C
:400C000085B2AB189BB24B4533801CD24FF0000B1FFA8BF304EB030A9D421FFA8AFA06D9FFF7DCFE0BF1010B08F80A00F0E72C44A4B208EB040313F8013C172BDAD0012036
:400C400001F0C8F8D6E732803846BDE8F88F00002DE9F74F82468B4690460A267343364CDFF8E49001930025052714F8010FFF283BD000F0C1FB314BC0B21728E85429D1EA
:400C80000026019BB2B29A4219DA207800F032F9013680B1237889F80030207800F02AF90746642001F0ACF8207800F023F98742F3D3002703E0012001F08CF8E1E7002309
:400CC000A8F800305A465146207800F033FCA8F800000FE014280DD00121207800F0EAFAFF2389F80030237004E040F29A2000F053FB20700135022DB7D1114C2078FF28F3
:400D00000FD000F079FB0F4BC0B2172818700CD014280AD00121207800F0CCFAFF23237003E0172000F038FB2070012001F052F8384603B0BDE8F08F358CFF1F348AFF1F8D
:400D4000388CFF1F398CFF1FD981FF1F2DE9F0431A481B4C024625461A4E1B491B4FDFF874E0DFF874C03378DBB213F01E091EBF91F8008049EA080881F800809B061AD5F1
:400D800097F8008003785FFA88F8DBB20EF80380237813B101238CF8003013780133DBB2137013780A4B92F800801B789845DAD101232B70D7E7BDE8F08300BFD381FF1FE9
:400DC000D481FF1F6A650040D081FF1F49650040D281FF1F3482FF1FD581FF1F70B50C4B0C480D490D4C0E4D1A78067896420DD00A7852070AD41A781A78D2B2A25CD2B2D9
:400E00002A701A780132D2B21A70EDE770BD00BFD681FF1FD781FF1F6A6400403486FF1F4A6400402DE9F04180460C4616461F46BDF8185001F02EF910F0110FFAD0002E59
:400E400014BF04210021012D44EA010402D144F0010408E0022D02D144F0020403E0042D08BF44F00304FE2001F08AF94FEA182001F016F95FFA88F001F012F9204601F08B
:400E80000FF9032401F01EF918B101F015F904B1013C052000F0B4FF002CF3D101F012F90028EFD1AC4219DA01F014F9032811D8012E0CBF385DFF2001F0F2F801F002F93D
:400EC0000028FBD01EB901F0F7F8385501E001F0F3F80134052000F093FFE3E701F0DAF810F0110FFAD0FF2001F04AF9BDE8F04101F000B930B5072885B026D8154B00220F
:400F00001B5C23B344010834ADF80C20ADF80E20E4B2022503AB0095002221462620FFF781FFBDF80C303BB100950DF10E03002221462620FFF776FFBDF80E30BDF80C008B
:400F40009842E7D140BA80B202E0002000E0184605B030BD3C8CFF1F30B5072885B026D8154B00221B5C23B344010834ADF80C20ADF80E20E4B2022503AB00950022214627
:400F80002020FFF74FFFBDF80C303BB100950DF10E03002221462020FFF744FFBDF80E30BDF80C009842E7D140BA80B202E0002000E0184605B030BD3C8CFF1F7FB5802319
:400FC00004AE06F8013D01250021009533462A460846FFF727FF002400223346009511461046FFF71FFF9DF90F300134002BE4B203DA642CF0D1102003E0642C0CBF102028
:40100000002004B070BD00002DE9F04F8DB0164603AA80460F4692461D464C4B03F1080E144618685968083303C473452246F7D118689B88DFF818912060A3804FF0000B88
:401040000124E1000E23043409F801BF0122009301F0F80153461E20E4B2FFF7E3FE212CEFD1B8F1000F1BD001224FF00409104643460021CDF80090FFF7D4FE07AC00224B
:401080002346CDF8009011460120FFF7CBFE002318F80310E25C91421BD10133042BF7D1E7B14FF004083B46012200210520CDF80080FFF7B7FE07AC00222346CDF800808D
:4010C00011460520FFF7AEFE0023F95CE25C914201D0062037E00133042BF6D1BEB1062733460122002109200097FFF79BFE07AC00222346009711460920FFF793FE00236A
:40110000F15CE25C9142E4D10133062BF8D10DB9002018E004262B46012200210F200096FFF780FE07AC00222346009611460F20FFF778FE0023E95CE25C9142C9D101336B
:40114000042BF8D1E4E70DB0BDE8F08F463400003B8CFF1F2DE9F041064686B064200C461746984600F036FE35782DB1304600F03BFA06AD45F8140D26782EB1204600F064
:4011800033FA06AE46F8100D3C7824B104A9384600F07CFA04AC98F800702FB1404600F023FA06AF47F80C0D4FF0C808FFF706FF10F0FF0F07D0012000F00CFEB8F10108ED
:4011C000F4D1102008E03B46224631462846FFF71BFFC0B20028EED106B0BDE8F08170B5072886B08DF80F1022D8440108340125E4B200950DF10F032A4621462846FFF7CA
:4012000011FE00260DF117030095002221460120FFF708FE9DF817301BB1012000F0DAFD01369DF8170020B17C2EEBD9102000E0012006B070BD00007FB511F0040FADF873
:401240000E008DF80D101A4B02D01C785CBB08E001241A5D012A03D10134082CF9D122E0E4B2650108350126EDB21E5532460DF10D03294600200096FFF7D4FDBDF80E205D
:4012800004AB52BA23F8022D02220092294604203246FFF7C7FD31462046FFF7A0FF20B1034B00221A55FF2000E0204604B070BD3C8CFF1F2DE9FF4107284FF0FF0305464F
:4012C00088468DF80F302DD8184C235C27464BB3460108360123F6B2009300220DF10F0331460320FFF79EFD9DF80F3013B96355092018E0B8F1000F03D008212846FFF737
:401300006EFF10212846FFF76AFF044600B978550122022000920DF10F033146FFF782FD204600E0012004B0BDE8F0813C8CFF1F07287FB5054625D8164B1B5C13B34401FA
:401340000834E4B201260DF10F030022009621460220FFF767FD9DF80F3003F0100303F0FF028BB90DF10F03009621460320FFF759FD9DF80F304BB931462846FFF79AFFEF
:40138000092004E0012002E0082000E0072004B070BD00BF3C8CFF1F1FB50121FFF74CFF0728044620D8134B1B5CEBB1410101230831009300220DF10F0301F0F8010320DE
:4013C000FFF730FD9DF80F30132B04D000212046FFF770FF0AE002212046FFF700FF28B100212046FFF766FFFF2000E0204604B010BD00BF3C8CFF1F07281FB512D80C4B06
:401400001B5C8BB1400100F108010123009303200DF10F03002201F0F801FFF703FD9DF80F0002E0002000E0184605B05DF804FB3C8CFF1F07282DE9FF4706460F46154678
:4014400098466FD83A4B1A5C002A6DD0FFF784FD854208F001084FEA86041FD9B8F1000F1CD0611C0123C900009300220DF10D0301F0F8011F20FFF7D5FC9DF80D202AB18D
:40148000013A4FF4806303FA02F292B2954249D83046FFF761FD8542FAD80546E4B204F101094FEAC9094FF0020A5FFA89F90DF10E03002249462420CDF800A0FFF7B2FC1D
:4014C000BDF80E0004EB0A0140BAC900ADF80E003B46012201F0F00180B20095FFF7A2FCBDF80E3049462B445BBAADF80E302420CDF800A00DF10E030122FFF793FC20214E
:401500003046FFF76CFEB8F1000F09D0012000F061FC3046FFF70CFF0838C0B20128F5D8284602E0002000E0104604B0BDE8F0873C8CFF1F2DE9F043072885B006460F460D
:4015400014464AD8274A105C002847D003F001053046FFF7CFFC84423CD800283ED0A04228BF2046B500EDB205F101084FEAC8085FFA88F84FF0020984B20DF10E0300227E
:4015800041462820CDF80090FFF74CFCBDF80E00E91C40BAC900ADF80E003B46002201F0F80180B20094FFF73DFCBDF80E30012223445BBAADF80E3041460DF10E032820B6
:4015C000CDF80090FFF72EFC40213046FFF707FE204603E0002DBBD1BFE7002005B0BDE8F08300BF3C8CFF1F2DE9FF410024074606462546A046384601F0F7FEF31B9842BA
:4016000007D916F8013BA3F13002092A0AD8032C02DD4FF0FF3035E004AA224402F8083C013401E02E2B01D03378B3B904AB1C445A1904F8088C02F8108C0DF1070111F8B4
:40164000014F4CB112F8103C303C03EB830304EB430402F8104CF2E70135032DCBDD042DD7D19DF800009DF801109DF802209DF803308DF804008DF805108DF806208DF88E
:401680000730019804B0BDE8F0810000F0B5304F00252E46BE46435D002B56D03A681A44527812F0440F47D0A3F13002D2B2092A0CD9A3F16102052A01D8573B04E0A3F13D
:4016C0004102052A04D8373BDBB202E0134600E000231B016A1CDBB28B5592B210F802C0DEF800406444647814F0440F23D0ACF13004E2B2092A0FD9ACF16102052A02D8D5
:40170000ACF1570205E0ACF14102052A03D8ACF13702D2B200E0002213448B55052E05F102039BB20AD0C35C03353A2B0CBF00230623ADB204E01546062301E01D460023FB
:401740000136062E01D0002BA5D01846F0BD00BF4881FF1F421E41F2055012F8013F1BB100EB40105840F8E770472DE9F34707460E4614460025601980B200F016FD0DF852
:4017800005000135052DF6D19DF800300534A4B2002B65D19DF80130C02B61D19DF80230FF2B5DD19DF80330EE2B59D107EB0616B4F5006F54D20025601980B200F0F5FC36
:4017C0000DF805000135052DF6D19DF800109DF80150DE299DF802909DF803A001D1AD2D01D0B8460CE0B9F1BE0FFAD1BAF1EF0FF7D135E098F80030012B04D008F11008BF
:40180000B045F7D125E0D8F80400FFF7A3FFC3B28B42F3D1C0F30723AB42EFD1C0F307434B45EBD1BAEB106FE8D105340023A4B29DF80420DDB2E018AA4280B203F10109B6
:401840000CD9D8F808A000F0B0FC4B460AF80500EEE79DF8040005300444A0B20446A7E702B0BDE8F0870000F8B572B6684B61221A700122A3F5F0631A80664A1823432168
:4018800013705180137149F63F42634B634E1A801F229A70062283F87822522203F5BC731A705F4B5F4A1B781925DBB2137040F618025D4B00241A8041F2512223F8022C11
:4018C00033784FF4F07003F0010343EA440400F0E7FC013D04F0030421D0032CF0D1534B4FF480721A8007221A70514A002448211470917002221C705C7103F8032C4D4A36
:401900004D4D1378062643F007031370404B01221A704A4A137843F00403137000E0FEE706FB045300219A881868013401F055FD0C2CF5D180224249424801F043FD002222
:401940001146414C04F1640554F8210005EB420320F0FF06C0B2024405EB4200013303300233834206D013F8037C13F802EC07F806E0F5E701311929E6D1344A3449137858
:40198000344843F002031370137C334C43F002031374A2F58632633A13781E3443F0400313700B7843F010030B702C4B19681D46016059684160184650F8081F44F81E1CBC
:4019C000416855F8100F44F81A1C696803C429892348218053F81A1FA4F6885401605968416020490B7843F008030B701E4B01F5AA511B780C31DBB203F007001B0908705B
:401A00004B701A4B442119700FCA07C42380F8BD004800408240004088400040254200400F010049A1460040224200400440004006400040A243004054340000E84600401A
:401A40009C340000801801401C35000003500140C2430040C251004012510040E03A00005251004022430040CF0100497658004008B501F07BFC03680C2B00D1FEE7FEE772
:401A800080B51148114B0025C0B1A3F1100192C922460439161BB74204D051F8046F42F8046BF7E7114653F8046C8C1AA64202D041F8045BF9E701381033E5E701F05CFC45
:401AC000FEF7DEFEFEE700BF010000003C3C0000104A114B10B41A60104A114C1368114843F4007313600023032B98BF54F823204FEA830188BF0C4A0133302B4250F3D1E6
:401B00000A4B1A780A4B1A700A4B064A10BC1A60FFF7AABE0004FA050CED00E014ED00E0000000000080FF1F711A0000BC760040C080FF1F08ED00E0184A137843F00203E6
:401B40001370937803F08F0343F010039370144B1A7802F0CF021A701A7842F030021A701A7802F0F0021A701A7842F00F021A70FF2223F8072C7F2223F8052C002203F873
:401B8000082C084A137843F00103137092F85E3B43F0010382F85E3B704700BF004F00400B4F0040A3430040074A137843F001031370137C43F00103137492F85D3B43F0F0
:401BC000010382F85D3B7047A343004008B505490B781BB9FFF7B0FF01230B70BDE80840FFF7E2BFDA81FF1F70B500F04BF900F0E9F908B104243AE000F01EFA07280446A8
:401C000010D11C4D2A781B4B900703D4012000F0F7F8F7E71A78910704D51B789B0814BF0724002400F0EEF90CBB00F02BF900F0C9F90028DED1012000F0AAF907280AD1B2
:401C40000C4D02210C4800F02FF90228094E05D02B789B07F5D54FF0FF3406E033789A0703D4012000F0CCF8F8E700F0CBF9204670BD00BF22470040448CFF1F41282DE9CC
:401C8000F04105460E46174698460AD8441F3A2C8CBF002401243F2804D8B1F5807F30D806E00124812E28BF0124B8F1100F28D13FB334BB00F086F928BB43463A463146B0
:401CC000284600F00FF9072834D1DFF8748098F800201B4B12F0020F1F4603D1012000F08FF8F4E71A78900706D51B789B080CD002E01A78920719D44FF0FF3400F082F9BD
:401D00001AE0012418E0042416E00E4A314653782846127800F01CF907280BD13A78084B9107E6D4012000F06BF8F7E71B789B08E4D0E1E70446E1E72046BDE8F08100BF24
:401D400022470040448CFF1F08B500F0B1FA0F4A137843F008031370137C43F0080313740B4BC8221A700B4A137843F010031370137C43F01003137402F5557213789B06C2
:401D8000FCD5BDE8084000F097BA00BFA043004001470040AC430040044B1A7842F001021A701A789207FCD5704700BF02470040024A137803F0FE03137070470247004062
:401DC00001BE7047024A137843F0010313707047F646004038B50446084DB4F5004F05D9286800F05DFAA4F50044F6E7034B58686043BDE8384000F053BA00BF3881FF1F55
:401E0000024B1B7A584300F04BBA00BF3881FF1F08B500F04DFA00BF00BF00BF00BF00BF00BF00BF00BF00BF00BF00BF00BF00BF00BF00BF00BF064A13889BB243F0040344
:401E400013801388BFF36F8FBDE8084000F034BA00480040054A00F01F00126800F1100352F8230042F82310704700BF08ED00E000F01F0000F16040490100F56440C9B232
:401E80000170704708B500F013FA064A137843F008031370137C43F008031374BDE8084000F00ABAA04300402DE9F0410E464B1E0A4FDFF82C80451EC418A5420BD03B78F8
:401EC000DB0703D40120FFF79BFFF8E798F8003005F8013FF1E73046BDE8F081224700402047004070B5184D2C78A60727D5174CB6262670D5262670022626702D78AD0794
:401F00001FD416462070B51AADB2AB4203D916F8015B2570F7E7B3F5807F01D0072070BD3F28FBD800F5103001EB0021490100235A5C0133D2B2202B2270F9D1EEE704202B
:401F400070BD092070BD00BF224700402047004070B50D4D2C78A60712D50C4CB6262670D8262670052626702D78AD070AD42070080AC9B22070217022702370072070BD0B
:401F8000042070BD092070BD22470040204700400A4A137899070CD5094BB6211970E12119700E2119701278920704D4187007207047042070470920704700BF224700404F
:401FC0002047004038B500F073F90C4A147874B901250B4915700B682B400AD00B6823F001030B6000BF00BF00BF556002E0042400E01C4600F060F9204638BDDC81FF1FD9
:402000000400084010B500F053F9094B00215A681970012A08D1074C226842F00102226000BF00BF00BF5960BDE8104000F044B9DC81FF1F04000840074B1B789B0708D5F8
:40204000064BB6221A70E0221A700D221A70072070470420704700BF224700402047004008B500F025F90A4A1378033A43F02003D37092F8033143F0100382F803311378E3
:4020800043F010031370BDE8084000F015B900BF9B640040014B1878704700BF6B650040034A13785B07FCD5024B1870704700BF6B6500404B650040014B1878704700BFA4
:4020C0005B650040024B1878C0F34010704700BF68640040064B1B78DBB29A0705D413F0040F14BF0120042070470020704700BF6B65004008B50B4A0B4913789B0601D5A0
:402100000B78FAE700F0D4F8084B1A7842F001021A701A7802F0FE021A70BDE8084000F0CBB800BF686400405B6500409B65004008B5084B0F221A70FFF7DCFF064B074A24
:402140001B78074B6FF481711B78002313700A44137008BD8B6400406B6500408B6500406864004010B5054C23781BB9FFF7E0FF01232370BDE81040FFF772BFE481FF1F2B
:40218000044A4000137800F0020003F0FD030343137070475051004008B5FFF725FDBDE80840FFF7D1BDFFF7F7BF38B5044600F07FF80546FFF7F0FD04F1804303F500430F
:4021C0001C78FFF7F5FDE4B2284600F075F8204638BD0000F0B52C4D2C4E2F78348807F00707A4B2A0424DD0294B1A78D2B26FB934B158B92B7843F040032B703080F0BD99
:4022000030802B7803F0BF032B70F0BD02F0020202F0FF060AB31F4F1F4A00254FF0020E157087F800E03D7117F8085C05F07F0507F8085C144D2D782D0700D568B9174DE4
:402240002C8007241470147814F00104FBD11A7802F0FD021A70104A14701B780C4A9C070BD50E4B0029188014BF03220122013B1A701A78D207FCD4F0BD044B18801378F6
:4022800033431370F0BD00BF8640004084400040A24300401040004001400040024000400230800803D000BF01380046FCD17047EFF3108072B6704780F31088704700BFD6
:4022C000C1F30A522DE9F843A2F2FF36132E0B4604460D468846074621DC002E4EDB3A4A864642FA06F901EA090202431CD034A3D3E9002300F0FAF80022002300F038FD62
:4023000048B1002D04DD4FF4801343FA06F6B04428EA0905002738462946BDE8F883332E06DDB6F5806F3CD020461946BDE8F883A2F213424FF0FF3929FA02F910EA090FE0
:40234000F2D01FA3D3E9002300F0D0F80022002300F00EFD0028DED0002D09DD142E2BD00123C6F1340603FA06F6371928BF9844454627EA090738462946CEE710A3D3E9FE
:40238000002300F0B3F80022002300F0F1FC0028C1D0002D0CDB55EA040707D000270B4DB9E702460B4600F0A1F8BFE73D46B2E700274FF00045AEE705F10108D8E700BF8F
:4023C0009C7500883CE4377EFFFF0F000000F03FC1F30A522DE9F843A2F2FF36132E0B4604460D46884607461CDC002E3FDB3A4A864642FA06F901EA0902024317D034A3FB
:40240000D3E9002300F072F80022002300F0B0FC20B1002D40DB28EA0905002738462946BDE8F883332E06DDB6F5806F2FD020461946BDE8F883A2F213424FF0FF3929FAD0
:4024400002F910EA090FF2D021A3D3E9002300F04DF80022002300F08BFC0028DED0002D20DB454627EA090738462946D8E718A3D3E9002300F03AF80022002300F078FC3E
:402480000028CBD0002D18DB00273D46C6E702460B4600F02BF8CCE74FF4801343FA06F6B044B8E7142E10D00123C6F1340603FA06F6371928BF9844D3E725F00042074B3B
:4024C000224318BF1D460027A8E705F10108C8E79C7500883CE4377EFFFF0F000000F0BF81F0004102E000BF83F0004330B54FEA41044FEA430594EA050F08BF90EA020FDE
:402500001FBF54EA000C55EA020C7FEA645C7FEA655C00F0E2804FEA5454D4EB5555B8BF6D420CDD2C4480EA020281EA030382EA000083EA010180EA020281EA0303362DBC
:4025400088BF30BD11F0004F4FEA01314FF4801C4CEA113102D0404261EB410113F0004F4FEA03334CEA133302D0524263EB430394EA050F00F0A780A4F10104D5F1200EC5
:402580000DDB02FA0EFC22FA05F2801841F1000103FA0EF2801843FA05F359410EE0A5F120050EF1200E012A03FA0EFC28BF4CF0020C43FA05F3C01851EBE37101F00045DF
:4025C00007D54FF0000EDCF1000C7EEB00006EEB0101B1F5801F1BD3B1F5001F0CD349085FEA30004FEA3C0C04F101044FEA445212F5800F80F09A80BCF1004F08BF5FEAFE
:40260000500C50F1000041EB045141EA050130BD5FEA4C0C404141EB010111F4801FA4F10104E9D191F0000F04BF01460020B1FA81F308BF2033A3F10B03B3F120020CDAD5
:402640000C3208DD02F1140CC2F10C0201FA0CF021FA02F10CE002F11402D8BFC2F1200C01FA02F120FA0CFCDCBF41EA0C019040E41AA2BF01EB0451294330BD6FEA0404E6
:402680001F3C1CDA0C340EDC04F11404C4F1200220FA04F001FA02F340EA030021FA04F345EA030130BDC4F10C04C4F1200220FA02F001FA04F340EA0300294630BD21FA20
:4026C00004F0294630BD94F0000F83F4801306BF81F480110134013D4EE77FEA645C18BF7FEA655C29D094EA050F08BF90EA020F05D054EA000C04BF1946104630BD91EA74
:40270000030F1EBF0021002030BD5FEA545C05D14000494128BF41F0004130BD14F580043CBF01F5801130BD01F0004545F0FE4141F470014FF0000030BD7FEA645C1ABF23
:40274000194610467FEA655C1CBF0B46024650EA013406BF52EA033591EA030F41F4002130BD00BF90F0000F04BF0021704730B54FF4806404F132044FF000054FF00001EA
:4027800050E700BF90F0000F04BF0021704730B54FF4806404F1320410F0004548BF40424FF000013EE700BF42004FEAE2014FEA31014FEA02701FBF12F07F4393F07F4F69
:4027C00081F06051704792F0000F14BF93F07F4F704730B54FF4607401F0004521F0004120E700BF50EA010208BF704730B54FF000050AE050EA010208BF704730B511F0DB
:40280000004502D5404261EB41014FF4806404F132045FEA915C3FF4DCAE4FF003025FEADC0C18BF03325FEADC0C18BF033202EBDC02C2F1200300FA03FC20FA02F001FAC8
:4028400003FE40EA0E0021FA02F11444C1E600BF70B54FF0FF0C4CF4E06C1CEA11541DBF1CEA135594EA0C0F95EA0C0F00F0DEF82C4481EA030621EA4C5123EA4C5350EA38
:40288000013518BF52EA033541F4801143F4801338D0A0FB02CE4FF00005E1FB02E506F00042E0FB03E54FF00006E1FB03569CF0000F18BF4EF0010EA4F1FF04B6F5007F97
:4028C00064F5407404D25FEA4E0E6D4146EB060642EAC62141EA55514FEAC52040EA5E504FEACE2EB4F1FD0C88BFBCF5E06F1ED8BEF1004F08BF5FEA500E50F1000041EB92
:40290000045170BD06F0004646EA010140EA020081EA0301B4EB5C04C2BFD4EB0C0541EA045170BD41F480114FF0000E013C00F3AB8014F1360FDEBF002001F0004170BD3B
:40294000C4F10004203C35DA0C341BDC04F11404C4F1200500FA05F320FA04F001FA05F240EA020001F0004221F0004110EBD37021FA04F642EB06015EEA430E08BF20EA81
:40298000D37070BDC4F10C04C4F1200500FA04F320FA05F001FA04F240EA020001F0004110EBD37041F100015EEA430E08BF20EAD37070BDC4F1200500FA05F24EEA020E5B
:4029C00020FA04F301FA05F243EA020321FA04F001F0004121FA04F220EA020000EBD3705EEA430E08BF20EAD37070BD94F0000F0FD101F00046400041EB010111F4801F80
:402A000008BF013CF7D041EA060195F0000F18BF704703F00046520043EB030313F4801F08BF013DF7D043EA0603704794EA0C0F0CEA135518BF95EA0C0F0CD050EA410694
:402A400018BF52EA4306D1D181EA030101F000414FF0000070BD50EA410606BF1046194652EA430619D094EA0C0F02D150EA013613D195EA0C0F05D152EA03361CBF10460B
:402A800019460AD181EA030101F0004141F0FE4141F470014FF0000070BD41F0FE4141F4780170BD70B54FF0FF0C4CF4E06C1CEA11541DBF1CEA135594EA0C0F95EA0C0F8B
:402AC00000F0A7F8A4EB050481EA030E52EA03354FEA013100F088804FEA03334FF0805545EA131343EA12634FEA022245EA111545EA10654FEA00260EF000419D4208BF48
:402B0000964244F1FD0404F5407402D25B084FEA3202B61A65EB03055B084FEA32024FF480104FF4002CB6EB020E75EB030E22BFB61A754640EA0C005B084FEA3202B6EBC7
:402B4000020E75EB030E22BFB61A754640EA5C005B084FEA3202B6EB020E75EB030E22BFB61A754640EA9C005B084FEA3202B6EB020E75EB030E22BFB61A754640EADC005A
:402B800055EA060E18D04FEA051545EA16754FEA06164FEAC30343EA52734FEAC2025FEA1C1CC0D111F4801F0BD141EA00014FF000004FF0004CB6E711F4801F04BF0143BA
:402BC0000020B4F1FD0C88BFBCF5E06F3FF6AFAEB5EB030C04BFB6EB020C5FEA500C50F1000041EB045170BD0EF0004E4EEA113114EB5C04C2BFD4EB0C0541EA045170BD56
:402C000041F480114FF0000E013C90E645EA060E8DE60CEA135594EA0C0F08BF95EA0C0F3FF43BAF94EA0C0F0AD150EA01347FF434AF95EA0C0F7FF425AF104619462CE7C1
:402C400095EA0C0F06D152EA03353FF4FDAE1046194622E750EA410618BF52EA43067FF4C5AE50EA41047FF40DAF52EA43057FF4EBAE12E74FF0FF3C06E000BF4FF0010C6E
:402C800002E000BF4FF0010C4DF804CD4FEA410C7FEA6C5C4FEA430C18BF7FEA6C5C1BD001B050EA410C0CBF52EA430C91EA030F02BF90EA020F0020704710F1000F91EA16
:402CC000030F58BF994208BF90422CBFD8176FEAE37040F0010070474FEA410C7FEA6C5C02D150EA013C07D14FEA430C7FEA6C5CD6D152EA033CD3D05DF8040B704700BF98
:402D00008446104662468C461946634600E000BF01B5FFF7B7FF002848BF10F1000F01BD4DF808EDFFF7F4FF0CBF012000205DF808FB00BF4DF808EDFFF7EAFF34BF012080
:402D400000205DF808FB00BF4DF808EDFFF7E0FF94BF012000205DF808FB00BF4DF808EDFFF7CEFF94BF012000205DF808FB00BF4DF808EDFFF7C4FF34BF012000205DF83E
:402D800008FB00BF4A0011D212F5001211D20DD56FF47873B3EB62520ED44FEAC12343F0004343EA505323FA02F070474FF00000704750EA013002D14FF0FF3070474FF003
:402DC0000000704780F0004002E000BF81F0004142001FBF5FEA410392EA030F7FEA226C7FEA236C6AD04FEA1262D2EB1363C1BFD218414048404140B8BF5B42192B88BF42
:402E0000704710F0004F40F4000020F07F4018BF404211F0004F41F4000121F07F4118BF494292EA030F3FD0A2F1010241FA03FC10EB0C00C3F1200301FA03F100F000430A
:402E400002D5494260EB4000B0F5000F13D3B0F1807F06D340084FEA310102F10102FE2A51D2B1F1004F40EBC25008BF20F0010040EA03007047490040EB000010F4000FED
:402E8000A2F10102EDD1B0FA80FCACF1080CB2EB0C0200FA0CF0AABF00EBC25052421843BCBFD0401843704792F0000F81F4000106BF80F400000132013BB5E74FEA41038C
:402EC0007FEA226C18BF7FEA236C21D092EA030F04D092F0000F08BF0846704790EA010F1CBF0020704712F07F4F04D1400028BF40F00040704712F100723CBF00F50000C8
:402F0000704700F0004343F0FE4040F4000070477FEA226216BF08467FEA23630146420206BF5FEA412390EA010F40F4800070474FF0000304E000BF10F0004348BF4042A9
:402F40005FEA000C08BF704743F0964301464FF000001CE050EA010208BF70474FF000030AE000BF50EA010208BF704711F0004302D5404261EB41015FEA010C02BF844683
:402F80000146002043F0B64308BFA3F18053A3F50003BCFA8CF2083AA3EBC25310DB01FA02FC634400FA02FCC2F12002BCF1004F20FA02F243EB020008BF20F0010070477B
:402FC00002F1200201FA02FCC2F1200250EA4C0021FA02F243EB020008BF20EADC7070474FF0FF0C1CEAD0521EBF1CEAD15392EA0C0F93EA0C0F6FD01A4480EA010C400257
:4030000018BF5FEA41211ED04FF0006343EA501043EA5111A0FB01310CF00040B1F5000F3EBF490041EAD3715B0040EA010062F17F02FD2A1DD8B3F1004F40EBC25008BF82
:4030400020F00100704790F0000F0CF0004C08BF49024CEA502040EA51207F3AC2BFD2F1FF0340EAC250704740F400004FF00003013A5DDC12F1190FDCBF00F000407047D5
:40308000C2F10002410021FA02F1C2F1200200FA02FC5FEA310040F1000053EA4C0308BF20EADC70704792F0000F00F0004C02BF400010F4000F013AF9D040EA0C0093F096
:4030C000000F01F0004C02BF490011F4000F013BF9D041EA0C018FE70CEAD15392EA0C0F18BF93EA0C0F0AD030F0004C18BF31F0004CD8D180EA010000F00040704790F08E
:40310000000F17BF90F0004F084691F0000F91F0004F14D092EA0C0F01D142020FD193EA0C0F03D14B0218BF084608D180EA010000F0004040F0FE4040F40000704740F0E1
:40314000FE4040F4400070474FF0FF0C1CEAD0521EBF1CEAD15392EA0C0F93EA0C0F69D0A2EB030280EA010C49024FEA402037D04FF0805343EA111143EA10130CF0004024
:403180008B4238BF5B0042F17D024FF4000C8B4224BF5B1A40EA0C00B3EB510F24BFA3EB510340EA5C00B3EB910F24BFA3EB910340EA9C00B3EBD10F24BFA3EBD10340EA55
:4031C000DC001B0118BF5FEA1C1CE0D1FD2A3FF650AF8B4240EBC25008BF20F0010070470CF0004C4CEA50207F32C2BFD2F1FF0340EAC250704740F400004FF00003013A51
:4032000037E792F0000F00F0004C02BF400010F4000F013AF9D040EA0C0093F0000F01F0004C02BF490011F4000F013BF9D041EA0C0195E70CEAD15392EA0C0F08D14202E1
:403240007FF47DAF93EA0C0F7FF470AF084676E793EA0C0F04D14B023FF44CAF08466EE730F0004C18BF31F0004CCAD130F000427FF45CAF31F000437FF43CAF5FE700BF5D
:403280004FF0FF3C06E000BF4FF0010C02E000BF4FF0010C4DF804CD4FEA40024FEA41037FEA226C18BF7FEA236C11D001B052EA530C18BF90EA010F58BFB2EB030088BF56
:4032C000C81738BF6FEAE17018BF40F0010070477FEA226C02D15FEA402C05D17FEA236CE4D15FEA412CE1D05DF8040B704700BF844608466146FFE70FB5FFF7C9FF0028FD
:4033000048BF10F1000F0FBD4DF808EDFFF7F4FF0CBF012000205DF808FB00BF4DF808EDFFF7EAFF34BF012000205DF808FB00BF4DF808EDFFF7E0FF94BF012000205DF808
:4033400008FB00BF4DF808EDFFF7D2FF94BF012000205DF808FB00BF4DF808EDFFF7C8FF34BF012000205DF808FB00BF014B1868704700BFAC81FF1F0E4B70B51E460E4CD4
:403380000025E41AA410A54204D056F8253098470135F8E700F038FC084B094C1E46E41AA4100025A54204D056F8253098470135F8E770BD143C0000143C0000143C00006E
:4033C0001C3C000010B5431E0A44914204D011F8014B03F8014FF8E710BD03460244934202D003F8011BFAE77047034613F8012B002AFBD1181A013870470000003E000053
:4034000043000000000000006900122E0000020169705F616464720069705F676174657761790069705F7375626E65740069705F6D61630062617564726174650069766FD8
:403440005F75617274000202800000000000000000000000004F00400C00005100401000205100401000405100401000605100401000F051004010000000014000100014D8
:403480000140800400190140000300400140000A004C014000020050014020000014000A260A191439980640008000003F0000000700386109980020000029000400000040
:4034C000020000000600001E00000000088010780707260008002088000000106401050002E00C0006FFFFFF62A0F0410C00000000000210040404041111000100000000C3
:4035000000004002001030100010101200000000000000000000000000000000024F0040025200400264004002650040040401400305014064080140410901405F0A0140E1
:40354000440B014002150140011701401D1801404F190140631A0140521B014003400140024101400942014004430140074801400A4901400B4D014006500140015101407C
:4035800001200A4B180261118A0F8B0F89728A3839083F0459045F0123108710E20400040105021A04040505061009050A200C1A0E210F0511051402151816041721180472
:4035C00019071A081B081C3B1DD41F20203B2305243B283B29282B422D802F20301E31FF342036013A023B033E105440580459045B045F01810482208308841485048708A1
:4036000089BC8B418C098DFF8ED0901092AC930C94DC95309622980C99109A719D209E03A343A410A5BCA640A742A9CFAB30B33FB4E0B570B61FB780BA20BB28BF40C00387
:40364000C504C9FFCA07CBFFCC40CD20CEF0CF05D008D804D904DA04DC11DD01DF01E040E1A8E240E3200102022204240501062807010A290B400E2A1304171619101A09DA
:403680001B101D811F10211022402320274028A029282E202F4230A8320136193740380839A03B123D203E46410449024B0C58205B206580661067209080910192449340DE
:4036C000962097019A029B179C089D109E04A118A23DA602AC01AE10C0FDC2EFC474CAB7CCFFCEFFD002D870041007010D010E081003120C140A1501160418031A041B01A3
:40370000240326042A052B01300F321037013A023E043F4040524106450B46E0470C481949FF4AFF4BFF4EF04F44500C54015604580459045A045B045C015D115F0166C0A6
:403740006A406B028108831084028542860D87188825895A8A5A8C408D5A8E249118922493429477952196089718981399039A209B3C9C409D109F22A064A15AA464A82487
:40378000A913AA40AB24AC64B130B270B30FB40FB740B908BA20BB02BF40D602D728D804D904DB04DF01021204040520060407010A280B400D020E280F011014110512806E
:4037C0001756188019041C041D081E201F1822402502268C2780280C2E012F0830083214352036083781388839043B403C803D203E043F014008480849104A204B4050045B
:403800005210581159045A80638067206D206E476F557440760277028340C0E5C2FEC4F6CAA4CCF6CEFAD004D20CD60FD841E004E602E20101020304040408130A2C1102C2
:403840001304140D16321E012411262A2C102E202F01320E330634033630370138083AB03F045608580459045B045D905F01012805140604088209200B100D080F0110A8F5
:403880001602170819A11B881C041D141F4021612204254027202B042E022F423204331036083709380839503B023E0140824161484049A052805A805E40670269546A10A5
:4038C0006B106C046D206F0170A883209080910192819318940C958896229783990A9C809D209E1CA188A208A310A4A8A602A702A810A980B008B102C066C2AFC4AECA14AA
:40390000CC86CE8FD00DD20CD618D81002400403060C07080A800D710E800F06130C140F1815192C1A2A1B431C261E19218022402313240F2571270E304031C0320F333027
:403940003480350F3630390A3B203E113F0454185604580459045B045C115D105F018220841B85078604871888118A0E8F0294139521960C970A9825992C9A029B139F34AA
:40398000AF09B008B13FB220B407B610BA20BE45C062C103C210C405C5CEC6F0C7BDC83BC9FFCAFFCBFFCC22CEF0CF0CD004D409D804D904DA04DB04DF01E2C0E440E50191
:4039C000E610E711E8C0E901EB11EC40ED01EE40EF0100800108038804080604074009100A100B020D080E0811041280180419081A021B051C601D401E0821242212274038
:403A000029022B102F023120320235103608374038803B083D88458C46044C044D404E084F055618570259015C405D015F2460046342654081048240874088108D408F219F
:403A4000908091059210930A95089662970199179A049E18A040A1D8A288A398A602A706C07FC267C40CCA13CC75CE5AD070D230D6F1D81DE40132203580CC309D80A620D6
:403A800053085B08818087089D80A620D420D640E2301B08A620A708C610240838088204A620C820CE40E28002085604820886209A04A620C040D440E020E6400040524037
:403AC000700480048A408C40C002D404DC01E202E40100030C03100311011C031D01000F0011110011000000000B0B000000000002000402020002000000040A0A00080000
:403B0000000000202020202020202020282828282820202020202020202020202020202020202088101010101010101010101010101010040404040404040404041010108D
:403B40001010101041414141414101010101010101010101010101010101010101011010101010104242424242420202020202020202020202020202020202020202101037
:403B800010102000000000000000000000000000000000000000000000000000000000000000000000000000000000000000000000000000000000000000000000000000C5
:403BC00000000000000000000000000000000000000000000000000000000000000000000000000000000000000000000000000000000000000000000000000000000000C5
:403C00000000004300000000F8B500BFF8BC08BC9E46704751000000D11A0000F8B500BFF8BC08BC9E4670472D000000403C0000C880FF1FE8000000980A0000000000006E
:403C40000000000002000000FC330000003400000100000010340000E881FF1F100400000100000018340000F881FF1F1004000001000000233400001A82FF1F10040000E1
:403C8000010000002D3400000882FF1F1204000001000000343400002C82FF1F04000000010000003D3400003082FF1F010000000000007D00FA0000400000000090D0034E
:403CC000023B00000000000000000000000000000000000000000000000000000000000000000000033C000000000000000000000000000000000000000000000000000048
:403D00000000000000000000000000000000000000000000000000000000000000000000000000004C81FF1F00000000000000000000000000000000000000000000000098
:403D40000000000000000000000000000000000000000000000000000000000000000000000000000000000000000000000000000000000000000000000000000000000043
:403D80000000000000000000000000000000000000000000000000000000000000000000000000000000000000000000000000000000000000000000000000000000000003
:403DC00000000000000000000000000000000000000000000000000000000000000000000000000000000000000000000000000000000000000000000000000000000000C3
:403E00000000000000000000000000000000000000000000000000000000000000000000000000000000000000000000000000000000000000000000000000000000000082
:020000040003F7
:40FFC00000000000000000000000000000000000000000000100010000000000000000000000000000000000000000000000000000000000000000000000000000000000FF
:0200000480007A
:4000000000000000000000000000000000000000000000000000000000000000000000000000000000000000000000000000000000000000000000000000000000000000C0
:400040000000000000000000000000000000000000000000000000000000000000000000000000000000000000000000000000000000000000000000000000000000000080
:400080000000000000000000000000000000000000000000000000000000000000000000000000000000000000000000000000000000000000000000000000000000000040
:4000C0000000000000000000000000000000000000000000000000000000000000000000000000000000000000000000000000000000000000000000000000000000000000
:0200000490006A
:0400000000004005B7
:0200000490105A
:04000000BC90ACAF55
:0200000490303A
:02000000F60206
:0200000490402A
:4000000000000000000000000000000000000000000000000000000000000000000000000000000000000000000000000000000000000000000000000000000000000000C0
:400040000000000000000000000000000000000000000000000000000000000000000000000000000000000000000000000000000000000000000000000000000000000080
:400080000000000000000000000000000000000000000000000000000000000000000000000000000000000000000000000000000000000000000000000000000000000040
:4000C0000000000000000000000000000000000000000000000000000000000000000000000000000000000000000000000000000000000000000000000000000000000000
:0200000490501A
:0C00000000012E12006900012E28F66B92
:00000001FF