:400000000080002011000000F50C0000F50C000008B5054B1A6803F53F5302331A6000F0A5F800F06FFE00BFFA46004010B5054C237833B9044B13B10448AFF300800123DA
:40004000237010BD4881FF1F0000000068130000084B10B51BB108490848AFF300800848036803B910BD074B002BFBD0BDE81040184700BF000000004C81FF1F6813000012
:40008000C880FF1F0000000000470023014422B1013A885C0344DBB2F9E71846704701380B284FD8DFE800F0060C12181E24302A363C42480902C1F57F3101F5707147E0E3
:4000C0000902C1F57F3101F2C13144E00902C1F57F3101F2C53136E00902C1F57F3101F2C93138E00902C1F57F3101F574712FE00902C1F57F3101F2D13129E00902C1F515
:400100007F3101F2D6311EE00902C1F57F3101F2D23118E00902C1F57F3101F5757112E00902C1F57F3101F5767114E00902C1F57F3101F577710BE00902C1F57F3101F596
:40014000787108E000210B78487843EA002070470878C0B270470B784A788878000440EA02201843CB7840EA0360704710B50B4A137803F0C003802B0ED100241470214632
:400180000220FFF78CFF38B121460220FFF787FFBDE81040FFF778BF10BD00BFFA460040F8B5014606460320FFF779FF314605460420FFF774FF013500EB0525314603207B
:4001C000FFF76DFF0024274601300002854209D910F8013B5A1ED2B2FD2A1C4498BF0127E4B2F3E731460320FFF759FF114B01309D424FEA00204FEAD00014BFED084FF4B9
:400200000045A84206D200F190431B7801301C44E4B2F6E731460120FFF741FF6442E4B2844204D1002F0CBF06200020F8BD0620F8BD00BFC0FF03002DE9F04FADF51F7DD3
:40024000074600F013FE10B1002000F0E7FE00F07DFB62B6002F18BF3B464FF000052E4608BFFF2301934FF00A08019B02AA4FF4967108A800F088FB1FB108F1FF385FFADF
:4002800088F8B8F1000F02D00028EED101E0002858D1BDF80820062A5ED99DF82030012B5AD1BDF82240E31D934252D8B3F5967F4FD808AB23449B79172B4DD1231D9BB286
:4002C00000220DF11F002BB1C15C013B0A4492B29BB2F8E708AB191948790B79524243EA002392B2934239D00824002101238DF820300A1D0B0A8DF82330ADF80A108DF8FE
:4003000021408DF8221092B200230DF11F002AB1845C013A23449BB292B2F8E75B429BB209AA53541B0A0DF12502535417220DF126035A54073196230DF10A0289B208A82B
:4003400000F00FFB002F90D0002E00F0738101268BE70324C9E71EBB0424C6E79DF821309DF824B0A3F131020A2A00F2CA8001A151F822F057030000B90300000305000023
:40038000FD03000069040000030500007104000099040000FD030000B9040000EB040000002CD9D12046FFF7FBFEB0FA80F040098DF82400314699E7002ECDD0012CCBD148
:4003C000BBF1030FC8D89D4B1B681B68C3F30742934502D1C3F3072303E08CBF00234FF480738DF824301B0A8DF825300024FF238DF826308DF82740042177E7342B10D1F8
:40040000002EA9D0032CA7D1ABF140033F2B8CBF4FF4907510252A46002153A800F097FF03E0002E98D0022C96D953AB033C224658190DF1270100F07FFFABF140032C443C
:400440003F2BA4B204D800F0C1FD8022102303E04FF480724FF49073A3427CD1BDF82550AA427CD801263EE0002E3FF475AFDCE0002E3FF471AF04EB050BBBF5967F3FF762
:4004800068AF53AB224609A95819002400F054FF1FFA8BF5214629E7002C7FF45DAF684A05AB92E8030009AA83E8030082E8030025460126082119E7002E3FF44DAF032CC6
:4004C0007FF44AAFABF140023F2ABDF8259007D800F07CFDB9F17F0F4FEA091169D902E0B9F1FF0F71D90A24FFE60020FFF758FE10B9544A8023137000F031FA00F090FD42
:400500002AE7514A1268002A4AD0002E4BD0ADF80E404FF0000B09AC05A98DF80C300494CDF814B0CDF818B0079403A89047BDF81810B1F5937F02D3079BA34205D0079B74
:4005400003B929B99DF81440D0E60E245946CDE60E241946CAE60025012603241EE0BBF13F0F0ED8354A05EB0B21126889B21068C0F30F2210F0FF0F1CBF013292B28A4250
:4005800013D8294653AA584600F0BAFC00280CBF00240A2400F06AFD002501262946A5E605241146A2E605249FE6002501260A24F4E710222548FFF768FD8246CAF1000234
:4005C0008DF824200024012190E64FEA0B2404EB09014FF4807209020020FFF756FDBBF13F0F8246EAD804F110744C4464010021085D013100EB0A0220295FFA82FAF7D1E5
:40060000BBF1030FDAD1B9F1FF0FD7D100210520FFF745FDC0EB0A00C4B200210620FFF73EFD201A5FFA80FAC8E70FB93D461CE600258CE60DF51F7DBDE8F08FCC80FF1F04
:400640006C130000FA4600406481FF1F0080004038B50020FFF7A4FD154C0021236800281A68084614BF06250025FFF70EFD63681B78181A00F0FF00834202D123681B68C6
:4006800013B9002000F0CAFC0A4C237803F0C003402B00D01DB100202070FFF7CDFD2820FFF7CAFD80232370BDE8384000F0B8BCCC80FF1FFA46004008B500F0C9FBFFF76B
:4006C000C7FFFEE708B51049002000F0F1FC0721002000F0FBFC0D4B00221A700C4B76221A702022DA700B49012000F0E1FC0721012000F0EBFC084B0E221A708F221A7456
:40070000022203F8A02C08BD290A00006881FF1F84650040C10A00002665004008B500F0D7FD0C4A0C49137843F020031370D37843F01003D370094A012313600B7843F00C
:4007400010030B70064902230B601360BDE8084000F0C2BD946500409664004000E100E080E200E010B5054C63781BB9FFF7AAFF01236370BDE81040FFF7D0BF6881FF1FEB
:4007800008B500F0A5FD0B4A0B49137803F0DF031370D37803F0EF03D370084A012313600B7803F0EF030B7002231360BDE8084000F092BD946500409664004080E100E0A7
:4007C000104B01221A60104A9378D1781079DBB2C9B208B98B420ED00C49C85C0133DBB2402B28BF002393701379C0B233B1064B00221A7102E0064B1878C0B2054B01221C
:400800001A60704780E100E06881FF1F7C81FF1F4465004000E100E00F4B01221A600F4A9178D378994205D11379002B14BF402000200CE09178D37899422BBFD078D37883
:40084000937890782ABF4030181AC01AC0B2044B01221A60704700BF80E100E06881FF1F00E100E008B500F033FD0B4B1A7842F001021A701A7802F0FE021A7000F02CFD78
:40088000064B01211960064B00229A70DA701A715A71044B196008BD9465004080E100E06881FF1F00E100E010B5134CE379A279D2B2934202D2511E994201E0991A3F2952
:4008C00014BF002101210029F1D193420B4A05D11178490702D40A4B187010BD402B094928BF0023C8540133E37113789B0742BF054B02221A6010BD6881FF1F6664004039
:4009000046640040BC81FF1F00E200E008B500F0DFFC0A4B1A7842F001021A701A7802F0FE021A7000F0D8FC054A02231360054A00219171D171044A136008BD9664004055
:4009400080E100E06881FF1F00E100E008B5FFF709FFFFF787FFBDE80840FFF7D7BFFFF70FBFF8B50E4604461746FFF77BFF731E651E1C44A54204D015F8010FFFF794FF0D
:40098000F8E73E800020F8BD2DE9F84F8046894616460A245C430025ABB2A34213DAFFF73BFF013558B1FFF737FF0446642000F055FBFFF731FF8442F5D3002704E00120CD
:4009C00000F036FBE8E7052700243480FFF724FF30B3FFF721FF328885B2AB189BB24B4533801CD24FF0000B1FFA8BF304EB030A9D421FFA8AFA06D9FFF7E2FE0BF1010BA9
:400A000008F80A00F0E72C44A4B208EB040313F8013C172BDAD0012000F00AFBD6E732803846BDE8F88F00002DE9F0431C491D4C0A4625461C4E1D481D4FDFF87CE0DFF89B
:400A40007CC03378DBB213F01E091EBF90F8008049EA080880F800809B061ED597F800800B785FFA88F8DBB20EF80380237813B101238CF8003013780133DBB21370137812
:400A80003F2B84BF00230B700A4B92F800801B789845D6D101232B70D3E7BDE8F08300BF6B81FF1F6C81FF1F676500406881FF1F446500406A81FF1F7C81FF1F6D81FF1FE4
:400AC0000E4AF0B511460E4C0E480F4D0F4E137827789F4211D0037813F004030DD117783F2F88BF13700B78DBB2EB5CDBB233700B780133DBB20B70E9E7F0BD6E81FF1F53
:400B00006F81FF1F66640040BC81FF1F46640040F8B572B6644B61221A70A3F5F06301221A8018229A7046F2A7129A801B229A71062283F88022522203F5C0731A705B4B74
:400B40005B4A1B785B4EDBB2137040F618025A4B19251A8041F25122002423F8022C33784FF4F07003F0010343EA440400F0A8FB013D04F0030421D0032CF0D14F4B4FF460
:400B800080721A8007221A704D4A002448211470917002221C705C7103F8032C494A4A4D1378062643F0030313703F4B01221A70464A137843F00403137000E0FEE706FB34
:400BC000045300219A881868013400F0C0FB092CF5D1002211463E4C04F16C0554F8210005EB420320F0FF06C0B2024405EB4200013303300233984206D013F8037C13F815
:400C000002EC07F806E0F5E701311B29E6D1314A31491378314843F002031370137C304C43F002031374A2F58632633A137843F0400313700B7843F010030B70294B1D46CF
:400C4000196801605968416055F8080F696803C418462989C83CA4F8C81050F8121F44F81E1C416853F81A0F44F81A1C59681B8903C41D4923800B78A4F6885443F00803C2
:400C80000B701A4B01F5AA511B780C31DBB203F007001B0908704B70154B442119700FCA07C42380F8BD00BF004800400F010049A1460040254200402242004004400040D5
:400CC00006400040A243004074130000E8460040AC13000003500140C2430040C2510040F05100402018000022430040CF0100497658004008B500F0F3FA03680C2B00D1D7
:400D0000FEE7FEE780B51148114B0025C0B1A3F1100192C922460439161BB74204D051F8046F42F8046BF7E7114653F8046C8C1AA64202D041F8045BF9E701381033E5E751
:400D400000F0D4FAFFF7B8FCFEE700BF010000007C180000104A114B10B41A60104A114C1368114843F4007313600023032B98BF54F823204FEA830188BF0C4A0133302B16
:400D80004250F3D10A4B1A780A4B1A700A4B064A10BC1A60FFF7BCBE0004FA050CED00E014ED00E0000000000080FF1FF50C0000BC760040C080FF1F08ED00E0184A1378CE
:400DC00043F002031370937803F08F0343F010039370144B1A7802F0CF021A701A7842F030021A701A7802F0F0021A701A7842F00F021A70FF2223F8072C7F2223F8052CE6
:400E0000002203F8082C084A137843F00103137092F85E3B43F0010382F85E3B704700BF004F00400B4F0040A3430040074A137843F001031370137C43F00103137492F82B
:400E40005D3B43F0010382F85D3B7047A343004008B505490B781BB9FFF7B0FF01230B70BDE80840FFF7E2BF7181FF1F70B500F037F900F0D5F908B104243AE000F00AFA88
:400E80000728044610D11C4D2A781B4B900703D4012000F0E3F8F7E71A78910704D51B789B0814BF0724002400F0DAF90CBB00F017F900F0B5F90028DED1012000F096F935
:400EC00007280AD10C4D02210C4800F01BF90228094E05D02B789B07F5D54FF0FF3406E033789A0703D4012000F0B8F8F8E700F0B7F9204670BD00BF22470040FC81FF1F5E
:400F000041282DE9F04105460E46174698460AD8441F3A2C8CBF002401243F2804D8B1F5807F30D806E00124812E28BF0124B8F1100F28D13FB334BB00F072F928BB4346C9
:400F40003A463146284600F0FBF8072834D1DFF8748098F800201B4B12F0020F1F4603D1012000F07BF8F4E71A78900706D51B789B080CD002E01A78920719D44FF0FF34E7
:400F800000F06EF91AE0012418E0042416E00E4A314653782846127800F008F907280BD13A78084B9107E6D4012000F057F8F7E71B789B08E4D0E1E70446E1E72046BDE8B3
:400FC000F08100BF22470040FC81FF1F08B500F07FF90F4A137843F008031370137C43F0080313740B4BC8221A700B4A137843F010031370137C43F01003137402F55572D2
:4010000013789B06FCD5BDE8084000F065B900BFA043004001470040AC43004001BE7047024A137843F0010313707047F646004038B50446084DB4F5004F05D9286800F003
:401040003FF9A4F50044F6E7034B58686043BDE8384000F035B900BFD480FF1F024B1B7A584300F02DB900BFD480FF1F08B500F02FF900BF00BF00BF00BF00BF00BF00BF0F
:4010800000BF00BF00BF00BF00BF00BF00BF00BF00BF064A13889BB243F0040313801388BFF36F8FBDE8084000F016B900480040054A00F01F00126800F1100352F82300AC
:4010C00042F82310704700BF08ED00E000F01F0000F16040490100F56440C9B20170704708B500F0F5F8064A137843F008031370137C43F008031374BDE8084000F0ECB807
:40110000A04300402DE9F0410E464B1E0A4FDFF82C80451EC418A5420BD03B78DB0703D40120FFF79BFFF8E798F8003005F8013FF1E73046BDE8F0812247004020470040FE
:4011400070B5184D2C78A60727D5174CB6262670D5262670022626702D78AD071FD416462070B51AADB2AB4203D916F8015B2570F7E7B3F5807F01D0072070BD3F28FBD862
:4011800000F5103001EB0021490100235A5C0133D2B2202B2270F9D1EEE7042070BD092070BD00BF224700402047004070B50D4D2C78A60712D50C4CB6262670D8262670CB
:4011C000052626702D78AD070AD42070080AC9B22070217022702370072070BD042070BD092070BD22470040204700400A4A137899070CD5094BB6211970E12119700E217B
:4012000019701278920704D4187007207047042070470920704700BF224700402047004038B500F055F80C4A147874B901250B4915700B682B400AD00B6823F001030B6015
:4012400000BF00BF00BF556002E0042400E01C4600F042F8204638BD7481FF1F0400084010B500F035F8094B00215A681970012A08D1074C226842F00102226000BF00BF94
:4012800000BF5960BDE8104000F026B87481FF1F04000840074B1B789B0708D5064BB6221A70E0221A700D221A70072070470420704700BF22470040204700400000000070
:4012C0000230800803D000BF01380046FCD17047EFF3108072B6704780F31088704700BF014B1868704700BF4481FF1F0E4B70B51E460E4C0025E41AA410A54204D056F88C
:40130000253098470135F8E700F09EFA084B094C1E46E41AA4100025A54204D056F8253098470135F8E770BD5418000054180000541800005C18000010B5431E0A4491427B
:4013400004D011F8014B03F8014FF8E710BD03460244934202D003F8011BFAE7704700000019000029000000000000006910162E003C0101004F00400C00005100401000EF
:4013800020510040100040510040300000000140001000140140000800400140000A004C01400002005001402000000001450040024F0040035200400164004002650040FA
:4013C00002030140010501405806014035070140020B0140040C0140030D01404C14014040150140581601403F170140074001400A41014008420140064301400445014024
:401400000246014005470140064801400749014006500140025101407E0201100A4B180261017C40860F84768738E208E642E20401140618084309090A0C0B100C180D20D5
:401440000E470F03110C1311161019101B0C1C201D1C1F022043221C2601288029102A07300132C034203520361E371F38083A803E113F104026410445E046C047B0482A91
:4014800049FF4AFF4BFF4EF04F44500C54015604580459045A045B045F0166C06A406B0282808501864087028C4F8D018E308F02902A92159473960C984399019A3C9B02E1
:4014C0009C559E2AA473A501A60CA702AC30AD03AE0CB03FB103B4C0B6C0D804D904DF01008501800544060808510A200C8811441420153016201701180C19021A011C2089
:401500001D441E46220225402704285029822C082F0832103540372139443C203D803F02460847214C804D11562057015C205D015E4466018201C0EDC2AFC475CA2ACCB4DF
:40154000CEBAD0A0D220D6F0D8808104A10439083F0459045F012504E208E64200010680070C089C09040A430E731082130214FF150F1A0C1C8F1D0D1E301F0220F3210325
:40158000220C230C240825082804290D2B022C03300F321C34EC3501370E3A223B883F10404541034202440645EC480349FF4AFF4BFF4C624DA04EF04F41500C56025712ED
:4015C000580459045A045B045F016640670269106A306B106D106E106F1288018A048C059002940598029C019E04B203B604B888D804DF0100080122020204400520080144
:4016000009880A040B080D880E040F40104011801314186019211B061F4421882308284029212A08318832023B183C043F084044410849044A0A4B025B08684069446A2048
:40164000720873548080942095449620978A980199029C809D24A004A140A20AA440A588A702C0CFC2FFC40FCA07CC0BCE06D007D20CD602012C034207520B0C0C0311306B
:40168000134619301A011B4A1C0223012704280329302B402F01337834033501370E38203B883E103F104002470449FF4A0F4BFF4C404D204EF04F055008560858045904F5
:4016C0005A045B045D905F01604061A86240632080488225850387048B208C1F8D028EE08F1890929225930394E39503961C98039AFC9C259EDA9F03A101A308A4E3A61CC4
:40170000A720AB03ACE0AD03AE1CB103B30CB510B6FFB720BE40BF44D418D604D804D904DB04DF01008001020701081109400A210B080D100E020F0A1144172018011D20D8
:40174000200822892404272129262B022E282F4131883202372138283A403C203F0A45204F08560857085A025C806044628064016640804090089201940195649620990214
:401780009A209C119F21A010A203A440A708AB04C089C2CFC445CAFFCCABCEEED020D611D81D30023380340237103B10CCF0CE10840287108C0297109C029F10A402A7800D
:4017C000E210E64053085B0883089F10A780D420D640E2201B0883109F10A788C610E220850186018E40E602950296410A410D0195029641C20E83809A04A780AA04E620F6
:40180000EA800308560483089A04C040D440E48000010A01100111011A011B0100AF010200010100010000004000000000000000C000000B0B0000000000020004020200FD
:401840000200000043000000F8B500BFF8BC08BC9E46704751000000550D0000F8B500BFF8BC08BC9E4670472D00000080180000C880FF1F80000000B8000000000000000F
:401880000000000060130000641300000000007D00FA0000400000000090D003000000000000000000000000000000000000000000000000000000000000000044180000C8
:4018C000000000000000000000000000000000000000000000000000000000000000000000000000000000000000000000000000000000000000000000000000E480FF1F66
:4019000000000000000000000000000000000000000000000000000000000000000000000000000000000000000000000000000000000000000000000000000000000000A7
:401940000000000000000000000000000000000000000000000000000000000000000000000000000000000000000000000000000000000000000000000000000000000067
:401980000000000000000000000000000000000000000000000000000000000000000000000000000000000000000000000000000000000000000000000000000000000027
:4019C00000000000000000000000000000000000000000000000000000000000000000000000000000000000000000000000000000000000000000000000000000000000E7
:020000040003F7
:40FFC00000000000000000000000000000000000000000000100010000000000000000000000000000000000000000000000000000000000000000000000000000000000FF
:0200000480007A
:4000000000000000000000000000000000000000000000000000000000000000000000000000000000000000000000000000000000000000000000000000000000000000C0
:400040000000000000000000000000000000000000000000000000000000000000000000000000000000000000000000000000000000000000000000000000000000000080
:400080000000000000000000000000000000000000000000000000000000000000000000000000000000000000000000000000000000000000000000000000000000000040
:4000C0000000000000000000000000000000000000000000000000000000000000000000000000000000000000000000000000000000000000000000000000000000000000
:0200000490006A
:0400000000004005B7
:0200000490105A
:04000000BC90ACAF55
:0200000490303A
:02000000D30229
:0200000490402A
:4000000000000000000000000000000000000000000000000000000000000000000000000000000000000000000000000000000000000000000000000000000000000000C0
:400040000000000000000000000000000000000000000000000000000000000000000000000000000000000000000000000000000000000000000000000000000000000080
:400080000000000000000000000000000000000000000000000000000000000000000000000000000000000000000000000000000000000000000000000000000000000040
:4000C0000000000000000000000000000000000000000000000000000000000000000000000000000000000000000000000000000000000000000000000000000000000000
:0200000490501A
:0C00000000012E16106900012E1EE36B9B
:00000001FF